{
  "_format": "hh-sol-artifact-1",
  "contractName": "InvestmentClub",
  "sourceName": "contracts/InvestmentClub.sol",
  "abi": [
    {
      "inputs": [],
      "stateMutability": "nonpayable",
      "type": "constructor"
    },
    {
      "inputs": [
        {
          "internalType": "uint256",
          "name": "clubId",
          "type": "uint256"
        },
        {
          "internalType": "uint256",
          "name": "proposalId",
          "type": "uint256"
        }
      ],
      "name": "closeProposal",
      "outputs": [],
      "stateMutability": "nonpayable",
      "type": "function"
    },
    {
      "inputs": [
        {
          "internalType": "uint256",
          "name": "clubId",
          "type": "uint256"
        }
      ],
      "name": "contributeToClub",
      "outputs": [],
      "stateMutability": "payable",
      "type": "function"
    },
    {
      "inputs": [
        {
          "internalType": "string",
          "name": "name",
          "type": "string"
        }
      ],
      "name": "createClub",
      "outputs": [
        {
          "internalType": "uint256",
          "name": "",
          "type": "uint256"
        }
      ],
      "stateMutability": "nonpayable",
      "type": "function"
    },
    {
      "inputs": [
        {
          "internalType": "uint256",
          "name": "clubId",
          "type": "uint256"
        },
        {
          "internalType": "uint256",
          "name": "amount",
          "type": "uint256"
        },
        {
          "internalType": "address",
          "name": "destination",
          "type": "address"
        },
        {
          "internalType": "string",
          "name": "description",
          "type": "string"
        }
      ],
      "name": "createProposal",
      "outputs": [],
      "stateMutability": "nonpayable",
      "type": "function"
    },
    {
      "inputs": [
        {
          "internalType": "uint256",
          "name": "clubId",
          "type": "uint256"
        },
        {
          "internalType": "uint256",
          "name": "proposalId",
          "type": "uint256"
        }
      ],
      "name": "executeProposal",
      "outputs": [],
      "stateMutability": "payable",
      "type": "function"
    },
    {
      "inputs": [
        {
          "internalType": "address",
          "name": "userAddress",
          "type": "address"
        },
        {
          "internalType": "uint256",
          "name": "clubId",
          "type": "uint256"
        }
      ],
      "name": "getBalanceByClub",
      "outputs": [
        {
          "internalType": "uint256",
          "name": "",
          "type": "uint256"
        }
      ],
      "stateMutability": "view",
      "type": "function"
    },
    {
      "inputs": [
        {
          "internalType": "uint256",
          "name": "clubId",
          "type": "uint256"
        }
      ],
      "name": "getClubById",
      "outputs": [
        {
          "components": [
            {
              "internalType": "uint256",
              "name": "clubId",
              "type": "uint256"
            },
            {
              "internalType": "string",
              "name": "name",
              "type": "string"
            },
            {
              "internalType": "uint256",
              "name": "memberCount",
              "type": "uint256"
            },
            {
              "internalType": "uint256",
              "name": "proposalCount",
              "type": "uint256"
            },
            {
              "internalType": "uint256",
              "name": "pool",
              "type": "uint256"
            }
          ],
          "internalType": "struct InvestmentClub.ClubInfo",
          "name": "",
          "type": "tuple"
        }
      ],
      "stateMutability": "view",
      "type": "function"
    },
    {
      "inputs": [],
      "name": "getMyClubs",
      "outputs": [
        {
          "components": [
            {
              "internalType": "uint256",
              "name": "clubId",
              "type": "uint256"
            },
            {
              "internalType": "string",
              "name": "name",
              "type": "string"
            },
            {
              "internalType": "uint256",
              "name": "memberCount",
              "type": "uint256"
            },
            {
              "internalType": "uint256",
              "name": "proposalCount",
              "type": "uint256"
            },
            {
              "internalType": "uint256",
              "name": "pool",
              "type": "uint256"
            }
          ],
          "internalType": "struct InvestmentClub.ClubInfo[]",
          "name": "",
          "type": "tuple[]"
        }
      ],
      "stateMutability": "view",
      "type": "function"
    },
    {
      "inputs": [
        {
          "internalType": "uint256",
          "name": "clubId",
          "type": "uint256"
        },
        {
          "internalType": "uint256",
          "name": "proposalId",
          "type": "uint256"
        }
      ],
      "name": "getProposalById",
      "outputs": [
        {
          "components": [
            {
              "internalType": "uint256",
              "name": "id",
              "type": "uint256"
            },
            {
              "internalType": "address",
              "name": "creator",
              "type": "address"
            },
            {
              "internalType": "uint256",
              "name": "amount",
              "type": "uint256"
            },
            {
              "internalType": "address",
              "name": "destination",
              "type": "address"
            },
            {
              "internalType": "string",
              "name": "status",
              "type": "string"
            },
            {
              "internalType": "string",
              "name": "description",
              "type": "string"
            },
            {
              "internalType": "uint256",
              "name": "votesFor",
              "type": "uint256"
            },
            {
              "internalType": "uint256",
              "name": "votesAgainst",
              "type": "uint256"
            }
          ],
          "internalType": "struct InvestmentClub.ProposalInfo",
          "name": "",
          "type": "tuple"
        }
      ],
      "stateMutability": "view",
      "type": "function"
    },
    {
      "inputs": [
        {
          "internalType": "uint256",
          "name": "clubId",
          "type": "uint256"
        }
      ],
      "name": "getProposalsByClub",
      "outputs": [
        {
          "components": [
            {
              "internalType": "uint256",
              "name": "id",
              "type": "uint256"
            },
            {
              "internalType": "address",
              "name": "creator",
              "type": "address"
            },
            {
              "internalType": "uint256",
              "name": "amount",
              "type": "uint256"
            },
            {
              "internalType": "address",
              "name": "destination",
              "type": "address"
            },
            {
              "internalType": "string",
              "name": "status",
              "type": "string"
            },
            {
              "internalType": "string",
              "name": "description",
              "type": "string"
            },
            {
              "internalType": "uint256",
              "name": "votesFor",
              "type": "uint256"
            },
            {
              "internalType": "uint256",
              "name": "votesAgainst",
              "type": "uint256"
            }
          ],
          "internalType": "struct InvestmentClub.ProposalInfo[]",
          "name": "",
          "type": "tuple[]"
        }
      ],
      "stateMutability": "view",
      "type": "function"
    },
    {
      "inputs": [
        {
          "internalType": "address",
          "name": "sender",
          "type": "address"
        },
        {
          "internalType": "uint256",
          "name": "proposalId",
          "type": "uint256"
        },
        {
          "internalType": "uint256",
          "name": "clubId",
          "type": "uint256"
        }
      ],
      "name": "hasVoted",
      "outputs": [
        {
          "internalType": "bool",
          "name": "",
          "type": "bool"
        }
      ],
      "stateMutability": "view",
      "type": "function"
    },
    {
      "inputs": [
        {
          "internalType": "uint256",
          "name": "clubId",
          "type": "uint256"
        }
      ],
      "name": "isClubFull",
      "outputs": [
        {
          "internalType": "bool",
          "name": "",
          "type": "bool"
        }
      ],
      "stateMutability": "view",
      "type": "function"
    },
    {
      "inputs": [
        {
          "internalType": "uint256",
          "name": "clubId",
          "type": "uint256"
        }
      ],
      "name": "isClubIdExist",
      "outputs": [
        {
          "internalType": "bool",
          "name": "",
          "type": "bool"
        }
      ],
      "stateMutability": "view",
      "type": "function"
    },
    {
      "inputs": [
        {
          "internalType": "address",
          "name": "memberAddress",
          "type": "address"
        },
        {
          "internalType": "uint256",
          "name": "clubId",
          "type": "uint256"
        }
      ],
      "name": "isMemberOfClub",
      "outputs": [
        {
          "internalType": "bool",
          "name": "",
          "type": "bool"
        }
      ],
      "stateMutability": "view",
      "type": "function"
    },
    {
      "inputs": [
        {
          "internalType": "uint256",
          "name": "proposalId",
          "type": "uint256"
        },
        {
          "internalType": "uint256",
          "name": "clubId",
          "type": "uint256"
        }
      ],
      "name": "isProposalIdExist",
      "outputs": [
        {
          "internalType": "bool",
          "name": "",
          "type": "bool"
        }
      ],
      "stateMutability": "view",
      "type": "function"
    },
    {
      "inputs": [
        {
          "internalType": "uint256",
          "name": "clubId",
          "type": "uint256"
        }
      ],
      "name": "joinClub",
      "outputs": [],
      "stateMutability": "nonpayable",
      "type": "function"
    },
    {
      "inputs": [
        {
          "internalType": "uint256",
          "name": "clubId",
          "type": "uint256"
        }
      ],
      "name": "leaveClub",
      "outputs": [],
      "stateMutability": "nonpayable",
      "type": "function"
    },
    {
      "inputs": [],
      "name": "listClubs",
      "outputs": [
        {
          "components": [
            {
              "internalType": "uint256",
              "name": "clubId",
              "type": "uint256"
            },
            {
              "internalType": "string",
              "name": "name",
              "type": "string"
            },
            {
              "internalType": "uint256",
              "name": "memberCount",
              "type": "uint256"
            },
            {
              "internalType": "uint256",
              "name": "proposalCount",
              "type": "uint256"
            },
            {
              "internalType": "uint256",
              "name": "pool",
              "type": "uint256"
            }
          ],
          "internalType": "struct InvestmentClub.ClubInfo[]",
          "name": "",
          "type": "tuple[]"
        }
      ],
      "stateMutability": "view",
      "type": "function"
    },
    {
      "inputs": [
        {
          "internalType": "uint256",
          "name": "clubId",
          "type": "uint256"
        },
        {
          "internalType": "uint256",
          "name": "proposalId",
          "type": "uint256"
        },
        {
          "internalType": "bool",
          "name": "vote",
          "type": "bool"
        }
      ],
      "name": "voteOnProposal",
      "outputs": [],
      "stateMutability": "nonpayable",
      "type": "function"
    }
  ],
  "bytecode": "0x608060405234801561001057600080fd5b5060006001819055506136b2806100286000396000f3fe6080604052600436106101145760003560e01c80635ff847fb116100a0578063c467087811610064578063c4670878146103cd578063e15427421461040a578063e7613ea814610433578063eec8e0db1461045c578063f13c5cc21461049957610114565b80635ff847fb146102c25780636764fd48146102ed5780637945d63c1461032a578063890e245614610353578063c3741fed1461039057610114565b8063288509b4116100e7578063288509b4146101ec57806334fa3d83146102085780634d7f75c314610245578063549710be1461026e57806354a2e2331461029957610114565b8063058694a9146101195780630ee294041461015657806314204fc6146101935780631ab76712146101d0575b600080fd5b34801561012557600080fd5b50610140600480360381019061013b9190612266565b6104d6565b60405161014d91906124f5565b60405180910390f35b34801561016257600080fd5b5061017d60048036038101906101789190612543565b6107e0565b60405161018a91906125b1565b60405180910390f35b34801561019f57600080fd5b506101ba60048036038101906101b591906125cc565b61085f565b6040516101c791906126c3565b60405180910390f35b6101ea60048036038101906101e591906125cc565b610b07565b005b61020660048036038101906102019190612266565b610dd0565b005b34801561021457600080fd5b5061022f600480360381019061022a91906126e5565b610f3a565b60405161023c91906125b1565b60405180910390f35b34801561025157600080fd5b5061026c60048036038101906102679190612266565b610fe9565b005b34801561027a57600080fd5b50610283611123565b604051610290919061285d565b60405180910390f35b3480156102a557600080fd5b506102c060048036038101906102bb91906128ab565b6112c6565b005b3480156102ce57600080fd5b506102d7611554565b6040516102e4919061285d565b60405180910390f35b3480156102f957600080fd5b50610314600480360381019061030f9190612266565b6116dc565b60405161032191906125b1565b60405180910390f35b34801561033657600080fd5b50610351600480360381019061034c9190612a33565b6116fe565b005b34801561035f57600080fd5b5061037a600480360381019061037591906126e5565b61194c565b6040516103879190612ac5565b60405180910390f35b34801561039c57600080fd5b506103b760048036038101906103b29190612266565b6119b7565b6040516103c49190612b56565b60405180910390f35b3480156103d957600080fd5b506103f460048036038101906103ef9190612266565b611aee565b60405161040191906125b1565b60405180910390f35b34801561041657600080fd5b50610431600480360381019061042c9190612266565b611b10565b005b34801561043f57600080fd5b5061045a600480360381019061045591906125cc565b611ce7565b005b34801561046857600080fd5b50610483600480360381019061047e91906125cc565b611ed4565b60405161049091906125b1565b60405180910390f35b3480156104a557600080fd5b506104c060048036038101906104bb9190612b78565b611f0b565b6040516104cd9190612ac5565b60405180910390f35b60606104e1826116dc565b610520576040517f08c379a000000000000000000000000000000000000000000000000000000000815260040161051790612c1e565b60405180910390fd5b600080600084815260200190815260200160002090506000816006015467ffffffffffffffff81111561055657610555612908565b5b60405190808252806020026020018201604052801561058f57816020015b61057c6120d9565b8152602001906001900390816105745790505b509050600080600190505b836006015481116107d45760008460050160008381526020019081526020016000209050604051806101000160405280826000015481526020018260010160009054906101000a900473ffffffffffffffffffffffffffffffffffffffff1673ffffffffffffffffffffffffffffffffffffffff168152602001826002015481526020018260030160009054906101000a900473ffffffffffffffffffffffffffffffffffffffff1673ffffffffffffffffffffffffffffffffffffffff16815260200182600401805461066d90612c6d565b80601f016020809104026020016040519081016040528092919081815260200182805461069990612c6d565b80156106e65780601f106106bb576101008083540402835291602001916106e6565b820191906000526020600020905b8154815290600101906020018083116106c957829003601f168201915b505050505081526020018260050180546106ff90612c6d565b80601f016020809104026020016040519081016040528092919081815260200182805461072b90612c6d565b80156107785780601f1061074d57610100808354040283529160200191610778565b820191906000526020600020905b81548152906001019060200180831161075b57829003601f168201915b505050505081526020018260060154815260200182600701548152508484815181106107a7576107a6612c9f565b5b602002602001018190525082806107bd90612cfd565b9350505080806107cc90612cfd565b91505061059a565b50819350505050919050565b6000806000838152602001908152602001600020600501600084815260200190815260200160002060080160008573ffffffffffffffffffffffffffffffffffffffff1673ffffffffffffffffffffffffffffffffffffffff16815260200190815260200160002060009054906101000a900460ff1690509392505050565b6108676120d9565b610870836116dc565b6108af576040517f08c379a00000000000000000000000000000000000000000000000000000000081526004016108a690612d92565b60405180910390fd5b6108b98284611ed4565b6108f8576040517f08c379a00000000000000000000000000000000000000000000000000000000081526004016108ef90612dfe565b60405180910390fd5b6000806000858152602001908152602001600020600501600084815260200190815260200160002090506000604051806101000160405280836000015481526020018360010160009054906101000a900473ffffffffffffffffffffffffffffffffffffffff1673ffffffffffffffffffffffffffffffffffffffff168152602001836002015481526020018360030160009054906101000a900473ffffffffffffffffffffffffffffffffffffffff1673ffffffffffffffffffffffffffffffffffffffff1681526020018360040180546109d390612c6d565b80601f01602080910402602001604051908101604052809291908181526020018280546109ff90612c6d565b8015610a4c5780601f10610a2157610100808354040283529160200191610a4c565b820191906000526020600020905b815481529060010190602001808311610a2f57829003601f168201915b50505050508152602001836005018054610a6590612c6d565b80601f0160208091040260200160405190810160405280929190818152602001828054610a9190612c6d565b8015610ade5780601f10610ab357610100808354040283529160200191610ade565b820191906000526020600020905b815481529060010190602001808311610ac157829003601f168201915b505050505081526020018360060154815260200183600701548152509050809250505092915050565b610b10826116dc565b610b4f576040517f08c379a0000000000000000000000000000000000000000000000000000000008152600401610b4690612d92565b60405180910390fd5b60008060008481526020019081526020016000209050610b6f3384610f3a565b610bae576040517f08c379a0000000000000000000000000000000000000000000000000000000008152600401610ba590612e6a565b60405180910390fd5b610bb88284611ed4565b610bf7576040517f08c379a0000000000000000000000000000000000000000000000000000000008152600401610bee90612dfe565b60405180910390fd5b610c01838361204c565b610c40576040517f08c379a0000000000000000000000000000000000000000000000000000000008152600401610c3790612efc565b60405180910390fd5b60008160050160008481526020019081526020016000209050806002015482600401541015610ca4576040517f08c379a0000000000000000000000000000000000000000000000000000000008152600401610c9b90612f8e565b60405180910390fd5b8060070154816006015411610cee576040517f08c379a0000000000000000000000000000000000000000000000000000000008152600401610ce590613020565b60405180910390fd5b6040518060400160405280600881526020017f4578656375746564000000000000000000000000000000000000000000000000815250816004019080519060200190610d3b92919061214a565b508060020154826004016000828254610d549190613040565b925050819055508060030160009054906101000a900473ffffffffffffffffffffffffffffffffffffffff1673ffffffffffffffffffffffffffffffffffffffff166108fc82600201549081150290604051600060405180830381858888f19350505050158015610dc9573d6000803e3d6000fd5b5050505050565b610dd9816116dc565b610e18576040517f08c379a0000000000000000000000000000000000000000000000000000000008152600401610e0f90612d92565b60405180910390fd5b60008060008381526020019081526020016000209050610e383383610f3a565b610e77576040517f08c379a0000000000000000000000000000000000000000000000000000000008152600401610e6e90612e6a565b60405180910390fd5b60003411610eba576040517f08c379a0000000000000000000000000000000000000000000000000000000008152600401610eb1906130e6565b60405180910390fd5b60008160020160003373ffffffffffffffffffffffffffffffffffffffff1673ffffffffffffffffffffffffffffffffffffffff168152602001908152602001600020905034816001016000828254610f139190613106565b9250508190555034826004016000828254610f2e9190613106565b92505081905550505050565b60008073ffffffffffffffffffffffffffffffffffffffff1660008084815260200190815260200160002060020160008573ffffffffffffffffffffffffffffffffffffffff1673ffffffffffffffffffffffffffffffffffffffff16815260200190815260200160002060000160009054906101000a900473ffffffffffffffffffffffffffffffffffffffff1673ffffffffffffffffffffffffffffffffffffffff161415905092915050565b610ff2816116dc565b611031576040517f08c379a000000000000000000000000000000000000000000000000000000000815260040161102890612d92565b60405180910390fd5b600080600083815260200190815260200160002090506110513383610f3a565b611090576040517f08c379a000000000000000000000000000000000000000000000000000000000815260040161108790612e6a565b60405180910390fd5b60018160030160008282546110a59190613040565b925050819055508060020160003373ffffffffffffffffffffffffffffffffffffffff1673ffffffffffffffffffffffffffffffffffffffff168152602001908152602001600020600080820160006101000a81549073ffffffffffffffffffffffffffffffffffffffff0219169055600182016000905550505050565b6060600060015467ffffffffffffffff81111561114357611142612908565b5b60405190808252806020026020018201604052801561117c57816020015b6111696121d0565b8152602001906001900390816111615790505b509050600080600190505b60015481116112bd57600080600083815260200190815260200160002090506111b4338260000154610f3a565b156112a9576040518060a00160405280826000015481526020018260010180546111dd90612c6d565b80601f016020809104026020016040519081016040528092919081815260200182805461120990612c6d565b80156112565780601f1061122b57610100808354040283529160200191611256565b820191906000526020600020905b81548152906001019060200180831161123957829003601f168201915b505050505081526020018260030154815260200182600601548152602001826004015481525084848151811061128f5761128e612c9f565b5b602002602001018190525082806112a590612cfd565b9350505b5080806112b590612cfd565b915050611187565b50819250505090565b6112cf836116dc565b61130e576040517f08c379a000000000000000000000000000000000000000000000000000000000815260040161130590612d92565b60405180910390fd5b6000806000858152602001908152602001600020905061132e3385610f3a565b61136d576040517f08c379a000000000000000000000000000000000000000000000000000000000815260040161136490612e6a565b60405180910390fd5b6113778385611ed4565b6113b6576040517f08c379a00000000000000000000000000000000000000000000000000000000081526004016113ad90612dfe565b60405180910390fd5b600081600501600085815260200190815260200160002090506113da3385876107e0565b1561141a576040517f08c379a0000000000000000000000000000000000000000000000000000000008152600401611411906131ce565b60405180910390fd5b6040518060400160405280600781526020017f50656e64696e67000000000000000000000000000000000000000000000000008152508051906020012081600401604051611468919061328d565b6040518091039020146114b0576040517f08c379a00000000000000000000000000000000000000000000000000000000081526004016114a790613316565b60405180910390fd5b828160080160003373ffffffffffffffffffffffffffffffffffffffff1673ffffffffffffffffffffffffffffffffffffffff16815260200190815260200160002060006101000a81548160ff02191690831515021790555082156115305760018160060160008282546115249190613106565b9250508190555061154d565b60018160070160008282546115459190613106565b925050819055505b5050505050565b6060600060015467ffffffffffffffff81111561157457611573612908565b5b6040519080825280602002602001820160405280156115ad57816020015b61159a6121d0565b8152602001906001900390816115925790505b50905060005b6001548110156116d45760008060006001846115cf9190613106565b815260200190815260200160002090506040518060a001604052808260000154815260200182600101805461160390612c6d565b80601f016020809104026020016040519081016040528092919081815260200182805461162f90612c6d565b801561167c5780601f106116515761010080835404028352916020019161167c565b820191906000526020600020905b81548152906001019060200180831161165f57829003601f168201915b50505050508152602001826003015481526020018260060154815260200182600401548152508383815181106116b5576116b4612c9f565b5b60200260200101819052505080806116cc90612cfd565b9150506115b3565b508091505090565b6000806000808481526020019081526020016000206000015414159050919050565b611707846116dc565b611746576040517f08c379a000000000000000000000000000000000000000000000000000000000815260040161173d90612d92565b60405180910390fd5b600080600086815260200190815260200160002090506117663386610f3a565b6117a5576040517f08c379a000000000000000000000000000000000000000000000000000000000815260040161179c90612e6a565b60405180910390fd5b600084116117e8576040517f08c379a00000000000000000000000000000000000000000000000000000000081526004016117df906133a8565b60405180910390fd5b6000600182600601546117fb9190613106565b9050600080600088815260200190815260200160002060050160008381526020019081526020016000209050818160000181905550338160010160006101000a81548173ffffffffffffffffffffffffffffffffffffffff021916908373ffffffffffffffffffffffffffffffffffffffff160217905550858160020181905550848160030160006101000a81548173ffffffffffffffffffffffffffffffffffffffff021916908373ffffffffffffffffffffffffffffffffffffffff1602179055506040518060400160405280600781526020017f50656e64696e670000000000000000000000000000000000000000000000000081525081600401908051906020019061190c92919061214a565b508381600501908051906020019061192592919061214a565b50600081600601819055506000816007018190555081836006018190555050505050505050565b600080600080848152602001908152602001600020905060008160020160008673ffffffffffffffffffffffffffffffffffffffff1673ffffffffffffffffffffffffffffffffffffffff168152602001908152602001600020905080600101549250505092915050565b6119bf6121d0565b6119c8826116dc565b611a07576040517f08c379a00000000000000000000000000000000000000000000000000000000081526004016119fe90612d92565b60405180910390fd5b6000806000848152602001908152602001600020905060006040518060a0016040528083600001548152602001836001018054611a4390612c6d565b80601f0160208091040260200160405190810160405280929190818152602001828054611a6f90612c6d565b8015611abc5780601f10611a9157610100808354040283529160200191611abc565b820191906000526020600020905b815481529060010190602001808311611a9f57829003601f168201915b505050505081526020018360030154815260200183600601548152602001836004015481525090508092505050919050565b6000606360008084815260200190815260200160002060030154109050919050565b611b19816116dc565b611b58576040517f08c379a0000000000000000000000000000000000000000000000000000000008152600401611b4f90613414565b60405180910390fd5b60008060008381526020019081526020016000209050611b7782611aee565b611bb6576040517f08c379a0000000000000000000000000000000000000000000000000000000008152600401611bad906134a6565b60405180910390fd5b611bc03383610f3a565b15611c00576040517f08c379a0000000000000000000000000000000000000000000000000000000008152600401611bf790613538565b60405180910390fd5b600060405180604001604052803373ffffffffffffffffffffffffffffffffffffffff16815260200160008152509050808260020160003373ffffffffffffffffffffffffffffffffffffffff1673ffffffffffffffffffffffffffffffffffffffff16815260200190815260200160002060008201518160000160006101000a81548173ffffffffffffffffffffffffffffffffffffffff021916908373ffffffffffffffffffffffffffffffffffffffff160217905550602082015181600101559050506001826003016000828254611cdb9190613106565b92505081905550505050565b611cf0826116dc565b611d2f576040517f08c379a0000000000000000000000000000000000000000000000000000000008152600401611d2690612d92565b60405180910390fd5b611d398183611ed4565b611d78576040517f08c379a0000000000000000000000000000000000000000000000000000000008152600401611d6f90612dfe565b60405180910390fd5b6000806000848152602001908152602001600020600501600083815260200190815260200160002090506040518060400160405280600781526020017f50656e64696e67000000000000000000000000000000000000000000000000008152508051906020012081600401604051611df0919061328d565b604051809103902014611e38576040517f08c379a0000000000000000000000000000000000000000000000000000000008152600401611e2f906135ca565b60405180910390fd5b611e42838361204c565b611e81576040517f08c379a0000000000000000000000000000000000000000000000000000000008152600401611e789061365c565b60405180910390fd5b6040518060400160405280600681526020017f436c6f7365640000000000000000000000000000000000000000000000000000815250816004019080519060200190611ece92919061214a565b50505050565b6000806000808481526020019081526020016000206005016000858152602001908152602001600020600001541415905092915050565b60008060018054611f1c9190613106565b90506000806000838152602001908152602001600020905081816000018190555083816001019080519060200190611f5592919061214a565b50600081600401819055506000816006018190555060018160030181905550600060405180604001604052803373ffffffffffffffffffffffffffffffffffffffff16815260200160008152509050808260020160003373ffffffffffffffffffffffffffffffffffffffff1673ffffffffffffffffffffffffffffffffffffffff16815260200190815260200160002060008201518160000160006101000a81548173ffffffffffffffffffffffffffffffffffffffff021916908373ffffffffffffffffffffffffffffffffffffffff1602179055506020820151816001015590505082600181905550829350505050919050565b6000806000808581526020019081526020016000209050600081600501600085815260200190815260200160002090508060010160009054906101000a900473ffffffffffffffffffffffffffffffffffffffff1673ffffffffffffffffffffffffffffffffffffffff163373ffffffffffffffffffffffffffffffffffffffff16149250505092915050565b60405180610100016040528060008152602001600073ffffffffffffffffffffffffffffffffffffffff16815260200160008152602001600073ffffffffffffffffffffffffffffffffffffffff168152602001606081526020016060815260200160008152602001600081525090565b82805461215690612c6d565b90600052602060002090601f01602090048101928261217857600085556121bf565b82601f1061219157805160ff19168380011785556121bf565b828001600101855582156121bf579182015b828111156121be5782518255916020019190600101906121a3565b5b5090506121cc91906121ff565b5090565b6040518060a0016040528060008152602001606081526020016000815260200160008152602001600081525090565b5b80821115612218576000816000905550600101612200565b5090565b6000604051905090565b600080fd5b600080fd5b6000819050919050565b61224381612230565b811461224e57600080fd5b50565b6000813590506122608161223a565b92915050565b60006020828403121561227c5761227b612226565b5b600061228a84828501612251565b91505092915050565b600081519050919050565b600082825260208201905092915050565b6000819050602082019050919050565b6122c881612230565b82525050565b600073ffffffffffffffffffffffffffffffffffffffff82169050919050565b60006122f9826122ce565b9050919050565b612309816122ee565b82525050565b600081519050919050565b600082825260208201905092915050565b60005b8381101561234957808201518184015260208101905061232e565b83811115612358576000848401525b50505050565b6000601f19601f8301169050919050565b600061237a8261230f565b612384818561231a565b935061239481856020860161232b565b61239d8161235e565b840191505092915050565b6000610100830160008301516123c160008601826122bf565b5060208301516123d46020860182612300565b5060408301516123e760408601826122bf565b5060608301516123fa6060860182612300565b5060808301518482036080860152612412828261236f565b91505060a083015184820360a086015261242c828261236f565b91505060c083015161244160c08601826122bf565b5060e083015161245460e08601826122bf565b508091505092915050565b600061246b83836123a8565b905092915050565b6000602082019050919050565b600061248b82612293565b612495818561229e565b9350836020820285016124a7856122af565b8060005b858110156124e357848403895281516124c4858261245f565b94506124cf83612473565b925060208a019950506001810190506124ab565b50829750879550505050505092915050565b6000602082019050818103600083015261250f8184612480565b905092915050565b612520816122ee565b811461252b57600080fd5b50565b60008135905061253d81612517565b92915050565b60008060006060848603121561255c5761255b612226565b5b600061256a8682870161252e565b935050602061257b86828701612251565b925050604061258c86828701612251565b9150509250925092565b60008115159050919050565b6125ab81612596565b82525050565b60006020820190506125c660008301846125a2565b92915050565b600080604083850312156125e3576125e2612226565b5b60006125f185828601612251565b925050602061260285828601612251565b9150509250929050565b60006101008301600083015161262560008601826122bf565b5060208301516126386020860182612300565b50604083015161264b60408601826122bf565b50606083015161265e6060860182612300565b5060808301518482036080860152612676828261236f565b91505060a083015184820360a0860152612690828261236f565b91505060c08301516126a560c08601826122bf565b5060e08301516126b860e08601826122bf565b508091505092915050565b600060208201905081810360008301526126dd818461260c565b905092915050565b600080604083850312156126fc576126fb612226565b5b600061270a8582860161252e565b925050602061271b85828601612251565b9150509250929050565b600081519050919050565b600082825260208201905092915050565b6000819050602082019050919050565b600060a08301600083015161276960008601826122bf565b5060208301518482036020860152612781828261236f565b915050604083015161279660408601826122bf565b5060608301516127a960608601826122bf565b5060808301516127bc60808601826122bf565b508091505092915050565b60006127d38383612751565b905092915050565b6000602082019050919050565b60006127f382612725565b6127fd8185612730565b93508360208202850161280f85612741565b8060005b8581101561284b578484038952815161282c85826127c7565b9450612837836127db565b925060208a01995050600181019050612813565b50829750879550505050505092915050565b6000602082019050818103600083015261287781846127e8565b905092915050565b61288881612596565b811461289357600080fd5b50565b6000813590506128a58161287f565b92915050565b6000806000606084860312156128c4576128c3612226565b5b60006128d286828701612251565b93505060206128e386828701612251565b92505060406128f486828701612896565b9150509250925092565b600080fd5b600080fd5b7f4e487b7100000000000000000000000000000000000000000000000000000000600052604160045260246000fd5b6129408261235e565b810181811067ffffffffffffffff8211171561295f5761295e612908565b5b80604052505050565b600061297261221c565b905061297e8282612937565b919050565b600067ffffffffffffffff82111561299e5761299d612908565b5b6129a78261235e565b9050602081019050919050565b82818337600083830152505050565b60006129d66129d184612983565b612968565b9050828152602081018484840111156129f2576129f1612903565b5b6129fd8482856129b4565b509392505050565b600082601f830112612a1a57612a196128fe565b5b8135612a2a8482602086016129c3565b91505092915050565b60008060008060808587031215612a4d57612a4c612226565b5b6000612a5b87828801612251565b9450506020612a6c87828801612251565b9350506040612a7d8782880161252e565b925050606085013567ffffffffffffffff811115612a9e57612a9d61222b565b5b612aaa87828801612a05565b91505092959194509250565b612abf81612230565b82525050565b6000602082019050612ada6000830184612ab6565b92915050565b600060a083016000830151612af860008601826122bf565b5060208301518482036020860152612b10828261236f565b9150506040830151612b2560408601826122bf565b506060830151612b3860608601826122bf565b506080830151612b4b60808601826122bf565b508091505092915050565b60006020820190508181036000830152612b708184612ae0565b905092915050565b600060208284031215612b8e57612b8d612226565b5b600082013567ffffffffffffffff811115612bac57612bab61222b565b5b612bb884828501612a05565b91505092915050565b600082825260208201905092915050565b7f436c756220646f6573206e6f7420657869737400000000000000000000000000600082015250565b6000612c08601383612bc1565b9150612c1382612bd2565b602082019050919050565b60006020820190508181036000830152612c3781612bfb565b9050919050565b7f4e487b7100000000000000000000000000000000000000000000000000000000600052602260045260246000fd5b60006002820490506001821680612c8557607f821691505b60208210811415612c9957612c98612c3e565b5b50919050565b7f4e487b7100000000000000000000000000000000000000000000000000000000600052603260045260246000fd5b7f4e487b7100000000000000000000000000000000000000000000000000000000600052601160045260246000fd5b6000612d0882612230565b91507fffffffffffffffffffffffffffffffffffffffffffffffffffffffffffffffff821415612d3b57612d3a612cce565b5b600182019050919050565b7f74686520636c756220646f6573206e6f74206578697374000000000000000000600082015250565b6000612d7c601783612bc1565b9150612d8782612d46565b602082019050919050565b60006020820190508181036000830152612dab81612d6f565b9050919050565b7f5468652070726f706f73616c20646f6573206e6f742065786973740000000000600082015250565b6000612de8601b83612bc1565b9150612df382612db2565b602082019050919050565b60006020820190508181036000830152612e1781612ddb565b9050919050565b7f596f7520617265206e6f742061206d656d626572206f662074686520636c7562600082015250565b6000612e54602083612bc1565b9150612e5f82612e1e565b602082019050919050565b60006020820190508181036000830152612e8381612e47565b9050919050565b7f4f6e6c79207468652063726561746f72206f66207468652070726f706f73616c60008201527f2063616e20657865637574652069740000000000000000000000000000000000602082015250565b6000612ee6602f83612bc1565b9150612ef182612e8a565b604082019050919050565b60006020820190508181036000830152612f1581612ed9565b9050919050565b7f54686520616d6f756e7420657863656564732074686520706f6f6c206f66207460008201527f686520636c756200000000000000000000000000000000000000000000000000602082015250565b6000612f78602783612bc1565b9150612f8382612f1c565b604082019050919050565b60006020820190508181036000830152612fa781612f6b565b9050919050565b7f5468652070726f706f73616c20686173206e6f74206265656e20617070726f7660008201527f6564000000000000000000000000000000000000000000000000000000000000602082015250565b600061300a602283612bc1565b915061301582612fae565b604082019050919050565b6000602082019050818103600083015261303981612ffd565b9050919050565b600061304b82612230565b915061305683612230565b92508282101561306957613068612cce565b5b828203905092915050565b7f596f75206d7573742073656e642045564d4f5320746f20636f6e74726962757460008201527f6500000000000000000000000000000000000000000000000000000000000000602082015250565b60006130d0602183612bc1565b91506130db82613074565b604082019050919050565b600060208201905081810360008301526130ff816130c3565b9050919050565b600061311182612230565b915061311c83612230565b9250827fffffffffffffffffffffffffffffffffffffffffffffffffffffffffffffffff0382111561315157613150612cce565b5b828201905092915050565b7f596f75206861766520616c726561647920766f746564206f6e2074686973207060008201527f726f706f73616c00000000000000000000000000000000000000000000000000602082015250565b60006131b8602783612bc1565b91506131c38261315c565b604082019050919050565b600060208201905081810360008301526131e7816131ab565b9050919050565b600081905092915050565b60008190508160005260206000209050919050565b6000815461321b81612c6d565b61322581866131ee565b94506001821660008114613240576001811461325157613284565b60ff19831686528186019350613284565b61325a856131f9565b60005b8381101561327c5781548189015260018201915060208101905061325d565b838801955050505b50505092915050565b6000613299828461320e565b915081905092915050565b7f5468652070726f706f73616c206973206e6f206c6f6e6765722070656e64696e60008201527f6700000000000000000000000000000000000000000000000000000000000000602082015250565b6000613300602183612bc1565b915061330b826132a4565b604082019050919050565b6000602082019050818103600083015261332f816132f3565b9050919050565b7f54686520616d6f756e74206f66207468652070726f706f73616c206d7573742060008201527f62652067726561746572207468616e2030000000000000000000000000000000602082015250565b6000613392603183612bc1565b915061339d82613336565b604082019050919050565b600060208201905081810360008301526133c181613385565b9050919050565b7f54686520636c756220646f6573206e6f74206578697374000000000000000000600082015250565b60006133fe601783612bc1565b9150613409826133c8565b602082019050919050565b6000602082019050818103600083015261342d816133f1565b9050919050565b7f54686520636c75622069732066756c6c2c206e6f206d6f7265206d656d62657260008201527f732063616e206265206164646564000000000000000000000000000000000000602082015250565b6000613490602e83612bc1565b915061349b82613434565b604082019050919050565b600060208201905081810360008301526134bf81613483565b9050919050565b7f596f752061726520616c72656164792061206d656d626572206f66207468652060008201527f636c756200000000000000000000000000000000000000000000000000000000602082015250565b6000613522602483612bc1565b915061352d826134c6565b604082019050919050565b6000602082019050818103600083015261355181613515565b9050919050565b7f5468652070726f706f73616c206973206e6f7420696e2070656e64696e67207360008201527f7461747573000000000000000000000000000000000000000000000000000000602082015250565b60006135b4602583612bc1565b91506135bf82613558565b604082019050919050565b600060208201905081810360008301526135e3816135a7565b9050919050565b7f4f6e6c79207468652070726f706f73616c2063726561746f722063616e20636c60008201527f6f7365207468652070726f706f73616c00000000000000000000000000000000602082015250565b6000613646603083612bc1565b9150613651826135ea565b604082019050919050565b6000602082019050818103600083015261367581613639565b905091905056fea26469706673582212203ffab2d90a9fd9445722b9d5b1db6b173714b9cb4ad84e3c26a17b9fd84a8d2564736f6c634300080a0033",
  "linkReferences": {},
  "deployedLinkReferences": {}
}