{
  "_format": "hh-sol-artifact-1",
  "contractName": "InvestmentClub",
  "sourceName": "contracts/InvestmentClub.sol",
  "abi": [
    {
      "inputs": [],
      "stateMutability": "nonpayable",
      "type": "constructor"
    },
    {
      "inputs": [
        {
          "internalType": "uint256",
          "name": "clubId",
          "type": "uint256"
        },
        {
          "internalType": "uint256",
          "name": "proposalId",
          "type": "uint256"
        }
      ],
      "name": "closeProposal",
      "outputs": [],
      "stateMutability": "nonpayable",
      "type": "function"
    },
    {
      "inputs": [
        {
          "internalType": "uint256",
          "name": "clubId",
          "type": "uint256"
        }
      ],
      "name": "contributeToClub",
      "outputs": [],
      "stateMutability": "payable",
      "type": "function"
    },
    {
      "inputs": [
        {
          "internalType": "string",
          "name": "name",
          "type": "string"
        },
        {
          "internalType": "string",
          "name": "Cid",
          "type": "string"
        }
      ],
      "name": "createClub",
      "outputs": [
        {
          "internalType": "uint256",
          "name": "",
          "type": "uint256"
        }
      ],
      "stateMutability": "nonpayable",
      "type": "function"
    },
    {
      "inputs": [
        {
          "internalType": "uint256",
          "name": "clubId",
          "type": "uint256"
        },
        {
          "internalType": "uint256",
          "name": "amount",
          "type": "uint256"
        },
        {
          "internalType": "address",
          "name": "destination",
          "type": "address"
        },
        {
          "internalType": "string",
          "name": "description",
          "type": "string"
        },
        {
          "internalType": "string",
          "name": "Cid",
          "type": "string"
        }
      ],
      "name": "createProposal",
      "outputs": [],
      "stateMutability": "nonpayable",
      "type": "function"
    },
    {
      "inputs": [
        {
          "internalType": "uint256",
          "name": "clubId",
          "type": "uint256"
        },
        {
          "internalType": "uint256",
          "name": "proposalId",
          "type": "uint256"
        }
      ],
      "name": "executeProposal",
      "outputs": [],
      "stateMutability": "payable",
      "type": "function"
    },
    {
      "inputs": [
        {
          "internalType": "address",
          "name": "userAddress",
          "type": "address"
        },
        {
          "internalType": "uint256",
          "name": "clubId",
          "type": "uint256"
        }
      ],
      "name": "getBalanceByClub",
      "outputs": [
        {
          "internalType": "uint256",
          "name": "",
          "type": "uint256"
        }
      ],
      "stateMutability": "view",
      "type": "function"
    },
    {
      "inputs": [
        {
          "internalType": "uint256",
          "name": "clubId",
          "type": "uint256"
        },
        {
          "internalType": "uint256",
          "name": "proposalId",
          "type": "uint256"
        },
        {
          "internalType": "string",
          "name": "_Piece",
          "type": "string"
        },
        {
          "internalType": "string",
          "name": "_carsize",
          "type": "string"
        }
      ],
      "name": "getCarpiece",
      "outputs": [],
      "stateMutability": "nonpayable",
      "type": "function"
    },
    {
      "inputs": [
        {
          "internalType": "uint256",
          "name": "clubId",
          "type": "uint256"
        }
      ],
      "name": "getClubById",
      "outputs": [
        {
          "components": [
            {
              "internalType": "uint256",
              "name": "clubId",
              "type": "uint256"
            },
            {
              "internalType": "string",
              "name": "name",
              "type": "string"
            },
            {
              "internalType": "uint256",
              "name": "memberCount",
              "type": "uint256"
            },
            {
              "internalType": "uint256",
              "name": "proposalCount",
              "type": "uint256"
            },
            {
              "internalType": "uint256",
              "name": "pool",
              "type": "uint256"
            },
            {
              "internalType": "string",
              "name": "CID",
              "type": "string"
            },
            {
              "internalType": "string",
              "name": "posdiverification",
              "type": "string"
            },
            {
              "internalType": "uint256",
              "name": "DealId",
              "type": "uint256"
            }
          ],
          "internalType": "struct InvestmentClub.ClubInfo",
          "name": "",
          "type": "tuple"
        }
      ],
      "stateMutability": "view",
      "type": "function"
    },
    {
      "inputs": [],
      "name": "getMyClubs",
      "outputs": [
        {
          "components": [
            {
              "internalType": "uint256",
              "name": "clubId",
              "type": "uint256"
            },
            {
              "internalType": "string",
              "name": "name",
              "type": "string"
            },
            {
              "internalType": "uint256",
              "name": "memberCount",
              "type": "uint256"
            },
            {
              "internalType": "uint256",
              "name": "proposalCount",
              "type": "uint256"
            },
            {
              "internalType": "uint256",
              "name": "pool",
              "type": "uint256"
            },
            {
              "internalType": "string",
              "name": "CID",
              "type": "string"
            },
            {
              "internalType": "string",
              "name": "posdiverification",
              "type": "string"
            },
            {
              "internalType": "uint256",
              "name": "DealId",
              "type": "uint256"
            }
          ],
          "internalType": "struct InvestmentClub.ClubInfo[]",
          "name": "",
          "type": "tuple[]"
        }
      ],
      "stateMutability": "view",
      "type": "function"
    },
    {
      "inputs": [
        {
          "internalType": "uint256",
          "name": "clubId",
          "type": "uint256"
        },
        {
          "internalType": "uint256",
          "name": "proposalId",
          "type": "uint256"
        }
      ],
      "name": "getProposalById",
      "outputs": [
        {
          "components": [
            {
              "internalType": "uint256",
              "name": "id",
              "type": "uint256"
            },
            {
              "internalType": "address",
              "name": "creator",
              "type": "address"
            },
            {
              "internalType": "uint256",
              "name": "amount",
              "type": "uint256"
            },
            {
              "internalType": "address",
              "name": "destination",
              "type": "address"
            },
            {
              "internalType": "string",
              "name": "status",
              "type": "string"
            },
            {
              "internalType": "string",
              "name": "description",
              "type": "string"
            },
            {
              "internalType": "uint256",
              "name": "votesFor",
              "type": "uint256"
            },
            {
              "internalType": "uint256",
              "name": "votesAgainst",
              "type": "uint256"
            },
            {
              "internalType": "uint256",
              "name": "proposedAt",
              "type": "uint256"
            },
            {
              "internalType": "uint256",
              "name": "proposalExpireAt",
              "type": "uint256"
            },
            {
              "internalType": "string",
              "name": "Cid",
              "type": "string"
            },
            {
              "internalType": "string",
              "name": "PieceCid",
              "type": "string"
            },
            {
              "internalType": "string",
              "name": "carsize",
              "type": "string"
            },
            {
              "internalType": "string",
              "name": "posdiverification",
              "type": "string"
            },
            {
              "internalType": "string",
              "name": "storageProvider",
              "type": "string"
            },
            {
              "internalType": "uint256",
              "name": "DealId",
              "type": "uint256"
            }
          ],
          "internalType": "struct InvestmentClub.ProposalInfo",
          "name": "",
          "type": "tuple"
        }
      ],
      "stateMutability": "view",
      "type": "function"
    },
    {
      "inputs": [
        {
          "internalType": "uint256",
          "name": "clubId",
          "type": "uint256"
        }
      ],
      "name": "getProposalsByClub",
      "outputs": [
        {
          "components": [
            {
              "internalType": "uint256",
              "name": "id",
              "type": "uint256"
            },
            {
              "internalType": "address",
              "name": "creator",
              "type": "address"
            },
            {
              "internalType": "uint256",
              "name": "amount",
              "type": "uint256"
            },
            {
              "internalType": "address",
              "name": "destination",
              "type": "address"
            },
            {
              "internalType": "string",
              "name": "status",
              "type": "string"
            },
            {
              "internalType": "string",
              "name": "description",
              "type": "string"
            },
            {
              "internalType": "uint256",
              "name": "votesFor",
              "type": "uint256"
            },
            {
              "internalType": "uint256",
              "name": "votesAgainst",
              "type": "uint256"
            },
            {
              "internalType": "uint256",
              "name": "proposedAt",
              "type": "uint256"
            },
            {
              "internalType": "uint256",
              "name": "proposalExpireAt",
              "type": "uint256"
            },
            {
              "internalType": "string",
              "name": "Cid",
              "type": "string"
            },
            {
              "internalType": "string",
              "name": "PieceCid",
              "type": "string"
            },
            {
              "internalType": "string",
              "name": "carsize",
              "type": "string"
            },
            {
              "internalType": "string",
              "name": "posdiverification",
              "type": "string"
            },
            {
              "internalType": "string",
              "name": "storageProvider",
              "type": "string"
            },
            {
              "internalType": "uint256",
              "name": "DealId",
              "type": "uint256"
            }
          ],
          "internalType": "struct InvestmentClub.ProposalInfo[]",
          "name": "",
          "type": "tuple[]"
        }
      ],
      "stateMutability": "view",
      "type": "function"
    },
    {
      "inputs": [
        {
          "internalType": "uint256",
          "name": "clubId",
          "type": "uint256"
        },
        {
          "internalType": "uint256",
          "name": "proposalId",
          "type": "uint256"
        },
        {
          "internalType": "uint256",
          "name": "_dealId",
          "type": "uint256"
        },
        {
          "internalType": "string",
          "name": "_storage",
          "type": "string"
        }
      ],
      "name": "getdelandstorgae",
      "outputs": [],
      "stateMutability": "nonpayable",
      "type": "function"
    },
    {
      "inputs": [
        {
          "internalType": "address",
          "name": "sender",
          "type": "address"
        },
        {
          "internalType": "uint256",
          "name": "proposalId",
          "type": "uint256"
        },
        {
          "internalType": "uint256",
          "name": "clubId",
          "type": "uint256"
        }
      ],
      "name": "hasVoted",
      "outputs": [
        {
          "internalType": "bool",
          "name": "",
          "type": "bool"
        }
      ],
      "stateMutability": "view",
      "type": "function"
    },
    {
      "inputs": [
        {
          "internalType": "uint256",
          "name": "clubId",
          "type": "uint256"
        }
      ],
      "name": "isClubFull",
      "outputs": [
        {
          "internalType": "bool",
          "name": "",
          "type": "bool"
        }
      ],
      "stateMutability": "view",
      "type": "function"
    },
    {
      "inputs": [
        {
          "internalType": "uint256",
          "name": "clubId",
          "type": "uint256"
        }
      ],
      "name": "isClubIdExist",
      "outputs": [
        {
          "internalType": "bool",
          "name": "",
          "type": "bool"
        }
      ],
      "stateMutability": "view",
      "type": "function"
    },
    {
      "inputs": [
        {
          "internalType": "address",
          "name": "memberAddress",
          "type": "address"
        },
        {
          "internalType": "uint256",
          "name": "clubId",
          "type": "uint256"
        }
      ],
      "name": "isMemberOfClub",
      "outputs": [
        {
          "internalType": "bool",
          "name": "",
          "type": "bool"
        }
      ],
      "stateMutability": "view",
      "type": "function"
    },
    {
      "inputs": [
        {
          "internalType": "uint256",
          "name": "proposalId",
          "type": "uint256"
        },
        {
          "internalType": "uint256",
          "name": "clubId",
          "type": "uint256"
        }
      ],
      "name": "isProposalIdExist",
      "outputs": [
        {
          "internalType": "bool",
          "name": "",
          "type": "bool"
        }
      ],
      "stateMutability": "view",
      "type": "function"
    },
    {
      "inputs": [
        {
          "internalType": "uint256",
          "name": "clubId",
          "type": "uint256"
        },
        {
          "internalType": "uint256",
          "name": "proposalId",
          "type": "uint256"
        }
      ],
      "name": "isVotingOn",
      "outputs": [
        {
          "internalType": "bool",
          "name": "",
          "type": "bool"
        }
      ],
      "stateMutability": "view",
      "type": "function"
    },
    {
      "inputs": [
        {
          "internalType": "uint256",
          "name": "clubId",
          "type": "uint256"
        }
      ],
      "name": "joinClub",
      "outputs": [],
      "stateMutability": "nonpayable",
      "type": "function"
    },
    {
      "inputs": [
        {
          "internalType": "uint256",
          "name": "clubId",
          "type": "uint256"
        }
      ],
      "name": "leaveClub",
      "outputs": [],
      "stateMutability": "nonpayable",
      "type": "function"
    },
    {
      "inputs": [],
      "name": "listClubs",
      "outputs": [
        {
          "components": [
            {
              "internalType": "uint256",
              "name": "clubId",
              "type": "uint256"
            },
            {
              "internalType": "string",
              "name": "name",
              "type": "string"
            },
            {
              "internalType": "uint256",
              "name": "memberCount",
              "type": "uint256"
            },
            {
              "internalType": "uint256",
              "name": "proposalCount",
              "type": "uint256"
            },
            {
              "internalType": "uint256",
              "name": "pool",
              "type": "uint256"
            },
            {
              "internalType": "string",
              "name": "CID",
              "type": "string"
            },
            {
              "internalType": "string",
              "name": "posdiverification",
              "type": "string"
            },
            {
              "internalType": "uint256",
              "name": "DealId",
              "type": "uint256"
            }
          ],
          "internalType": "struct InvestmentClub.ClubInfo[]",
          "name": "",
          "type": "tuple[]"
        }
      ],
      "stateMutability": "view",
      "type": "function"
    },
    {
      "inputs": [
        {
          "internalType": "uint256",
          "name": "clubId",
          "type": "uint256"
        },
        {
          "internalType": "uint256",
          "name": "proposalId",
          "type": "uint256"
        }
      ],
      "name": "proverifiydocs",
      "outputs": [],
      "stateMutability": "nonpayable",
      "type": "function"
    },
    {
      "inputs": [
        {
          "internalType": "uint256",
          "name": "clubId",
          "type": "uint256"
        }
      ],
      "name": "verifiydocs",
      "outputs": [],
      "stateMutability": "nonpayable",
      "type": "function"
    },
    {
      "inputs": [
        {
          "internalType": "uint256",
          "name": "clubId",
          "type": "uint256"
        },
        {
          "internalType": "uint256",
          "name": "proposalId",
          "type": "uint256"
        },
        {
          "internalType": "bool",
          "name": "vote",
          "type": "bool"
        }
      ],
      "name": "voteOnProposal",
      "outputs": [],
      "stateMutability": "nonpayable",
      "type": "function"
    }
  ],
  "bytecode": "0x608060405234801561001057600080fd5b506000600181905550614b18806100286000396000f3fe60806040526004361061014b5760003560e01c8063647e598b116100b6578063ab7ca3481161006f578063ab7ca348146104a8578063c3741fed146104e5578063c467087814610522578063e15427421461055f578063e7613ea814610588578063eec8e0db146105b15761014b565b8063647e598b1461038a5780636764fd48146103b357806382b7661b146103f0578063890e24561461041957806389972a32146104565780639d9087b91461047f5761014b565b806334fa3d831161010857806334fa3d831461026857806335a1930f146102a55780634d7f75c3146102e2578063549710be1461030b57806354a2e233146103365780635ff847fb1461035f5761014b565b8063058694a9146101505780630ee294041461018d5780631063fd19146101ca57806314204fc6146101f35780631ab7671214610230578063288509b41461024c575b600080fd5b34801561015c57600080fd5b5061017760048036038101906101729190613227565b6105ee565b6040516101849190613581565b60405180910390f35b34801561019957600080fd5b506101b460048036038101906101af91906135cf565b610bf0565b6040516101c1919061363d565b60405180910390f35b3480156101d657600080fd5b506101f160048036038101906101ec919061378d565b610c6f565b005b3480156101ff57600080fd5b5061021a60048036038101906102159190613810565b610cc2565b60405161022791906139d2565b60405180910390f35b61024a60048036038101906102459190613810565b611262565b005b61026660048036038101906102619190613227565b611575565b005b34801561027457600080fd5b5061028f600480360381019061028a91906139f4565b6116df565b60405161029c919061363d565b60405180910390f35b3480156102b157600080fd5b506102cc60048036038101906102c79190613a34565b61178e565b6040516102d99190613abb565b60405180910390f35b3480156102ee57600080fd5b5061030960048036038101906103049190613227565b611937565b005b34801561031757600080fd5b50610320611a71565b60405161032d9190613c56565b60405180910390f35b34801561034257600080fd5b5061035d60048036038101906103589190613ca4565b611d43565b005b34801561036b57600080fd5b5061037461201a565b6040516103819190613c56565b60405180910390f35b34801561039657600080fd5b506103b160048036038101906103ac9190613cf7565b6122d1565b005b3480156103bf57600080fd5b506103da60048036038101906103d59190613227565b612334565b6040516103e7919061363d565b60405180910390f35b3480156103fc57600080fd5b5061041760048036038101906104129190613227565b612356565b005b34801561042557600080fd5b50610440600480360381019061043b91906139f4565b612406565b60405161044d9190613abb565b60405180910390f35b34801561046257600080fd5b5061047d60048036038101906104789190613d96565b612471565b005b34801561048b57600080fd5b506104a660048036038101906104a19190613810565b61283a565b005b3480156104b457600080fd5b506104cf60048036038101906104ca9190613810565b6128b7565b6040516104dc919061363d565b60405180910390f35b3480156104f157600080fd5b5061050c60048036038101906105079190613227565b6128f2565b6040516105199190613f07565b60405180910390f35b34801561052e57600080fd5b5061054960048036038101906105449190613227565b612b58565b604051610556919061363d565b60405180910390f35b34801561056b57600080fd5b5061058660048036038101906105819190613227565b612b7a565b005b34801561059457600080fd5b506105af60048036038101906105aa9190613810565b612d51565b005b3480156105bd57600080fd5b506105d860048036038101906105d39190613810565b612f88565b6040516105e5919061363d565b60405180910390f35b60606105f982612334565b610638576040517f08c379a000000000000000000000000000000000000000000000000000000000815260040161062f90613f86565b60405180910390fd5b600080600084815260200190815260200160002090506000816006015467ffffffffffffffff81111561066e5761066d613662565b5b6040519080825280602002602001820160405280156106a757816020015b61069461304c565b81526020019060019003908161068c5790505b509050600080600190505b83600601548111610be45760008460050160008381526020019081526020016000209050604051806102000160405280826000015481526020018260010160009054906101000a900473ffffffffffffffffffffffffffffffffffffffff1673ffffffffffffffffffffffffffffffffffffffff168152602001826002015481526020018260030160009054906101000a900473ffffffffffffffffffffffffffffffffffffffff1673ffffffffffffffffffffffffffffffffffffffff16815260200182600401805461078590613fd5565b80601f01602080910402602001604051908101604052809291908181526020018280546107b190613fd5565b80156107fe5780601f106107d3576101008083540402835291602001916107fe565b820191906000526020600020905b8154815290600101906020018083116107e157829003601f168201915b5050505050815260200182600501805461081790613fd5565b80601f016020809104026020016040519081016040528092919081815260200182805461084390613fd5565b80156108905780601f1061086557610100808354040283529160200191610890565b820191906000526020600020905b81548152906001019060200180831161087357829003601f168201915b505050505081526020018260060154815260200182600701548152602001826008015481526020018260090154815260200182600a0180546108d190613fd5565b80601f01602080910402602001604051908101604052809291908181526020018280546108fd90613fd5565b801561094a5780601f1061091f5761010080835404028352916020019161094a565b820191906000526020600020905b81548152906001019060200180831161092d57829003601f168201915b5050505050815260200182600b01805461096390613fd5565b80601f016020809104026020016040519081016040528092919081815260200182805461098f90613fd5565b80156109dc5780601f106109b1576101008083540402835291602001916109dc565b820191906000526020600020905b8154815290600101906020018083116109bf57829003601f168201915b5050505050815260200182600c0180546109f590613fd5565b80601f0160208091040260200160405190810160405280929190818152602001828054610a2190613fd5565b8015610a6e5780601f10610a4357610100808354040283529160200191610a6e565b820191906000526020600020905b815481529060010190602001808311610a5157829003601f168201915b5050505050815260200182600d018054610a8790613fd5565b80601f0160208091040260200160405190810160405280929190818152602001828054610ab390613fd5565b8015610b005780601f10610ad557610100808354040283529160200191610b00565b820191906000526020600020905b815481529060010190602001808311610ae357829003601f168201915b5050505050815260200182600e018054610b1990613fd5565b80601f0160208091040260200160405190810160405280929190818152602001828054610b4590613fd5565b8015610b925780601f10610b6757610100808354040283529160200191610b92565b820191906000526020600020905b815481529060010190602001808311610b7557829003601f168201915b5050505050815260200182600f0154815250848481518110610bb757610bb6614007565b5b60200260200101819052508280610bcd90614065565b935050508080610bdc90614065565b9150506106b2565b50819350505050919050565b6000806000838152602001908152602001600020600501600084815260200190815260200160002060100160008573ffffffffffffffffffffffffffffffffffffffff1673ffffffffffffffffffffffffffffffffffffffff16815260200190815260200160002060009054906101000a900460ff1690509392505050565b6000806000868152602001908152602001600020600501600085815260200190815260200160002090508281600f01819055508181600e019080519060200190610cba9291906130f5565b505050505050565b610cca61304c565b610cd383612334565b610d12576040517f08c379a0000000000000000000000000000000000000000000000000000000008152600401610d09906140fa565b60405180910390fd5b610d1c8284612f88565b610d5b576040517f08c379a0000000000000000000000000000000000000000000000000000000008152600401610d5290614166565b60405180910390fd5b6000806000858152602001908152602001600020600501600084815260200190815260200160002090506000604051806102000160405280836000015481526020018360010160009054906101000a900473ffffffffffffffffffffffffffffffffffffffff1673ffffffffffffffffffffffffffffffffffffffff168152602001836002015481526020018360030160009054906101000a900473ffffffffffffffffffffffffffffffffffffffff1673ffffffffffffffffffffffffffffffffffffffff168152602001836004018054610e3690613fd5565b80601f0160208091040260200160405190810160405280929190818152602001828054610e6290613fd5565b8015610eaf5780601f10610e8457610100808354040283529160200191610eaf565b820191906000526020600020905b815481529060010190602001808311610e9257829003601f168201915b50505050508152602001836005018054610ec890613fd5565b80601f0160208091040260200160405190810160405280929190818152602001828054610ef490613fd5565b8015610f415780601f10610f1657610100808354040283529160200191610f41565b820191906000526020600020905b815481529060010190602001808311610f2457829003601f168201915b505050505081526020018360060154815260200183600701548152602001836008015481526020018360090154815260200183600a018054610f8290613fd5565b80601f0160208091040260200160405190810160405280929190818152602001828054610fae90613fd5565b8015610ffb5780601f10610fd057610100808354040283529160200191610ffb565b820191906000526020600020905b815481529060010190602001808311610fde57829003601f168201915b5050505050815260200183600b01805461101490613fd5565b80601f016020809104026020016040519081016040528092919081815260200182805461104090613fd5565b801561108d5780601f106110625761010080835404028352916020019161108d565b820191906000526020600020905b81548152906001019060200180831161107057829003601f168201915b5050505050815260200183600c0180546110a690613fd5565b80601f01602080910402602001604051908101604052809291908181526020018280546110d290613fd5565b801561111f5780601f106110f45761010080835404028352916020019161111f565b820191906000526020600020905b81548152906001019060200180831161110257829003601f168201915b5050505050815260200183600d01805461113890613fd5565b80601f016020809104026020016040519081016040528092919081815260200182805461116490613fd5565b80156111b15780601f10611186576101008083540402835291602001916111b1565b820191906000526020600020905b81548152906001019060200180831161119457829003601f168201915b5050505050815260200183600e0180546111ca90613fd5565b80601f01602080910402602001604051908101604052809291908181526020018280546111f690613fd5565b80156112435780601f1061121857610100808354040283529160200191611243565b820191906000526020600020905b81548152906001019060200180831161122657829003601f168201915b5050505050815260200183600f01548152509050809250505092915050565b600080600084815260200190815260200160002090506000816005016000848152602001908152602001600020905061129a84612334565b6112d9576040517f08c379a00000000000000000000000000000000000000000000000000000000081526004016112d0906140fa565b60405180910390fd5b6112e333856116df565b611322576040517f08c379a0000000000000000000000000000000000000000000000000000000008152600401611319906141d2565b60405180910390fd5b61132c8385612f88565b61136b576040517f08c379a000000000000000000000000000000000000000000000000000000000815260040161136290614166565b60405180910390fd5b6113758484612fbf565b6113b4576040517f08c379a00000000000000000000000000000000000000000000000000000000081526004016113ab90614264565b60405180910390fd5b8060020154826004015410156113ff576040517f08c379a00000000000000000000000000000000000000000000000000000000081526004016113f6906142f6565b60405180910390fd5b8060070154816006015411611449576040517f08c379a000000000000000000000000000000000000000000000000000000000815260040161144090614388565b60405180910390fd5b61145384846128b7565b15611493576040517f08c379a000000000000000000000000000000000000000000000000000000000815260040161148a9061441a565b60405180910390fd5b6040518060400160405280600881526020017f45786563757465640000000000000000000000000000000000000000000000008152508160040190805190602001906114e09291906130f5565b5080600201548260040160008282546114f9919061443a565b925050819055508060030160009054906101000a900473ffffffffffffffffffffffffffffffffffffffff1673ffffffffffffffffffffffffffffffffffffffff166108fc82600201549081150290604051600060405180830381858888f1935050505015801561156e573d6000803e3d6000fd5b5050505050565b61157e81612334565b6115bd576040517f08c379a00000000000000000000000000000000000000000000000000000000081526004016115b4906140fa565b60405180910390fd5b600080600083815260200190815260200160002090506115dd33836116df565b61161c576040517f08c379a0000000000000000000000000000000000000000000000000000000008152600401611613906141d2565b60405180910390fd5b6000341161165f576040517f08c379a0000000000000000000000000000000000000000000000000000000008152600401611656906144e0565b60405180910390fd5b60008160020160003373ffffffffffffffffffffffffffffffffffffffff1673ffffffffffffffffffffffffffffffffffffffff1681526020019081526020016000209050348160010160008282546116b89190614500565b92505081905550348260040160008282546116d39190614500565b92505081905550505050565b60008073ffffffffffffffffffffffffffffffffffffffff1660008084815260200190815260200160002060020160008573ffffffffffffffffffffffffffffffffffffffff1673ffffffffffffffffffffffffffffffffffffffff16815260200190815260200160002060000160009054906101000a900473ffffffffffffffffffffffffffffffffffffffff1673ffffffffffffffffffffffffffffffffffffffff161415905092915050565b6000806001805461179f9190614500565b905060008060008381526020019081526020016000209050818160000181905550848160010190805190602001906117d89291906130f5565b506000816004018190555060008160060181905550600181600301819055508381600701908051906020019061180f9291906130f5565b506040518060400160405280600b81526020017f556e2d566572696669656400000000000000000000000000000000000000000081525081600801908051906020019061185d9291906130f5565b50600060405180604001604052803373ffffffffffffffffffffffffffffffffffffffff16815260200160008152509050808260020160003373ffffffffffffffffffffffffffffffffffffffff1673ffffffffffffffffffffffffffffffffffffffff16815260200190815260200160002060008201518160000160006101000a81548173ffffffffffffffffffffffffffffffffffffffff021916908373ffffffffffffffffffffffffffffffffffffffff160217905550602082015181600101559050508260018190555082935050505092915050565b61194081612334565b61197f576040517f08c379a0000000000000000000000000000000000000000000000000000000008152600401611976906140fa565b60405180910390fd5b6000806000838152602001908152602001600020905061199f33836116df565b6119de576040517f08c379a00000000000000000000000000000000000000000000000000000000081526004016119d5906141d2565b60405180910390fd5b60018160030160008282546119f3919061443a565b925050819055508060020160003373ffffffffffffffffffffffffffffffffffffffff1673ffffffffffffffffffffffffffffffffffffffff168152602001908152602001600020600080820160006101000a81549073ffffffffffffffffffffffffffffffffffffffff0219169055600182016000905550505050565b6060600060015467ffffffffffffffff811115611a9157611a90613662565b5b604051908082528060200260200182016040528015611aca57816020015b611ab761317b565b815260200190600190039081611aaf5790505b509050600080600190505b6001548111611d3a5760008060008381526020019081526020016000209050611b023382600001546116df565b15611d265760405180610100016040528082600001548152602001826001018054611b2c90613fd5565b80601f0160208091040260200160405190810160405280929190818152602001828054611b5890613fd5565b8015611ba55780601f10611b7a57610100808354040283529160200191611ba5565b820191906000526020600020905b815481529060010190602001808311611b8857829003601f168201915b50505050508152602001826003015481526020018260060154815260200182600401548152602001826007018054611bdc90613fd5565b80601f0160208091040260200160405190810160405280929190818152602001828054611c0890613fd5565b8015611c555780601f10611c2a57610100808354040283529160200191611c55565b820191906000526020600020905b815481529060010190602001808311611c3857829003601f168201915b50505050508152602001826008018054611c6e90613fd5565b80601f0160208091040260200160405190810160405280929190818152602001828054611c9a90613fd5565b8015611ce75780601f10611cbc57610100808354040283529160200191611ce7565b820191906000526020600020905b815481529060010190602001808311611cca57829003601f168201915b505050505081526020018260090154815250848481518110611d0c57611d0b614007565b5b60200260200101819052508280611d2290614065565b9350505b508080611d3290614065565b915050611ad5565b50819250505090565b611d4c83612334565b611d8b576040517f08c379a0000000000000000000000000000000000000000000000000000000008152600401611d82906140fa565b60405180910390fd5b611d9583836128b7565b611dd4576040517f08c379a0000000000000000000000000000000000000000000000000000000008152600401611dcb906145a2565b60405180910390fd5b60008060008581526020019081526020016000209050611df433856116df565b611e33576040517f08c379a0000000000000000000000000000000000000000000000000000000008152600401611e2a906141d2565b60405180910390fd5b611e3d8385612f88565b611e7c576040517f08c379a0000000000000000000000000000000000000000000000000000000008152600401611e7390614166565b60405180910390fd5b60008160050160008581526020019081526020016000209050611ea0338587610bf0565b15611ee0576040517f08c379a0000000000000000000000000000000000000000000000000000000008152600401611ed790614634565b60405180910390fd5b6040518060400160405280600781526020017f50656e64696e67000000000000000000000000000000000000000000000000008152508051906020012081600401604051611f2e91906146f3565b604051809103902014611f76576040517f08c379a0000000000000000000000000000000000000000000000000000000008152600401611f6d9061477c565b60405180910390fd5b828160100160003373ffffffffffffffffffffffffffffffffffffffff1673ffffffffffffffffffffffffffffffffffffffff16815260200190815260200160002060006101000a81548160ff0219169083151502179055508215611ff6576001816006016000828254611fea9190614500565b92505081905550612013565b600181600701600082825461200b9190614500565b925050819055505b5050505050565b6060600060015467ffffffffffffffff81111561203a57612039613662565b5b60405190808252806020026020018201604052801561207357816020015b61206061317b565b8152602001906001900390816120585790505b50905060005b6001548110156122c95760008060006001846120959190614500565b81526020019081526020016000209050604051806101000160405280826000015481526020018260010180546120ca90613fd5565b80601f01602080910402602001604051908101604052809291908181526020018280546120f690613fd5565b80156121435780601f1061211857610100808354040283529160200191612143565b820191906000526020600020905b81548152906001019060200180831161212657829003601f168201915b5050505050815260200182600301548152602001826006015481526020018260040154815260200182600701805461217a90613fd5565b80601f01602080910402602001604051908101604052809291908181526020018280546121a690613fd5565b80156121f35780601f106121c8576101008083540402835291602001916121f3565b820191906000526020600020905b8154815290600101906020018083116121d657829003601f168201915b5050505050815260200182600801805461220c90613fd5565b80601f016020809104026020016040519081016040528092919081815260200182805461223890613fd5565b80156122855780601f1061225a57610100808354040283529160200191612285565b820191906000526020600020905b81548152906001019060200180831161226857829003601f168201915b5050505050815260200182600901548152508383815181106122aa576122a9614007565b5b60200260200101819052505080806122c190614065565b915050612079565b508091505090565b6000806000868152602001908152602001600020600501600085815260200190815260200160002090508281600b0190805190602001906123139291906130f5565b508181600c01908051906020019061232c9291906130f5565b505050505050565b6000806000808481526020019081526020016000206000015414159050919050565b61235f81612334565b61239e576040517f08c379a0000000000000000000000000000000000000000000000000000000008152600401612395906147e8565b60405180910390fd5b600080600083815260200190815260200160002090506040518060400160405280600881526020017f56657269666965640000000000000000000000000000000000000000000000008152508160080190805190602001906124019291906130f5565b505050565b600080600080848152602001908152602001600020905060008160020160008673ffffffffffffffffffffffffffffffffffffffff1673ffffffffffffffffffffffffffffffffffffffff168152602001908152602001600020905080600101549250505092915050565b61247a85612334565b6124b9576040517f08c379a00000000000000000000000000000000000000000000000000000000081526004016124b0906140fa565b60405180910390fd5b600080600087815260200190815260200160002090506124d933876116df565b612518576040517f08c379a000000000000000000000000000000000000000000000000000000000815260040161250f906141d2565b60405180910390fd5b6000851161255b576040517f08c379a00000000000000000000000000000000000000000000000000000000081526004016125529061487a565b60405180910390fd5b60006001826006015461256e9190614500565b9050600080600089815260200190815260200160002060050160008381526020019081526020016000209050818160000181905550338160010160006101000a81548173ffffffffffffffffffffffffffffffffffffffff021916908373ffffffffffffffffffffffffffffffffffffffff160217905550868160020181905550858160030160006101000a81548173ffffffffffffffffffffffffffffffffffffffff021916908373ffffffffffffffffffffffffffffffffffffffff1602179055506040518060400160405280600781526020017f50656e64696e670000000000000000000000000000000000000000000000000081525081600401908051906020019061267f9291906130f5565b50848160050190805190602001906126989291906130f5565b50600081600601819055506000816007018190555042816008018190555061012c426126c49190614500565b81600901819055508381600a0190805190602001906126e49291906130f5565b506040518060400160405280600a81526020017f494e2050726f636573730000000000000000000000000000000000000000000081525081600b0190805190602001906127329291906130f5565b506040518060400160405280600a81526020017f494e2d50726f636573730000000000000000000000000000000000000000000081525081600c0190805190602001906127809291906130f5565b50600081600f01819055506040518060400160405280600a81526020017f494e2d50726f636573730000000000000000000000000000000000000000000081525081600e0190805190602001906127d89291906130f5565b506040518060400160405280600b81526020017f556e2d566572696669656400000000000000000000000000000000000000000081525081600d0190805190602001906128269291906130f5565b508183600601819055505050505050505050565b6000806000848152602001908152602001600020600501600083815260200190815260200160002090506040518060400160405280600881526020017f566572696669656400000000000000000000000000000000000000000000000081525081600d0190805190602001906128b19291906130f5565b50505050565b600080600080858152602001908152602001600020600501600084815260200190815260200160002090504281600901541191505092915050565b6128fa61317b565b61290382612334565b612942576040517f08c379a0000000000000000000000000000000000000000000000000000000008152600401612939906140fa565b60405180910390fd5b6000806000848152602001908152602001600020905060006040518061010001604052808360000154815260200183600101805461297f90613fd5565b80601f01602080910402602001604051908101604052809291908181526020018280546129ab90613fd5565b80156129f85780601f106129cd576101008083540402835291602001916129f8565b820191906000526020600020905b8154815290600101906020018083116129db57829003601f168201915b50505050508152602001836003015481526020018360060154815260200183600401548152602001836007018054612a2f90613fd5565b80601f0160208091040260200160405190810160405280929190818152602001828054612a5b90613fd5565b8015612aa85780601f10612a7d57610100808354040283529160200191612aa8565b820191906000526020600020905b815481529060010190602001808311612a8b57829003601f168201915b50505050508152602001836008018054612ac190613fd5565b80601f0160208091040260200160405190810160405280929190818152602001828054612aed90613fd5565b8015612b3a5780601f10612b0f57610100808354040283529160200191612b3a565b820191906000526020600020905b815481529060010190602001808311612b1d57829003601f168201915b50505050508152602001836009015481525090508092505050919050565b6000606360008084815260200190815260200160002060030154109050919050565b612b8381612334565b612bc2576040517f08c379a0000000000000000000000000000000000000000000000000000000008152600401612bb9906147e8565b60405180910390fd5b60008060008381526020019081526020016000209050612be182612b58565b612c20576040517f08c379a0000000000000000000000000000000000000000000000000000000008152600401612c179061490c565b60405180910390fd5b612c2a33836116df565b15612c6a576040517f08c379a0000000000000000000000000000000000000000000000000000000008152600401612c619061499e565b60405180910390fd5b600060405180604001604052803373ffffffffffffffffffffffffffffffffffffffff16815260200160008152509050808260020160003373ffffffffffffffffffffffffffffffffffffffff1673ffffffffffffffffffffffffffffffffffffffff16815260200190815260200160002060008201518160000160006101000a81548173ffffffffffffffffffffffffffffffffffffffff021916908373ffffffffffffffffffffffffffffffffffffffff160217905550602082015181600101559050506001826003016000828254612d459190614500565b92505081905550505050565b612d5a82612334565b612d99576040517f08c379a0000000000000000000000000000000000000000000000000000000008152600401612d90906140fa565b60405180910390fd5b612da38183612f88565b612de2576040517f08c379a0000000000000000000000000000000000000000000000000000000008152600401612dd990614166565b60405180910390fd5b612dec82826128b7565b15612e2c576040517f08c379a0000000000000000000000000000000000000000000000000000000008152600401612e239061441a565b60405180910390fd5b6000806000848152602001908152602001600020600501600083815260200190815260200160002090506040518060400160405280600781526020017f50656e64696e67000000000000000000000000000000000000000000000000008152508051906020012081600401604051612ea491906146f3565b604051809103902014612eec576040517f08c379a0000000000000000000000000000000000000000000000000000000008152600401612ee390614a30565b60405180910390fd5b612ef68383612fbf565b612f35576040517f08c379a0000000000000000000000000000000000000000000000000000000008152600401612f2c90614ac2565b60405180910390fd5b6040518060400160405280600681526020017f436c6f7365640000000000000000000000000000000000000000000000000000815250816004019080519060200190612f829291906130f5565b50505050565b6000806000808481526020019081526020016000206005016000858152602001908152602001600020600001541415905092915050565b6000806000808581526020019081526020016000209050600081600501600085815260200190815260200160002090508060010160009054906101000a900473ffffffffffffffffffffffffffffffffffffffff1673ffffffffffffffffffffffffffffffffffffffff163373ffffffffffffffffffffffffffffffffffffffff16149250505092915050565b60405180610200016040528060008152602001600073ffffffffffffffffffffffffffffffffffffffff16815260200160008152602001600073ffffffffffffffffffffffffffffffffffffffff1681526020016060815260200160608152602001600081526020016000815260200160008152602001600081526020016060815260200160608152602001606081526020016060815260200160608152602001600081525090565b82805461310190613fd5565b90600052602060002090601f016020900481019282613123576000855561316a565b82601f1061313c57805160ff191683800117855561316a565b8280016001018555821561316a579182015b8281111561316957825182559160200191906001019061314e565b5b50905061317791906131c0565b5090565b60405180610100016040528060008152602001606081526020016000815260200160008152602001600081526020016060815260200160608152602001600081525090565b5b808211156131d95760008160009055506001016131c1565b5090565b6000604051905090565b600080fd5b600080fd5b6000819050919050565b613204816131f1565b811461320f57600080fd5b50565b600081359050613221816131fb565b92915050565b60006020828403121561323d5761323c6131e7565b5b600061324b84828501613212565b91505092915050565b600081519050919050565b600082825260208201905092915050565b6000819050602082019050919050565b613289816131f1565b82525050565b600073ffffffffffffffffffffffffffffffffffffffff82169050919050565b60006132ba8261328f565b9050919050565b6132ca816132af565b82525050565b600081519050919050565b600082825260208201905092915050565b60005b8381101561330a5780820151818401526020810190506132ef565b83811115613319576000848401525b50505050565b6000601f19601f8301169050919050565b600061333b826132d0565b61334581856132db565b93506133558185602086016132ec565b61335e8161331f565b840191505092915050565b6000610200830160008301516133826000860182613280565b50602083015161339560208601826132c1565b5060408301516133a86040860182613280565b5060608301516133bb60608601826132c1565b50608083015184820360808601526133d38282613330565b91505060a083015184820360a08601526133ed8282613330565b91505060c083015161340260c0860182613280565b5060e083015161341560e0860182613280565b5061010083015161342a610100860182613280565b5061012083015161343f610120860182613280565b506101408301518482036101408601526134598282613330565b9150506101608301518482036101608601526134758282613330565b9150506101808301518482036101808601526134918282613330565b9150506101a08301518482036101a08601526134ad8282613330565b9150506101c08301518482036101c08601526134c98282613330565b9150506101e08301516134e06101e0860182613280565b508091505092915050565b60006134f78383613369565b905092915050565b6000602082019050919050565b600061351782613254565b613521818561325f565b93508360208202850161353385613270565b8060005b8581101561356f578484038952815161355085826134eb565b945061355b836134ff565b925060208a01995050600181019050613537565b50829750879550505050505092915050565b6000602082019050818103600083015261359b818461350c565b905092915050565b6135ac816132af565b81146135b757600080fd5b50565b6000813590506135c9816135a3565b92915050565b6000806000606084860312156135e8576135e76131e7565b5b60006135f6868287016135ba565b935050602061360786828701613212565b925050604061361886828701613212565b9150509250925092565b60008115159050919050565b61363781613622565b82525050565b6000602082019050613652600083018461362e565b92915050565b600080fd5b600080fd5b7f4e487b7100000000000000000000000000000000000000000000000000000000600052604160045260246000fd5b61369a8261331f565b810181811067ffffffffffffffff821117156136b9576136b8613662565b5b80604052505050565b60006136cc6131dd565b90506136d88282613691565b919050565b600067ffffffffffffffff8211156136f8576136f7613662565b5b6137018261331f565b9050602081019050919050565b82818337600083830152505050565b600061373061372b846136dd565b6136c2565b90508281526020810184848401111561374c5761374b61365d565b5b61375784828561370e565b509392505050565b600082601f83011261377457613773613658565b5b813561378484826020860161371d565b91505092915050565b600080600080608085870312156137a7576137a66131e7565b5b60006137b587828801613212565b94505060206137c687828801613212565b93505060406137d787828801613212565b925050606085013567ffffffffffffffff8111156137f8576137f76131ec565b5b6138048782880161375f565b91505092959194509250565b60008060408385031215613827576138266131e7565b5b600061383585828601613212565b925050602061384685828601613212565b9150509250929050565b6000610200830160008301516138696000860182613280565b50602083015161387c60208601826132c1565b50604083015161388f6040860182613280565b5060608301516138a260608601826132c1565b50608083015184820360808601526138ba8282613330565b91505060a083015184820360a08601526138d48282613330565b91505060c08301516138e960c0860182613280565b5060e08301516138fc60e0860182613280565b50610100830151613911610100860182613280565b50610120830151613926610120860182613280565b506101408301518482036101408601526139408282613330565b91505061016083015184820361016086015261395c8282613330565b9150506101808301518482036101808601526139788282613330565b9150506101a08301518482036101a08601526139948282613330565b9150506101c08301518482036101c08601526139b08282613330565b9150506101e08301516139c76101e0860182613280565b508091505092915050565b600060208201905081810360008301526139ec8184613850565b905092915050565b60008060408385031215613a0b57613a0a6131e7565b5b6000613a19858286016135ba565b9250506020613a2a85828601613212565b9150509250929050565b60008060408385031215613a4b57613a4a6131e7565b5b600083013567ffffffffffffffff811115613a6957613a686131ec565b5b613a758582860161375f565b925050602083013567ffffffffffffffff811115613a9657613a956131ec565b5b613aa28582860161375f565b9150509250929050565b613ab5816131f1565b82525050565b6000602082019050613ad06000830184613aac565b92915050565b600081519050919050565b600082825260208201905092915050565b6000819050602082019050919050565b600061010083016000830151613b1b6000860182613280565b5060208301518482036020860152613b338282613330565b9150506040830151613b486040860182613280565b506060830151613b5b6060860182613280565b506080830151613b6e6080860182613280565b5060a083015184820360a0860152613b868282613330565b91505060c083015184820360c0860152613ba08282613330565b91505060e0830151613bb560e0860182613280565b508091505092915050565b6000613bcc8383613b02565b905092915050565b6000602082019050919050565b6000613bec82613ad6565b613bf68185613ae1565b935083602082028501613c0885613af2565b8060005b85811015613c445784840389528151613c258582613bc0565b9450613c3083613bd4565b925060208a01995050600181019050613c0c565b50829750879550505050505092915050565b60006020820190508181036000830152613c708184613be1565b905092915050565b613c8181613622565b8114613c8c57600080fd5b50565b600081359050613c9e81613c78565b92915050565b600080600060608486031215613cbd57613cbc6131e7565b5b6000613ccb86828701613212565b9350506020613cdc86828701613212565b9250506040613ced86828701613c8f565b9150509250925092565b60008060008060808587031215613d1157613d106131e7565b5b6000613d1f87828801613212565b9450506020613d3087828801613212565b935050604085013567ffffffffffffffff811115613d5157613d506131ec565b5b613d5d8782880161375f565b925050606085013567ffffffffffffffff811115613d7e57613d7d6131ec565b5b613d8a8782880161375f565b91505092959194509250565b600080600080600060a08688031215613db257613db16131e7565b5b6000613dc088828901613212565b9550506020613dd188828901613212565b9450506040613de2888289016135ba565b935050606086013567ffffffffffffffff811115613e0357613e026131ec565b5b613e0f8882890161375f565b925050608086013567ffffffffffffffff811115613e3057613e2f6131ec565b5b613e3c8882890161375f565b9150509295509295909350565b600061010083016000830151613e626000860182613280565b5060208301518482036020860152613e7a8282613330565b9150506040830151613e8f6040860182613280565b506060830151613ea26060860182613280565b506080830151613eb56080860182613280565b5060a083015184820360a0860152613ecd8282613330565b91505060c083015184820360c0860152613ee78282613330565b91505060e0830151613efc60e0860182613280565b508091505092915050565b60006020820190508181036000830152613f218184613e49565b905092915050565b600082825260208201905092915050565b7f436c756220646f6573206e6f7420657869737400000000000000000000000000600082015250565b6000613f70601383613f29565b9150613f7b82613f3a565b602082019050919050565b60006020820190508181036000830152613f9f81613f63565b9050919050565b7f4e487b7100000000000000000000000000000000000000000000000000000000600052602260045260246000fd5b60006002820490506001821680613fed57607f821691505b6020821081141561400157614000613fa6565b5b50919050565b7f4e487b7100000000000000000000000000000000000000000000000000000000600052603260045260246000fd5b7f4e487b7100000000000000000000000000000000000000000000000000000000600052601160045260246000fd5b6000614070826131f1565b91507fffffffffffffffffffffffffffffffffffffffffffffffffffffffffffffffff8214156140a3576140a2614036565b5b600182019050919050565b7f74686520636c756220646f6573206e6f74206578697374000000000000000000600082015250565b60006140e4601783613f29565b91506140ef826140ae565b602082019050919050565b60006020820190508181036000830152614113816140d7565b9050919050565b7f5468652070726f706f73616c20646f6573206e6f742065786973740000000000600082015250565b6000614150601b83613f29565b915061415b8261411a565b602082019050919050565b6000602082019050818103600083015261417f81614143565b9050919050565b7f596f7520617265206e6f742061206d656d626572206f662074686520636c7562600082015250565b60006141bc602083613f29565b91506141c782614186565b602082019050919050565b600060208201905081810360008301526141eb816141af565b9050919050565b7f4f6e6c79207468652063726561746f72206f66207468652070726f706f73616c60008201527f2063616e20657865637574652069740000000000000000000000000000000000602082015250565b600061424e602f83613f29565b9150614259826141f2565b604082019050919050565b6000602082019050818103600083015261427d81614241565b9050919050565b7f54686520616d6f756e7420657863656564732074686520706f6f6c206f66207460008201527f686520636c756200000000000000000000000000000000000000000000000000602082015250565b60006142e0602783613f29565b91506142eb82614284565b604082019050919050565b6000602082019050818103600083015261430f816142d3565b9050919050565b7f5468652070726f706f73616c20686173206e6f74206265656e20617070726f7660008201527f6564000000000000000000000000000000000000000000000000000000000000602082015250565b6000614372602283613f29565b915061437d82614316565b604082019050919050565b600060208201905081810360008301526143a181614365565b9050919050565b7f596f752063616e2774206265666f72652074686520566f74696e67206465616460008201527f6c696e6500000000000000000000000000000000000000000000000000000000602082015250565b6000614404602483613f29565b915061440f826143a8565b604082019050919050565b60006020820190508181036000830152614433816143f7565b9050919050565b6000614445826131f1565b9150614450836131f1565b92508282101561446357614462614036565b5b828203905092915050565b7f596f75206d7573742073656e642045564d4f5320746f20636f6e74726962757460008201527f6500000000000000000000000000000000000000000000000000000000000000602082015250565b60006144ca602183613f29565b91506144d58261446e565b604082019050919050565b600060208201905081810360008301526144f9816144bd565b9050919050565b600061450b826131f1565b9150614516836131f1565b9250827fffffffffffffffffffffffffffffffffffffffffffffffffffffffffffffffff0382111561454b5761454a614036565b5b828201905092915050565b7f566f74696e6720506572696f642046696e697368656400000000000000000000600082015250565b600061458c601683613f29565b915061459782614556565b602082019050919050565b600060208201905081810360008301526145bb8161457f565b9050919050565b7f596f75206861766520616c726561647920766f746564206f6e2074686973207060008201527f726f706f73616c00000000000000000000000000000000000000000000000000602082015250565b600061461e602783613f29565b9150614629826145c2565b604082019050919050565b6000602082019050818103600083015261464d81614611565b9050919050565b600081905092915050565b60008190508160005260206000209050919050565b6000815461468181613fd5565b61468b8186614654565b945060018216600081146146a657600181146146b7576146ea565b60ff198316865281860193506146ea565b6146c08561465f565b60005b838110156146e2578154818901526001820191506020810190506146c3565b838801955050505b50505092915050565b60006146ff8284614674565b915081905092915050565b7f5468652070726f706f73616c206973206e6f206c6f6e6765722070656e64696e60008201527f6700000000000000000000000000000000000000000000000000000000000000602082015250565b6000614766602183613f29565b91506147718261470a565b604082019050919050565b6000602082019050818103600083015261479581614759565b9050919050565b7f54686520636c756220646f6573206e6f74206578697374000000000000000000600082015250565b60006147d2601783613f29565b91506147dd8261479c565b602082019050919050565b60006020820190508181036000830152614801816147c5565b9050919050565b7f54686520616d6f756e74206f66207468652070726f706f73616c206d7573742060008201527f62652067726561746572207468616e2030000000000000000000000000000000602082015250565b6000614864603183613f29565b915061486f82614808565b604082019050919050565b6000602082019050818103600083015261489381614857565b9050919050565b7f54686520636c75622069732066756c6c2c206e6f206d6f7265206d656d62657260008201527f732063616e206265206164646564000000000000000000000000000000000000602082015250565b60006148f6602e83613f29565b91506149018261489a565b604082019050919050565b60006020820190508181036000830152614925816148e9565b9050919050565b7f596f752061726520616c72656164792061206d656d626572206f66207468652060008201527f636c756200000000000000000000000000000000000000000000000000000000602082015250565b6000614988602483613f29565b91506149938261492c565b604082019050919050565b600060208201905081810360008301526149b78161497b565b9050919050565b7f5468652070726f706f73616c206973206e6f7420696e2070656e64696e67207360008201527f7461747573000000000000000000000000000000000000000000000000000000602082015250565b6000614a1a602583613f29565b9150614a25826149be565b604082019050919050565b60006020820190508181036000830152614a4981614a0d565b9050919050565b7f4f6e6c79207468652070726f706f73616c2063726561746f722063616e20636c60008201527f6f7365207468652070726f706f73616c00000000000000000000000000000000602082015250565b6000614aac603083613f29565b9150614ab782614a50565b604082019050919050565b60006020820190508181036000830152614adb81614a9f565b905091905056fea264697066735822122091a19f6d247846246d838483c91a810348eeb54693f7da8bd4f2569e27616db564736f6c634300080a0033",
  "linkReferences": {},
  "deployedLinkReferences": {}
}