{"contracts/datadao.sol":{"DataDAO":{"abi":[{"inputs":[],"name":"AUTHORIZE_MESSAGE_METHOD_NUM","outputs":[{"internalType":"uint64","name":"","type":"uint64"}],"stateMutability":"view","type":"function"},{"inputs":[{"internalType":"uint256","name":"proposalID","type":"uint256"},{"internalType":"bytes","name":"cidraw","type":"bytes"},{"internalType":"bytes","name":"provider","type":"bytes"},{"internalType":"uint256","name":"size","type":"uint256"}],"name":"authorizeData","outputs":[],"stateMutability":"nonpayable","type":"function"},{"inputs":[{"internalType":"bytes","name":"","type":"bytes"},{"internalType":"bytes","name":"","type":"bytes"}],"name":"cidProviders","outputs":[{"internalType":"bool","name":"","type":"bool"}],"stateMutability":"view","type":"function"},{"inputs":[{"internalType":"bytes","name":"","type":"bytes"}],"name":"cidSet","outputs":[{"internalType":"bool","name":"","type":"bool"}],"stateMutability":"view","type":"function"},{"inputs":[{"internalType":"bytes","name":"","type":"bytes"}],"name":"cidSizes","outputs":[{"internalType":"uint256","name":"","type":"uint256"}],"stateMutability":"view","type":"function"},{"inputs":[{"internalType":"bytes","name":"cidraw","type":"bytes"},{"internalType":"uint256","name":"size","type":"uint256"}],"name":"createAddCIDProposal","outputs":[],"stateMutability":"nonpayable","type":"function"},{"inputs":[{"internalType":"uint256","name":"proposalID","type":"uint256"}],"name":"downvoteCIDProposal","outputs":[],"stateMutability":"nonpayable","type":"function"},{"inputs":[{"internalType":"uint64","name":"","type":"uint64"},{"internalType":"uint64","name":"method","type":"uint64"},{"internalType":"bytes","name":"params","type":"bytes"},{"internalType":"uint256","name":"proposalID","type":"uint256"}],"name":"handle_filecoin_method","outputs":[],"stateMutability":"nonpayable","type":"function"},{"inputs":[{"internalType":"address","name":"","type":"address"},{"internalType":"uint256","name":"","type":"uint256"}],"name":"hasVotedForProposal","outputs":[{"internalType":"bool","name":"","type":"bool"}],"stateMutability":"view","type":"function"},{"inputs":[{"internalType":"uint256","name":"proposalID","type":"uint256"}],"name":"isVotingOn","outputs":[{"internalType":"bool","name":"","type":"bool"}],"stateMutability":"view","type":"function"},{"inputs":[],"name":"proposalCount","outputs":[{"internalType":"uint256","name":"","type":"uint256"}],"stateMutability":"view","type":"function"},{"inputs":[{"internalType":"uint256","name":"","type":"uint256"}],"name":"proposals","outputs":[{"internalType":"uint256","name":"proposalID","type":"uint256"},{"internalType":"address","name":"storageProvider","type":"address"},{"internalType":"bytes","name":"cidraw","type":"bytes"},{"internalType":"uint256","name":"size","type":"uint256"},{"internalType":"uint256","name":"upVoteCount","type":"uint256"},{"internalType":"uint256","name":"downVoteCount","type":"uint256"},{"internalType":"uint256","name":"proposedAt","type":"uint256"},{"internalType":"uint256","name":"proposalExpireAt","type":"uint256"}],"stateMutability":"view","type":"function"},{"inputs":[{"internalType":"uint256","name":"proposalID","type":"uint256"}],"name":"upvoteCIDProposal","outputs":[],"stateMutability":"nonpayable","type":"function"}],"evm":{"bytecode":{"linkReferences":{},"object":"608060405234801561001057600080fd5b50612480806100206000396000f3fe608060405234801561001057600080fd5b50600436106100cf5760003560e01c8063819ee1f11161008c5780639106989b116100665780639106989b1461023b578063a0478def1461026b578063c3bd579b14610287578063da35c664146102a5576100cf565b8063819ee1f1146101d35780638f79d511146101ef5780638f8a6d8f1461020b576100cf565b8063013cf08b146100d457806332e081421461010b5780633d7650b21461013b578063571b871c1461016b5780636fc6a748146101875780637bb58b8c146101b7575b600080fd5b6100ee60048036038101906100e991906117c9565b6102c3565b6040516101029897969594939291906118df565b60405180910390f35b61012560048036038101906101209190611990565b6103b3565b60405161013291906119eb565b60405180910390f35b61015560048036038101906101509190611b3b565b6103e2565b60405161016291906119eb565b60405180910390f35b61018560048036038101906101809190611be4565b610418565b005b6101a1600480360381019061019c9190611c44565b6105f3565b6040516101ae91906119eb565b60405180910390f35b6101d160048036038101906101cc91906117c9565b61064e565b005b6101ed60048036038101906101e89190611cfc565b610826565b005b610209600480360381019061020491906117c9565b6108cd565b005b61022560048036038101906102209190611b3b565b610aa5565b6040516102329190611d84565b60405180910390f35b610255600480360381019061025091906117c9565b610ad3565b60405161026291906119eb565b60405180910390f35b61028560048036038101906102809190611d9f565b610af5565b005b61028f610c6b565b60405161029c9190611e55565b60405180910390f35b6102ad610c73565b6040516102ba9190611d84565b60405180910390f35b60046020528060005260406000206000915090508060000154908060010160009054906101000a900473ffffffffffffffffffffffffffffffffffffffff169080600201805461031290611e9f565b80601f016020809104026020016040519081016040528092919081815260200182805461033e90611e9f565b801561038b5780601f106103605761010080835404028352916020019161038b565b820191906000526020600020905b81548152906001019060200180831161036e57829003601f168201915b5050505050908060030154908060040154908060050154908060060154908060070154905088565b60056020528160005260406000206020528060005260406000206000915091509054906101000a900460ff1681565b6000818051602081018201805184825260208301602085012081835280955050505050506000915054906101000a900460ff1681565b60016003546104279190611eff565b600381905550600060405180610100016040528060035481526020013373ffffffffffffffffffffffffffffffffffffffff16815260200185858080601f016020809104026020016040519081016040528093929190818152602001838380828437600081840152601f19601f820116905080830192505050505050508152602001838152602001600081526020016000815260200142815260200161012c426104d19190611eff565b8152509050806004600060035481526020019081526020016000206000820151816000015560208201518160010160006101000a81548173ffffffffffffffffffffffffffffffffffffffff021916908373ffffffffffffffffffffffffffffffffffffffff16021790555060408201518160020190805190602001906105599291906116dc565b50606082015181600301556080820151816004015560a0820151816005015560c0820151816006015560e082015181600701559050506001600085856040516105a3929190611f85565b908152602001604051809103902060006101000a81548160ff02191690831515021790555081600185856040516105db929190611f85565b90815260200160405180910390208190555050505050565b600282805160208101820180518482526020830160208501208183528095505050505050818051602081018201805184825260208301602085012081835280955050505050506000915091509054906101000a900460ff1681565b61065781610c79565b15610697576040517f08c379a000000000000000000000000000000000000000000000000000000000815260040161068e90612021565b60405180910390fd5b600560003373ffffffffffffffffffffffffffffffffffffffff1673ffffffffffffffffffffffffffffffffffffffff168152602001908152602001600020600082815260200190815260200160002060009054906101000a900460ff1615610735576040517f08c379a000000000000000000000000000000000000000000000000000000000815260040161072c9061208d565b60405180910390fd5b61073e81610ad3565b61077d576040517f08c379a0000000000000000000000000000000000000000000000000000000008152600401610774906120f9565b60405180910390fd5b600160046000838152602001908152602001600020600401546107a09190611eff565b60046000838152602001908152602001600020600401819055506001600560003373ffffffffffffffffffffffffffffffffffffffff1673ffffffffffffffffffffffffffffffffffffffff168152602001908152602001600020600083815260200190815260200160002060006101000a81548160ff02191690831515021790555050565b639d8b067867ffffffffffffffff168467ffffffffffffffff160361088b573660006108528585610cb9565b91509150366000366000806108678787610e6f565b9450945094509450945061087f888686868686610af5565b505050505050506108c6565b6040517f08c379a00000000000000000000000000000000000000000000000000000000081526004016108bd9061218b565b60405180910390fd5b5050505050565b6108d681610c79565b15610916576040517f08c379a000000000000000000000000000000000000000000000000000000000815260040161090d90612021565b60405180910390fd5b600560003373ffffffffffffffffffffffffffffffffffffffff1673ffffffffffffffffffffffffffffffffffffffff168152602001908152602001600020600082815260200190815260200160002060009054906101000a900460ff16156109b4576040517f08c379a00000000000000000000000000000000000000000000000000000000081526004016109ab9061208d565b60405180910390fd5b6109bd81610ad3565b6109fc576040517f08c379a00000000000000000000000000000000000000000000000000000000081526004016109f3906120f9565b60405180910390fd5b60016004600083815260200190815260200160002060050154610a1f9190611eff565b60046000838152602001908152602001600020600501819055506001600560003373ffffffffffffffffffffffffffffffffffffffff1673ffffffffffffffffffffffffffffffffffffffff168152602001908152602001600020600083815260200190815260200160002060006101000a81548160ff02191690831515021790555050565b6001818051602081018201805184825260208301602085012081835280955050505050506000915090505481565b6000426004600084815260200190815260200160002060070154119050919050565b60008585604051610b07929190611f85565b908152602001604051809103902060009054906101000a900460ff16610b62576040517f08c379a0000000000000000000000000000000000000000000000000000000008152600401610b599061221d565b60405180910390fd5b8060018686604051610b75929190611f85565b90815260200160405180910390205414610bc4576040517f08c379a0000000000000000000000000000000000000000000000000000000008152600401610bbb90612289565b60405180910390fd5b610bcd8661133a565b610c0c576040517f08c379a0000000000000000000000000000000000000000000000000000000008152600401610c039061231b565b60405180910390fd5b600160028686604051610c20929190611f85565b90815260200160405180910390208484604051610c3e929190611f85565b908152602001604051809103902060006101000a81548160ff021916908315150217905550505050505050565b639d8b067881565b60035481565b60003373ffffffffffffffffffffffffffffffffffffffff16610c9b83611372565b73ffffffffffffffffffffffffffffffffffffffff16149050919050565b36600080600090507f820000000000000000000000000000000000000000000000000000000000000085856000818110610cf657610cf561233b565b5b9050013560f81c60f81b7effffffffffffffffffffffffffffffffffffffffffffffffffffffffffffff191614610d3057610d2f61236a565b5b600181610d3d9190611eff565b9050600080610d9087878080601f016020809104026020016040519081016040528093929190818152602001838380828437600081840152601f19601f82011690508083019250505050505050846113b2565b8167ffffffffffffffff169150809550819350829450505050600260ff168260ff1614610dc057610dbf61236a565b5b8083610dcc9190611eff565b9250610e1c87878080601f016020809104026020016040519081016040528093929190818152602001838380828437600081840152601f19601f82011690508083019250505050505050846113b2565b8167ffffffffffffffff169150809550819350829450505050600260ff168260ff1614610e4c57610e4b61236a565b5b868684908989905092610e61939291906123a3565b945094505050509250929050565b3660003660008060007f8b00000000000000000000000000000000000000000000000000000000000000888883818110610eac57610eab61233b565b5b9050013560f81c60f81b7effffffffffffffffffffffffffffffffffffffffffffffffffffffffffffff191614610ee657610ee561236a565b5b600181610ef39190611eff565b90507fd800000000000000000000000000000000000000000000000000000000000000888883818110610f2957610f2861233b565b5b9050013560f81c60f81b7effffffffffffffffffffffffffffffffffffffffffffffffffffffffffffff191614610f6357610f6261236a565b5b600181610f709190611eff565b90507f2a00000000000000000000000000000000000000000000000000000000000000888883818110610fa657610fa561233b565b5b9050013560f81c60f81b7effffffffffffffffffffffffffffffffffffffffffffffffffffffffffffff191614610fe057610fdf61236a565b5b600181610fed9190611eff565b90506000806110408a8a8080601f016020809104026020016040519081016040528093929190818152602001838380828437600081840152601f19601f82011690508083019250505050505050846113b2565b8167ffffffffffffffff169150809550819350829450505050600260ff168260ff16146110705761106f61236a565b5b8989849083866110809190611eff565b9261108d939291906123a3565b97509750808361109d9190611eff565b92506110ed8a8a8080601f016020809104026020016040519081016040528093929190818152602001838380828437600081840152601f19601f82011690508083019250505050505050846113b2565b8167ffffffffffffffff169150809550819650829450505050600060ff168260ff161461111d5761111c61236a565b5b7ff4000000000000000000000000000000000000000000000000000000000000008a8a858181106111515761115061233b565b5b9050013560f81c60f81b7effffffffffffffffffffffffffffffffffffffffffffffffffffffffffffff191614806111e657507ff5000000000000000000000000000000000000000000000000000000000000008a8a858181106111b8576111b761233b565b5b9050013560f81c60f81b7effffffffffffffffffffffffffffffffffffffffffffffffffffffffffffff1916145b6111f3576111f261236a565b5b6001836112009190611eff565b92506112508a8a8080601f016020809104026020016040519081016040528093929190818152602001838380828437600081840152601f19601f82011690508083019250505050505050846113b2565b8167ffffffffffffffff169150809550819350829450505050600260ff168260ff16146112805761127f61236a565b5b808361128c9190611eff565b92506112dc8a8a8080601f016020809104026020016040519081016040528093929190818152602001838380828437600081840152601f19601f82011690508083019250505050505050846113b2565b8167ffffffffffffffff169150809550819350829450505050600260ff168260ff161461130c5761130b61236a565b5b89898490838661131c9190611eff565b92611329939291906123a3565b955095505050509295509295909350565b600060046000838152602001908152602001600020600501546004600084815260200190815260200160002060040154119050919050565b60006004600083815260200190815260200160002060010160009054906101000a900473ffffffffffffffffffffffffffffffffffffffff169050919050565b6000806000806113c28686611540565b90506001856113d19190611eff565b94506000600560e0831660ff16901c90506000601f83169050601c8160ff16106113fe576113fd61236a565b5b60188160ff161015611421578181888160ff169150955095509550505050611539565b60188160ff16036114765760006114388989611540565b90506001886114479190611eff565b975060188160ff16101561145e5761145d61236a565b5b8281898160ff16915096509650965050505050611539565b60198160ff16036114b757600061148d89896115a7565b905060028861149c9190611eff565b97508281898161ffff16915096509650965050505050611539565b601a8160ff16036114fa5760006114ce898961160e565b90506004886114dd9190611eff565b97508281898163ffffffff16915096509650965050505050611539565b601b8160ff161461150e5761150d61236a565b5b600061151a8989611675565b90506008886115299190611eff565b9750828189965096509650505050505b9250925092565b600060018261154f9190611eff565b83511015611592576040517f08c379a00000000000000000000000000000000000000000000000000000000081526004016115899061242a565b60405180910390fd5b60008260010184015190508091505092915050565b60006002826115b69190611eff565b835110156115f9576040517f08c379a00000000000000000000000000000000000000000000000000000000081526004016115f09061242a565b60405180910390fd5b60008260020184015190508091505092915050565b600060048261161d9190611eff565b83511015611660576040517f08c379a00000000000000000000000000000000000000000000000000000000081526004016116579061242a565b60405180910390fd5b60008260040184015190508091505092915050565b60006008826116849190611eff565b835110156116c7576040517f08c379a00000000000000000000000000000000000000000000000000000000081526004016116be9061242a565b60405180910390fd5b60008260080184015190508091505092915050565b8280546116e890611e9f565b90600052602060002090601f01602090048101928261170a5760008555611751565b82601f1061172357805160ff1916838001178555611751565b82800160010185558215611751579182015b82811115611750578251825591602001919060010190611735565b5b50905061175e9190611762565b5090565b5b8082111561177b576000816000905550600101611763565b5090565b6000604051905090565b600080fd5b600080fd5b6000819050919050565b6117a681611793565b81146117b157600080fd5b50565b6000813590506117c38161179d565b92915050565b6000602082840312156117df576117de611789565b5b60006117ed848285016117b4565b91505092915050565b6117ff81611793565b82525050565b600073ffffffffffffffffffffffffffffffffffffffff82169050919050565b600061183082611805565b9050919050565b61184081611825565b82525050565b600081519050919050565b600082825260208201905092915050565b60005b83811015611880578082015181840152602081019050611865565b8381111561188f576000848401525b50505050565b6000601f19601f8301169050919050565b60006118b182611846565b6118bb8185611851565b93506118cb818560208601611862565b6118d481611895565b840191505092915050565b6000610100820190506118f5600083018b6117f6565b611902602083018a611837565b818103604083015261191481896118a6565b905061192360608301886117f6565b61193060808301876117f6565b61193d60a08301866117f6565b61194a60c08301856117f6565b61195760e08301846117f6565b9998505050505050505050565b61196d81611825565b811461197857600080fd5b50565b60008135905061198a81611964565b92915050565b600080604083850312156119a7576119a6611789565b5b60006119b58582860161197b565b92505060206119c6858286016117b4565b9150509250929050565b60008115159050919050565b6119e5816119d0565b82525050565b6000602082019050611a0060008301846119dc565b92915050565b600080fd5b600080fd5b7f4e487b7100000000000000000000000000000000000000000000000000000000600052604160045260246000fd5b611a4882611895565b810181811067ffffffffffffffff82111715611a6757611a66611a10565b5b80604052505050565b6000611a7a61177f565b9050611a868282611a3f565b919050565b600067ffffffffffffffff821115611aa657611aa5611a10565b5b611aaf82611895565b9050602081019050919050565b82818337600083830152505050565b6000611ade611ad984611a8b565b611a70565b905082815260208101848484011115611afa57611af9611a0b565b5b611b05848285611abc565b509392505050565b600082601f830112611b2257611b21611a06565b5b8135611b32848260208601611acb565b91505092915050565b600060208284031215611b5157611b50611789565b5b600082013567ffffffffffffffff811115611b6f57611b6e61178e565b5b611b7b84828501611b0d565b91505092915050565b600080fd5b600080fd5b60008083601f840112611ba457611ba3611a06565b5b8235905067ffffffffffffffff811115611bc157611bc0611b84565b5b602083019150836001820283011115611bdd57611bdc611b89565b5b9250929050565b600080600060408486031215611bfd57611bfc611789565b5b600084013567ffffffffffffffff811115611c1b57611c1a61178e565b5b611c2786828701611b8e565b93509350506020611c3a868287016117b4565b9150509250925092565b60008060408385031215611c5b57611c5a611789565b5b600083013567ffffffffffffffff811115611c7957611c7861178e565b5b611c8585828601611b0d565b925050602083013567ffffffffffffffff811115611ca657611ca561178e565b5b611cb285828601611b0d565b9150509250929050565b600067ffffffffffffffff82169050919050565b611cd981611cbc565b8114611ce457600080fd5b50565b600081359050611cf681611cd0565b92915050565b600080600080600060808688031215611d1857611d17611789565b5b6000611d2688828901611ce7565b9550506020611d3788828901611ce7565b945050604086013567ffffffffffffffff811115611d5857611d5761178e565b5b611d6488828901611b8e565b93509350506060611d77888289016117b4565b9150509295509295909350565b6000602082019050611d9960008301846117f6565b92915050565b60008060008060008060808789031215611dbc57611dbb611789565b5b6000611dca89828a016117b4565b965050602087013567ffffffffffffffff811115611deb57611dea61178e565b5b611df789828a01611b8e565b9550955050604087013567ffffffffffffffff811115611e1a57611e1961178e565b5b611e2689828a01611b8e565b93509350506060611e3989828a016117b4565b9150509295509295509295565b611e4f81611cbc565b82525050565b6000602082019050611e6a6000830184611e46565b92915050565b7f4e487b7100000000000000000000000000000000000000000000000000000000600052602260045260246000fd5b60006002820490506001821680611eb757607f821691505b602082108103611eca57611ec9611e70565b5b50919050565b7f4e487b7100000000000000000000000000000000000000000000000000000000600052601160045260246000fd5b6000611f0a82611793565b9150611f1583611793565b9250827fffffffffffffffffffffffffffffffffffffffffffffffffffffffffffffffff03821115611f4a57611f49611ed0565b5b828201905092915050565b600081905092915050565b6000611f6c8385611f55565b9350611f79838584611abc565b82840190509392505050565b6000611f92828486611f60565b91508190509392505050565b600082825260208201905092915050565b7f53746f726167652050726f76696465722063616e6e6f7420766f74652068697360008201527f206f776e2070726f706f73616c00000000000000000000000000000000000000602082015250565b600061200b602d83611f9e565b915061201682611faf565b604082019050919050565b6000602082019050818103600083015261203a81611ffe565b9050919050565b7f416c726561647920566f74656400000000000000000000000000000000000000600082015250565b6000612077600d83611f9e565b915061208282612041565b602082019050919050565b600060208201905081810360008301526120a68161206a565b9050919050565b7f566f74696e6720506572696f642046696e697368656400000000000000000000600082015250565b60006120e3601683611f9e565b91506120ee826120ad565b602082019050919050565b60006020820190508181036000830152612112816120d6565b9050919050565b7f5468652046696c65636f696e206d6574686f642074686174207761732063616c60008201527f6c6564206973206e6f742068616e646c65640000000000000000000000000000602082015250565b6000612175603283611f9e565b915061218082612119565b604082019050919050565b600060208201905081810360008301526121a481612168565b9050919050565b7f434944206d757374206265206164646564206265666f726520617574686f726960008201527f7a696e6700000000000000000000000000000000000000000000000000000000602082015250565b6000612207602483611f9e565b9150612212826121ab565b604082019050919050565b60006020820190508181036000830152612236816121fa565b9050919050565b7f446174612073697a65206d757374206d61746368206578706563746564000000600082015250565b6000612273601d83611f9e565b915061227e8261223d565b602082019050919050565b600060208201905081810360008301526122a281612266565b9050919050565b7f4465616c206661696c656420706f6c69637920636865636b3a2057617320746860008201527f65204349442070726f706f73616c205061737365643f00000000000000000000602082015250565b6000612305603683611f9e565b9150612310826122a9565b604082019050919050565b60006020820190508181036000830152612334816122f8565b9050919050565b7f4e487b7100000000000000000000000000000000000000000000000000000000600052603260045260246000fd5b7f4e487b7100000000000000000000000000000000000000000000000000000000600052600160045260246000fd5b600080fd5b600080fd5b600080858511156123b7576123b6612399565b5b838611156123c8576123c761239e565b5b6001850283019150848603905094509492505050565b7f736c6963696e67206f7574206f662072616e6765000000000000000000000000600082015250565b6000612414601483611f9e565b915061241f826123de565b602082019050919050565b6000602082019050818103600083015261244381612407565b905091905056fea264697066735822122002b649c7f7ae55568b25c4231ef7fde82ac5e408134c7da0b8426f137a9fc44564736f6c634300080d0033","opcodes":"PUSH1 0x80 PUSH1 0x40 MSTORE CALLVALUE DUP1 ISZERO PUSH2 0x10 JUMPI PUSH1 0x0 DUP1 REVERT JUMPDEST POP PUSH2 0x2480 DUP1 PUSH2 0x20 PUSH1 0x0 CODECOPY PUSH1 0x0 RETURN INVALID PUSH1 0x80 PUSH1 0x40 MSTORE CALLVALUE DUP1 ISZERO PUSH2 0x10 JUMPI PUSH1 0x0 DUP1 REVERT JUMPDEST POP PUSH1 0x4 CALLDATASIZE LT PUSH2 0xCF JUMPI PUSH1 0x0 CALLDATALOAD PUSH1 0xE0 SHR DUP1 PUSH4 0x819EE1F1 GT PUSH2 0x8C JUMPI DUP1 PUSH4 0x9106989B GT PUSH2 0x66 JUMPI DUP1 PUSH4 0x9106989B EQ PUSH2 0x23B JUMPI DUP1 PUSH4 0xA0478DEF EQ PUSH2 0x26B JUMPI DUP1 PUSH4 0xC3BD579B EQ PUSH2 0x287 JUMPI DUP1 PUSH4 0xDA35C664 EQ PUSH2 0x2A5 JUMPI PUSH2 0xCF JUMP JUMPDEST DUP1 PUSH4 0x819EE1F1 EQ PUSH2 0x1D3 JUMPI DUP1 PUSH4 0x8F79D511 EQ PUSH2 0x1EF JUMPI DUP1 PUSH4 0x8F8A6D8F EQ PUSH2 0x20B JUMPI PUSH2 0xCF JUMP JUMPDEST DUP1 PUSH4 0x13CF08B EQ PUSH2 0xD4 JUMPI DUP1 PUSH4 0x32E08142 EQ PUSH2 0x10B JUMPI DUP1 PUSH4 0x3D7650B2 EQ PUSH2 0x13B JUMPI DUP1 PUSH4 0x571B871C EQ PUSH2 0x16B JUMPI DUP1 PUSH4 0x6FC6A748 EQ PUSH2 0x187 JUMPI DUP1 PUSH4 0x7BB58B8C EQ PUSH2 0x1B7 JUMPI JUMPDEST PUSH1 0x0 DUP1 REVERT JUMPDEST PUSH2 0xEE PUSH1 0x4 DUP1 CALLDATASIZE SUB DUP2 ADD SWAP1 PUSH2 0xE9 SWAP2 SWAP1 PUSH2 0x17C9 JUMP JUMPDEST PUSH2 0x2C3 JUMP JUMPDEST PUSH1 0x40 MLOAD PUSH2 0x102 SWAP9 SWAP8 SWAP7 SWAP6 SWAP5 SWAP4 SWAP3 SWAP2 SWAP1 PUSH2 0x18DF JUMP JUMPDEST PUSH1 0x40 MLOAD DUP1 SWAP2 SUB SWAP1 RETURN JUMPDEST PUSH2 0x125 PUSH1 0x4 DUP1 CALLDATASIZE SUB DUP2 ADD SWAP1 PUSH2 0x120 SWAP2 SWAP1 PUSH2 0x1990 JUMP JUMPDEST PUSH2 0x3B3 JUMP JUMPDEST PUSH1 0x40 MLOAD PUSH2 0x132 SWAP2 SWAP1 PUSH2 0x19EB JUMP JUMPDEST PUSH1 0x40 MLOAD DUP1 SWAP2 SUB SWAP1 RETURN JUMPDEST PUSH2 0x155 PUSH1 0x4 DUP1 CALLDATASIZE SUB DUP2 ADD SWAP1 PUSH2 0x150 SWAP2 SWAP1 PUSH2 0x1B3B JUMP JUMPDEST PUSH2 0x3E2 JUMP JUMPDEST PUSH1 0x40 MLOAD PUSH2 0x162 SWAP2 SWAP1 PUSH2 0x19EB JUMP JUMPDEST PUSH1 0x40 MLOAD DUP1 SWAP2 SUB SWAP1 RETURN JUMPDEST PUSH2 0x185 PUSH1 0x4 DUP1 CALLDATASIZE SUB DUP2 ADD SWAP1 PUSH2 0x180 SWAP2 SWAP1 PUSH2 0x1BE4 JUMP JUMPDEST PUSH2 0x418 JUMP JUMPDEST STOP JUMPDEST PUSH2 0x1A1 PUSH1 0x4 DUP1 CALLDATASIZE SUB DUP2 ADD SWAP1 PUSH2 0x19C SWAP2 SWAP1 PUSH2 0x1C44 JUMP JUMPDEST PUSH2 0x5F3 JUMP JUMPDEST PUSH1 0x40 MLOAD PUSH2 0x1AE SWAP2 SWAP1 PUSH2 0x19EB JUMP JUMPDEST PUSH1 0x40 MLOAD DUP1 SWAP2 SUB SWAP1 RETURN JUMPDEST PUSH2 0x1D1 PUSH1 0x4 DUP1 CALLDATASIZE SUB DUP2 ADD SWAP1 PUSH2 0x1CC SWAP2 SWAP1 PUSH2 0x17C9 JUMP JUMPDEST PUSH2 0x64E JUMP JUMPDEST STOP JUMPDEST PUSH2 0x1ED PUSH1 0x4 DUP1 CALLDATASIZE SUB DUP2 ADD SWAP1 PUSH2 0x1E8 SWAP2 SWAP1 PUSH2 0x1CFC JUMP JUMPDEST PUSH2 0x826 JUMP JUMPDEST STOP JUMPDEST PUSH2 0x209 PUSH1 0x4 DUP1 CALLDATASIZE SUB DUP2 ADD SWAP1 PUSH2 0x204 SWAP2 SWAP1 PUSH2 0x17C9 JUMP JUMPDEST PUSH2 0x8CD JUMP JUMPDEST STOP JUMPDEST PUSH2 0x225 PUSH1 0x4 DUP1 CALLDATASIZE SUB DUP2 ADD SWAP1 PUSH2 0x220 SWAP2 SWAP1 PUSH2 0x1B3B JUMP JUMPDEST PUSH2 0xAA5 JUMP JUMPDEST PUSH1 0x40 MLOAD PUSH2 0x232 SWAP2 SWAP1 PUSH2 0x1D84 JUMP JUMPDEST PUSH1 0x40 MLOAD DUP1 SWAP2 SUB SWAP1 RETURN JUMPDEST PUSH2 0x255 PUSH1 0x4 DUP1 CALLDATASIZE SUB DUP2 ADD SWAP1 PUSH2 0x250 SWAP2 SWAP1 PUSH2 0x17C9 JUMP JUMPDEST PUSH2 0xAD3 JUMP JUMPDEST PUSH1 0x40 MLOAD PUSH2 0x262 SWAP2 SWAP1 PUSH2 0x19EB JUMP JUMPDEST PUSH1 0x40 MLOAD DUP1 SWAP2 SUB SWAP1 RETURN JUMPDEST PUSH2 0x285 PUSH1 0x4 DUP1 CALLDATASIZE SUB DUP2 ADD SWAP1 PUSH2 0x280 SWAP2 SWAP1 PUSH2 0x1D9F JUMP JUMPDEST PUSH2 0xAF5 JUMP JUMPDEST STOP JUMPDEST PUSH2 0x28F PUSH2 0xC6B JUMP JUMPDEST PUSH1 0x40 MLOAD PUSH2 0x29C SWAP2 SWAP1 PUSH2 0x1E55 JUMP JUMPDEST PUSH1 0x40 MLOAD DUP1 SWAP2 SUB SWAP1 RETURN JUMPDEST PUSH2 0x2AD PUSH2 0xC73 JUMP JUMPDEST PUSH1 0x40 MLOAD PUSH2 0x2BA SWAP2 SWAP1 PUSH2 0x1D84 JUMP JUMPDEST PUSH1 0x40 MLOAD DUP1 SWAP2 SUB SWAP1 RETURN JUMPDEST PUSH1 0x4 PUSH1 0x20 MSTORE DUP1 PUSH1 0x0 MSTORE PUSH1 0x40 PUSH1 0x0 KECCAK256 PUSH1 0x0 SWAP2 POP SWAP1 POP DUP1 PUSH1 0x0 ADD SLOAD SWAP1 DUP1 PUSH1 0x1 ADD PUSH1 0x0 SWAP1 SLOAD SWAP1 PUSH2 0x100 EXP SWAP1 DIV PUSH20 0xFFFFFFFFFFFFFFFFFFFFFFFFFFFFFFFFFFFFFFFF AND SWAP1 DUP1 PUSH1 0x2 ADD DUP1 SLOAD PUSH2 0x312 SWAP1 PUSH2 0x1E9F JUMP JUMPDEST DUP1 PUSH1 0x1F ADD PUSH1 0x20 DUP1 SWAP2 DIV MUL PUSH1 0x20 ADD PUSH1 0x40 MLOAD SWAP1 DUP2 ADD PUSH1 0x40 MSTORE DUP1 SWAP3 SWAP2 SWAP1 DUP2 DUP2 MSTORE PUSH1 0x20 ADD DUP3 DUP1 SLOAD PUSH2 0x33E SWAP1 PUSH2 0x1E9F JUMP JUMPDEST DUP1 ISZERO PUSH2 0x38B JUMPI DUP1 PUSH1 0x1F LT PUSH2 0x360 JUMPI PUSH2 0x100 DUP1 DUP4 SLOAD DIV MUL DUP4 MSTORE SWAP2 PUSH1 0x20 ADD SWAP2 PUSH2 0x38B JUMP JUMPDEST DUP3 ADD SWAP2 SWAP1 PUSH1 0x0 MSTORE PUSH1 0x20 PUSH1 0x0 KECCAK256 SWAP1 JUMPDEST DUP2 SLOAD DUP2 MSTORE SWAP1 PUSH1 0x1 ADD SWAP1 PUSH1 0x20 ADD DUP1 DUP4 GT PUSH2 0x36E JUMPI DUP3 SWAP1 SUB PUSH1 0x1F AND DUP3 ADD SWAP2 JUMPDEST POP POP POP POP POP SWAP1 DUP1 PUSH1 0x3 ADD SLOAD SWAP1 DUP1 PUSH1 0x4 ADD SLOAD SWAP1 DUP1 PUSH1 0x5 ADD SLOAD SWAP1 DUP1 PUSH1 0x6 ADD SLOAD SWAP1 DUP1 PUSH1 0x7 ADD SLOAD SWAP1 POP DUP9 JUMP JUMPDEST PUSH1 0x5 PUSH1 0x20 MSTORE DUP2 PUSH1 0x0 MSTORE PUSH1 0x40 PUSH1 0x0 KECCAK256 PUSH1 0x20 MSTORE DUP1 PUSH1 0x0 MSTORE PUSH1 0x40 PUSH1 0x0 KECCAK256 PUSH1 0x0 SWAP2 POP SWAP2 POP SWAP1 SLOAD SWAP1 PUSH2 0x100 EXP SWAP1 DIV PUSH1 0xFF AND DUP2 JUMP JUMPDEST PUSH1 0x0 DUP2 DUP1 MLOAD PUSH1 0x20 DUP2 ADD DUP3 ADD DUP1 MLOAD DUP5 DUP3 MSTORE PUSH1 0x20 DUP4 ADD PUSH1 0x20 DUP6 ADD KECCAK256 DUP2 DUP4 MSTORE DUP1 SWAP6 POP POP POP POP POP POP PUSH1 0x0 SWAP2 POP SLOAD SWAP1 PUSH2 0x100 EXP SWAP1 DIV PUSH1 0xFF AND DUP2 JUMP JUMPDEST PUSH1 0x1 PUSH1 0x3 SLOAD PUSH2 0x427 SWAP2 SWAP1 PUSH2 0x1EFF JUMP JUMPDEST PUSH1 0x3 DUP2 SWAP1 SSTORE POP PUSH1 0x0 PUSH1 0x40 MLOAD DUP1 PUSH2 0x100 ADD PUSH1 0x40 MSTORE DUP1 PUSH1 0x3 SLOAD DUP2 MSTORE PUSH1 0x20 ADD CALLER PUSH20 0xFFFFFFFFFFFFFFFFFFFFFFFFFFFFFFFFFFFFFFFF AND DUP2 MSTORE PUSH1 0x20 ADD DUP6 DUP6 DUP1 DUP1 PUSH1 0x1F ADD PUSH1 0x20 DUP1 SWAP2 DIV MUL PUSH1 0x20 ADD PUSH1 0x40 MLOAD SWAP1 DUP2 ADD PUSH1 0x40 MSTORE DUP1 SWAP4 SWAP3 SWAP2 SWAP1 DUP2 DUP2 MSTORE PUSH1 0x20 ADD DUP4 DUP4 DUP1 DUP3 DUP5 CALLDATACOPY PUSH1 0x0 DUP2 DUP5 ADD MSTORE PUSH1 0x1F NOT PUSH1 0x1F DUP3 ADD AND SWAP1 POP DUP1 DUP4 ADD SWAP3 POP POP POP POP POP POP POP DUP2 MSTORE PUSH1 0x20 ADD DUP4 DUP2 MSTORE PUSH1 0x20 ADD PUSH1 0x0 DUP2 MSTORE PUSH1 0x20 ADD PUSH1 0x0 DUP2 MSTORE PUSH1 0x20 ADD TIMESTAMP DUP2 MSTORE PUSH1 0x20 ADD PUSH2 0x12C TIMESTAMP PUSH2 0x4D1 SWAP2 SWAP1 PUSH2 0x1EFF JUMP JUMPDEST DUP2 MSTORE POP SWAP1 POP DUP1 PUSH1 0x4 PUSH1 0x0 PUSH1 0x3 SLOAD DUP2 MSTORE PUSH1 0x20 ADD SWAP1 DUP2 MSTORE PUSH1 0x20 ADD PUSH1 0x0 KECCAK256 PUSH1 0x0 DUP3 ADD MLOAD DUP2 PUSH1 0x0 ADD SSTORE PUSH1 0x20 DUP3 ADD MLOAD DUP2 PUSH1 0x1 ADD PUSH1 0x0 PUSH2 0x100 EXP DUP2 SLOAD DUP2 PUSH20 0xFFFFFFFFFFFFFFFFFFFFFFFFFFFFFFFFFFFFFFFF MUL NOT AND SWAP1 DUP4 PUSH20 0xFFFFFFFFFFFFFFFFFFFFFFFFFFFFFFFFFFFFFFFF AND MUL OR SWAP1 SSTORE POP PUSH1 0x40 DUP3 ADD MLOAD DUP2 PUSH1 0x2 ADD SWAP1 DUP1 MLOAD SWAP1 PUSH1 0x20 ADD SWAP1 PUSH2 0x559 SWAP3 SWAP2 SWAP1 PUSH2 0x16DC JUMP JUMPDEST POP PUSH1 0x60 DUP3 ADD MLOAD DUP2 PUSH1 0x3 ADD SSTORE PUSH1 0x80 DUP3 ADD MLOAD DUP2 PUSH1 0x4 ADD SSTORE PUSH1 0xA0 DUP3 ADD MLOAD DUP2 PUSH1 0x5 ADD SSTORE PUSH1 0xC0 DUP3 ADD MLOAD DUP2 PUSH1 0x6 ADD SSTORE PUSH1 0xE0 DUP3 ADD MLOAD DUP2 PUSH1 0x7 ADD SSTORE SWAP1 POP POP PUSH1 0x1 PUSH1 0x0 DUP6 DUP6 PUSH1 0x40 MLOAD PUSH2 0x5A3 SWAP3 SWAP2 SWAP1 PUSH2 0x1F85 JUMP JUMPDEST SWAP1 DUP2 MSTORE PUSH1 0x20 ADD PUSH1 0x40 MLOAD DUP1 SWAP2 SUB SWAP1 KECCAK256 PUSH1 0x0 PUSH2 0x100 EXP DUP2 SLOAD DUP2 PUSH1 0xFF MUL NOT AND SWAP1 DUP4 ISZERO ISZERO MUL OR SWAP1 SSTORE POP DUP2 PUSH1 0x1 DUP6 DUP6 PUSH1 0x40 MLOAD PUSH2 0x5DB SWAP3 SWAP2 SWAP1 PUSH2 0x1F85 JUMP JUMPDEST SWAP1 DUP2 MSTORE PUSH1 0x20 ADD PUSH1 0x40 MLOAD DUP1 SWAP2 SUB SWAP1 KECCAK256 DUP2 SWAP1 SSTORE POP POP POP POP POP JUMP JUMPDEST PUSH1 0x2 DUP3 DUP1 MLOAD PUSH1 0x20 DUP2 ADD DUP3 ADD DUP1 MLOAD DUP5 DUP3 MSTORE PUSH1 0x20 DUP4 ADD PUSH1 0x20 DUP6 ADD KECCAK256 DUP2 DUP4 MSTORE DUP1 SWAP6 POP POP POP POP POP POP DUP2 DUP1 MLOAD PUSH1 0x20 DUP2 ADD DUP3 ADD DUP1 MLOAD DUP5 DUP3 MSTORE PUSH1 0x20 DUP4 ADD PUSH1 0x20 DUP6 ADD KECCAK256 DUP2 DUP4 MSTORE DUP1 SWAP6 POP POP POP POP POP POP PUSH1 0x0 SWAP2 POP SWAP2 POP SWAP1 SLOAD SWAP1 PUSH2 0x100 EXP SWAP1 DIV PUSH1 0xFF AND DUP2 JUMP JUMPDEST PUSH2 0x657 DUP2 PUSH2 0xC79 JUMP JUMPDEST ISZERO PUSH2 0x697 JUMPI PUSH1 0x40 MLOAD PUSH32 0x8C379A000000000000000000000000000000000000000000000000000000000 DUP2 MSTORE PUSH1 0x4 ADD PUSH2 0x68E SWAP1 PUSH2 0x2021 JUMP JUMPDEST PUSH1 0x40 MLOAD DUP1 SWAP2 SUB SWAP1 REVERT JUMPDEST PUSH1 0x5 PUSH1 0x0 CALLER PUSH20 0xFFFFFFFFFFFFFFFFFFFFFFFFFFFFFFFFFFFFFFFF AND PUSH20 0xFFFFFFFFFFFFFFFFFFFFFFFFFFFFFFFFFFFFFFFF AND DUP2 MSTORE PUSH1 0x20 ADD SWAP1 DUP2 MSTORE PUSH1 0x20 ADD PUSH1 0x0 KECCAK256 PUSH1 0x0 DUP3 DUP2 MSTORE PUSH1 0x20 ADD SWAP1 DUP2 MSTORE PUSH1 0x20 ADD PUSH1 0x0 KECCAK256 PUSH1 0x0 SWAP1 SLOAD SWAP1 PUSH2 0x100 EXP SWAP1 DIV PUSH1 0xFF AND ISZERO PUSH2 0x735 JUMPI PUSH1 0x40 MLOAD PUSH32 0x8C379A000000000000000000000000000000000000000000000000000000000 DUP2 MSTORE PUSH1 0x4 ADD PUSH2 0x72C SWAP1 PUSH2 0x208D JUMP JUMPDEST PUSH1 0x40 MLOAD DUP1 SWAP2 SUB SWAP1 REVERT JUMPDEST PUSH2 0x73E DUP2 PUSH2 0xAD3 JUMP JUMPDEST PUSH2 0x77D JUMPI PUSH1 0x40 MLOAD PUSH32 0x8C379A000000000000000000000000000000000000000000000000000000000 DUP2 MSTORE PUSH1 0x4 ADD PUSH2 0x774 SWAP1 PUSH2 0x20F9 JUMP JUMPDEST PUSH1 0x40 MLOAD DUP1 SWAP2 SUB SWAP1 REVERT JUMPDEST PUSH1 0x1 PUSH1 0x4 PUSH1 0x0 DUP4 DUP2 MSTORE PUSH1 0x20 ADD SWAP1 DUP2 MSTORE PUSH1 0x20 ADD PUSH1 0x0 KECCAK256 PUSH1 0x4 ADD SLOAD PUSH2 0x7A0 SWAP2 SWAP1 PUSH2 0x1EFF JUMP JUMPDEST PUSH1 0x4 PUSH1 0x0 DUP4 DUP2 MSTORE PUSH1 0x20 ADD SWAP1 DUP2 MSTORE PUSH1 0x20 ADD PUSH1 0x0 KECCAK256 PUSH1 0x4 ADD DUP2 SWAP1 SSTORE POP PUSH1 0x1 PUSH1 0x5 PUSH1 0x0 CALLER PUSH20 0xFFFFFFFFFFFFFFFFFFFFFFFFFFFFFFFFFFFFFFFF AND PUSH20 0xFFFFFFFFFFFFFFFFFFFFFFFFFFFFFFFFFFFFFFFF AND DUP2 MSTORE PUSH1 0x20 ADD SWAP1 DUP2 MSTORE PUSH1 0x20 ADD PUSH1 0x0 KECCAK256 PUSH1 0x0 DUP4 DUP2 MSTORE PUSH1 0x20 ADD SWAP1 DUP2 MSTORE PUSH1 0x20 ADD PUSH1 0x0 KECCAK256 PUSH1 0x0 PUSH2 0x100 EXP DUP2 SLOAD DUP2 PUSH1 0xFF MUL NOT AND SWAP1 DUP4 ISZERO ISZERO MUL OR SWAP1 SSTORE POP POP JUMP JUMPDEST PUSH4 0x9D8B0678 PUSH8 0xFFFFFFFFFFFFFFFF AND DUP5 PUSH8 0xFFFFFFFFFFFFFFFF AND SUB PUSH2 0x88B JUMPI CALLDATASIZE PUSH1 0x0 PUSH2 0x852 DUP6 DUP6 PUSH2 0xCB9 JUMP JUMPDEST SWAP2 POP SWAP2 POP CALLDATASIZE PUSH1 0x0 CALLDATASIZE PUSH1 0x0 DUP1 PUSH2 0x867 DUP8 DUP8 PUSH2 0xE6F JUMP JUMPDEST SWAP5 POP SWAP5 POP SWAP5 POP SWAP5 POP SWAP5 POP PUSH2 0x87F DUP9 DUP7 DUP7 DUP7 DUP7 DUP7 PUSH2 0xAF5 JUMP JUMPDEST POP POP POP POP POP POP POP PUSH2 0x8C6 JUMP JUMPDEST PUSH1 0x40 MLOAD PUSH32 0x8C379A000000000000000000000000000000000000000000000000000000000 DUP2 MSTORE PUSH1 0x4 ADD PUSH2 0x8BD SWAP1 PUSH2 0x218B JUMP JUMPDEST PUSH1 0x40 MLOAD DUP1 SWAP2 SUB SWAP1 REVERT JUMPDEST POP POP POP POP POP JUMP JUMPDEST PUSH2 0x8D6 DUP2 PUSH2 0xC79 JUMP JUMPDEST ISZERO PUSH2 0x916 JUMPI PUSH1 0x40 MLOAD PUSH32 0x8C379A000000000000000000000000000000000000000000000000000000000 DUP2 MSTORE PUSH1 0x4 ADD PUSH2 0x90D SWAP1 PUSH2 0x2021 JUMP JUMPDEST PUSH1 0x40 MLOAD DUP1 SWAP2 SUB SWAP1 REVERT JUMPDEST PUSH1 0x5 PUSH1 0x0 CALLER PUSH20 0xFFFFFFFFFFFFFFFFFFFFFFFFFFFFFFFFFFFFFFFF AND PUSH20 0xFFFFFFFFFFFFFFFFFFFFFFFFFFFFFFFFFFFFFFFF AND DUP2 MSTORE PUSH1 0x20 ADD SWAP1 DUP2 MSTORE PUSH1 0x20 ADD PUSH1 0x0 KECCAK256 PUSH1 0x0 DUP3 DUP2 MSTORE PUSH1 0x20 ADD SWAP1 DUP2 MSTORE PUSH1 0x20 ADD PUSH1 0x0 KECCAK256 PUSH1 0x0 SWAP1 SLOAD SWAP1 PUSH2 0x100 EXP SWAP1 DIV PUSH1 0xFF AND ISZERO PUSH2 0x9B4 JUMPI PUSH1 0x40 MLOAD PUSH32 0x8C379A000000000000000000000000000000000000000000000000000000000 DUP2 MSTORE PUSH1 0x4 ADD PUSH2 0x9AB SWAP1 PUSH2 0x208D JUMP JUMPDEST PUSH1 0x40 MLOAD DUP1 SWAP2 SUB SWAP1 REVERT JUMPDEST PUSH2 0x9BD DUP2 PUSH2 0xAD3 JUMP JUMPDEST PUSH2 0x9FC JUMPI PUSH1 0x40 MLOAD PUSH32 0x8C379A000000000000000000000000000000000000000000000000000000000 DUP2 MSTORE PUSH1 0x4 ADD PUSH2 0x9F3 SWAP1 PUSH2 0x20F9 JUMP JUMPDEST PUSH1 0x40 MLOAD DUP1 SWAP2 SUB SWAP1 REVERT JUMPDEST PUSH1 0x1 PUSH1 0x4 PUSH1 0x0 DUP4 DUP2 MSTORE PUSH1 0x20 ADD SWAP1 DUP2 MSTORE PUSH1 0x20 ADD PUSH1 0x0 KECCAK256 PUSH1 0x5 ADD SLOAD PUSH2 0xA1F SWAP2 SWAP1 PUSH2 0x1EFF JUMP JUMPDEST PUSH1 0x4 PUSH1 0x0 DUP4 DUP2 MSTORE PUSH1 0x20 ADD SWAP1 DUP2 MSTORE PUSH1 0x20 ADD PUSH1 0x0 KECCAK256 PUSH1 0x5 ADD DUP2 SWAP1 SSTORE POP PUSH1 0x1 PUSH1 0x5 PUSH1 0x0 CALLER PUSH20 0xFFFFFFFFFFFFFFFFFFFFFFFFFFFFFFFFFFFFFFFF AND PUSH20 0xFFFFFFFFFFFFFFFFFFFFFFFFFFFFFFFFFFFFFFFF AND DUP2 MSTORE PUSH1 0x20 ADD SWAP1 DUP2 MSTORE PUSH1 0x20 ADD PUSH1 0x0 KECCAK256 PUSH1 0x0 DUP4 DUP2 MSTORE PUSH1 0x20 ADD SWAP1 DUP2 MSTORE PUSH1 0x20 ADD PUSH1 0x0 KECCAK256 PUSH1 0x0 PUSH2 0x100 EXP DUP2 SLOAD DUP2 PUSH1 0xFF MUL NOT AND SWAP1 DUP4 ISZERO ISZERO MUL OR SWAP1 SSTORE POP POP JUMP JUMPDEST PUSH1 0x1 DUP2 DUP1 MLOAD PUSH1 0x20 DUP2 ADD DUP3 ADD DUP1 MLOAD DUP5 DUP3 MSTORE PUSH1 0x20 DUP4 ADD PUSH1 0x20 DUP6 ADD KECCAK256 DUP2 DUP4 MSTORE DUP1 SWAP6 POP POP POP POP POP POP PUSH1 0x0 SWAP2 POP SWAP1 POP SLOAD DUP2 JUMP JUMPDEST PUSH1 0x0 TIMESTAMP PUSH1 0x4 PUSH1 0x0 DUP5 DUP2 MSTORE PUSH1 0x20 ADD SWAP1 DUP2 MSTORE PUSH1 0x20 ADD PUSH1 0x0 KECCAK256 PUSH1 0x7 ADD SLOAD GT SWAP1 POP SWAP2 SWAP1 POP JUMP JUMPDEST PUSH1 0x0 DUP6 DUP6 PUSH1 0x40 MLOAD PUSH2 0xB07 SWAP3 SWAP2 SWAP1 PUSH2 0x1F85 JUMP JUMPDEST SWAP1 DUP2 MSTORE PUSH1 0x20 ADD PUSH1 0x40 MLOAD DUP1 SWAP2 SUB SWAP1 KECCAK256 PUSH1 0x0 SWAP1 SLOAD SWAP1 PUSH2 0x100 EXP SWAP1 DIV PUSH1 0xFF AND PUSH2 0xB62 JUMPI PUSH1 0x40 MLOAD PUSH32 0x8C379A000000000000000000000000000000000000000000000000000000000 DUP2 MSTORE PUSH1 0x4 ADD PUSH2 0xB59 SWAP1 PUSH2 0x221D JUMP JUMPDEST PUSH1 0x40 MLOAD DUP1 SWAP2 SUB SWAP1 REVERT JUMPDEST DUP1 PUSH1 0x1 DUP7 DUP7 PUSH1 0x40 MLOAD PUSH2 0xB75 SWAP3 SWAP2 SWAP1 PUSH2 0x1F85 JUMP JUMPDEST SWAP1 DUP2 MSTORE PUSH1 0x20 ADD PUSH1 0x40 MLOAD DUP1 SWAP2 SUB SWAP1 KECCAK256 SLOAD EQ PUSH2 0xBC4 JUMPI PUSH1 0x40 MLOAD PUSH32 0x8C379A000000000000000000000000000000000000000000000000000000000 DUP2 MSTORE PUSH1 0x4 ADD PUSH2 0xBBB SWAP1 PUSH2 0x2289 JUMP JUMPDEST PUSH1 0x40 MLOAD DUP1 SWAP2 SUB SWAP1 REVERT JUMPDEST PUSH2 0xBCD DUP7 PUSH2 0x133A JUMP JUMPDEST PUSH2 0xC0C JUMPI PUSH1 0x40 MLOAD PUSH32 0x8C379A000000000000000000000000000000000000000000000000000000000 DUP2 MSTORE PUSH1 0x4 ADD PUSH2 0xC03 SWAP1 PUSH2 0x231B JUMP JUMPDEST PUSH1 0x40 MLOAD DUP1 SWAP2 SUB SWAP1 REVERT JUMPDEST PUSH1 0x1 PUSH1 0x2 DUP7 DUP7 PUSH1 0x40 MLOAD PUSH2 0xC20 SWAP3 SWAP2 SWAP1 PUSH2 0x1F85 JUMP JUMPDEST SWAP1 DUP2 MSTORE PUSH1 0x20 ADD PUSH1 0x40 MLOAD DUP1 SWAP2 SUB SWAP1 KECCAK256 DUP5 DUP5 PUSH1 0x40 MLOAD PUSH2 0xC3E SWAP3 SWAP2 SWAP1 PUSH2 0x1F85 JUMP JUMPDEST SWAP1 DUP2 MSTORE PUSH1 0x20 ADD PUSH1 0x40 MLOAD DUP1 SWAP2 SUB SWAP1 KECCAK256 PUSH1 0x0 PUSH2 0x100 EXP DUP2 SLOAD DUP2 PUSH1 0xFF MUL NOT AND SWAP1 DUP4 ISZERO ISZERO MUL OR SWAP1 SSTORE POP POP POP POP POP POP POP JUMP JUMPDEST PUSH4 0x9D8B0678 DUP2 JUMP JUMPDEST PUSH1 0x3 SLOAD DUP2 JUMP JUMPDEST PUSH1 0x0 CALLER PUSH20 0xFFFFFFFFFFFFFFFFFFFFFFFFFFFFFFFFFFFFFFFF AND PUSH2 0xC9B DUP4 PUSH2 0x1372 JUMP JUMPDEST PUSH20 0xFFFFFFFFFFFFFFFFFFFFFFFFFFFFFFFFFFFFFFFF AND EQ SWAP1 POP SWAP2 SWAP1 POP JUMP JUMPDEST CALLDATASIZE PUSH1 0x0 DUP1 PUSH1 0x0 SWAP1 POP PUSH32 0x8200000000000000000000000000000000000000000000000000000000000000 DUP6 DUP6 PUSH1 0x0 DUP2 DUP2 LT PUSH2 0xCF6 JUMPI PUSH2 0xCF5 PUSH2 0x233B JUMP JUMPDEST JUMPDEST SWAP1 POP ADD CALLDATALOAD PUSH1 0xF8 SHR PUSH1 0xF8 SHL PUSH31 0xFFFFFFFFFFFFFFFFFFFFFFFFFFFFFFFFFFFFFFFFFFFFFFFFFFFFFFFFFFFFFF NOT AND EQ PUSH2 0xD30 JUMPI PUSH2 0xD2F PUSH2 0x236A JUMP JUMPDEST JUMPDEST PUSH1 0x1 DUP2 PUSH2 0xD3D SWAP2 SWAP1 PUSH2 0x1EFF JUMP JUMPDEST SWAP1 POP PUSH1 0x0 DUP1 PUSH2 0xD90 DUP8 DUP8 DUP1 DUP1 PUSH1 0x1F ADD PUSH1 0x20 DUP1 SWAP2 DIV MUL PUSH1 0x20 ADD PUSH1 0x40 MLOAD SWAP1 DUP2 ADD PUSH1 0x40 MSTORE DUP1 SWAP4 SWAP3 SWAP2 SWAP1 DUP2 DUP2 MSTORE PUSH1 0x20 ADD DUP4 DUP4 DUP1 DUP3 DUP5 CALLDATACOPY PUSH1 0x0 DUP2 DUP5 ADD MSTORE PUSH1 0x1F NOT PUSH1 0x1F DUP3 ADD AND SWAP1 POP DUP1 DUP4 ADD SWAP3 POP POP POP POP POP POP POP DUP5 PUSH2 0x13B2 JUMP JUMPDEST DUP2 PUSH8 0xFFFFFFFFFFFFFFFF AND SWAP2 POP DUP1 SWAP6 POP DUP2 SWAP4 POP DUP3 SWAP5 POP POP POP POP PUSH1 0x2 PUSH1 0xFF AND DUP3 PUSH1 0xFF AND EQ PUSH2 0xDC0 JUMPI PUSH2 0xDBF PUSH2 0x236A JUMP JUMPDEST JUMPDEST DUP1 DUP4 PUSH2 0xDCC SWAP2 SWAP1 PUSH2 0x1EFF JUMP JUMPDEST SWAP3 POP PUSH2 0xE1C DUP8 DUP8 DUP1 DUP1 PUSH1 0x1F ADD PUSH1 0x20 DUP1 SWAP2 DIV MUL PUSH1 0x20 ADD PUSH1 0x40 MLOAD SWAP1 DUP2 ADD PUSH1 0x40 MSTORE DUP1 SWAP4 SWAP3 SWAP2 SWAP1 DUP2 DUP2 MSTORE PUSH1 0x20 ADD DUP4 DUP4 DUP1 DUP3 DUP5 CALLDATACOPY PUSH1 0x0 DUP2 DUP5 ADD MSTORE PUSH1 0x1F NOT PUSH1 0x1F DUP3 ADD AND SWAP1 POP DUP1 DUP4 ADD SWAP3 POP POP POP POP POP POP POP DUP5 PUSH2 0x13B2 JUMP JUMPDEST DUP2 PUSH8 0xFFFFFFFFFFFFFFFF AND SWAP2 POP DUP1 SWAP6 POP DUP2 SWAP4 POP DUP3 SWAP5 POP POP POP POP PUSH1 0x2 PUSH1 0xFF AND DUP3 PUSH1 0xFF AND EQ PUSH2 0xE4C JUMPI PUSH2 0xE4B PUSH2 0x236A JUMP JUMPDEST JUMPDEST DUP7 DUP7 DUP5 SWAP1 DUP10 DUP10 SWAP1 POP SWAP3 PUSH2 0xE61 SWAP4 SWAP3 SWAP2 SWAP1 PUSH2 0x23A3 JUMP JUMPDEST SWAP5 POP SWAP5 POP POP POP POP SWAP3 POP SWAP3 SWAP1 POP JUMP JUMPDEST CALLDATASIZE PUSH1 0x0 CALLDATASIZE PUSH1 0x0 DUP1 PUSH1 0x0 PUSH32 0x8B00000000000000000000000000000000000000000000000000000000000000 DUP9 DUP9 DUP4 DUP2 DUP2 LT PUSH2 0xEAC JUMPI PUSH2 0xEAB PUSH2 0x233B JUMP JUMPDEST JUMPDEST SWAP1 POP ADD CALLDATALOAD PUSH1 0xF8 SHR PUSH1 0xF8 SHL PUSH31 0xFFFFFFFFFFFFFFFFFFFFFFFFFFFFFFFFFFFFFFFFFFFFFFFFFFFFFFFFFFFFFF NOT AND EQ PUSH2 0xEE6 JUMPI PUSH2 0xEE5 PUSH2 0x236A JUMP JUMPDEST JUMPDEST PUSH1 0x1 DUP2 PUSH2 0xEF3 SWAP2 SWAP1 PUSH2 0x1EFF JUMP JUMPDEST SWAP1 POP PUSH32 0xD800000000000000000000000000000000000000000000000000000000000000 DUP9 DUP9 DUP4 DUP2 DUP2 LT PUSH2 0xF29 JUMPI PUSH2 0xF28 PUSH2 0x233B JUMP JUMPDEST JUMPDEST SWAP1 POP ADD CALLDATALOAD PUSH1 0xF8 SHR PUSH1 0xF8 SHL PUSH31 0xFFFFFFFFFFFFFFFFFFFFFFFFFFFFFFFFFFFFFFFFFFFFFFFFFFFFFFFFFFFFFF NOT AND EQ PUSH2 0xF63 JUMPI PUSH2 0xF62 PUSH2 0x236A JUMP JUMPDEST JUMPDEST PUSH1 0x1 DUP2 PUSH2 0xF70 SWAP2 SWAP1 PUSH2 0x1EFF JUMP JUMPDEST SWAP1 POP PUSH32 0x2A00000000000000000000000000000000000000000000000000000000000000 DUP9 DUP9 DUP4 DUP2 DUP2 LT PUSH2 0xFA6 JUMPI PUSH2 0xFA5 PUSH2 0x233B JUMP JUMPDEST JUMPDEST SWAP1 POP ADD CALLDATALOAD PUSH1 0xF8 SHR PUSH1 0xF8 SHL PUSH31 0xFFFFFFFFFFFFFFFFFFFFFFFFFFFFFFFFFFFFFFFFFFFFFFFFFFFFFFFFFFFFFF NOT AND EQ PUSH2 0xFE0 JUMPI PUSH2 0xFDF PUSH2 0x236A JUMP JUMPDEST JUMPDEST PUSH1 0x1 DUP2 PUSH2 0xFED SWAP2 SWAP1 PUSH2 0x1EFF JUMP JUMPDEST SWAP1 POP PUSH1 0x0 DUP1 PUSH2 0x1040 DUP11 DUP11 DUP1 DUP1 PUSH1 0x1F ADD PUSH1 0x20 DUP1 SWAP2 DIV MUL PUSH1 0x20 ADD PUSH1 0x40 MLOAD SWAP1 DUP2 ADD PUSH1 0x40 MSTORE DUP1 SWAP4 SWAP3 SWAP2 SWAP1 DUP2 DUP2 MSTORE PUSH1 0x20 ADD DUP4 DUP4 DUP1 DUP3 DUP5 CALLDATACOPY PUSH1 0x0 DUP2 DUP5 ADD MSTORE PUSH1 0x1F NOT PUSH1 0x1F DUP3 ADD AND SWAP1 POP DUP1 DUP4 ADD SWAP3 POP POP POP POP POP POP POP DUP5 PUSH2 0x13B2 JUMP JUMPDEST DUP2 PUSH8 0xFFFFFFFFFFFFFFFF AND SWAP2 POP DUP1 SWAP6 POP DUP2 SWAP4 POP DUP3 SWAP5 POP POP POP POP PUSH1 0x2 PUSH1 0xFF AND DUP3 PUSH1 0xFF AND EQ PUSH2 0x1070 JUMPI PUSH2 0x106F PUSH2 0x236A JUMP JUMPDEST JUMPDEST DUP10 DUP10 DUP5 SWAP1 DUP4 DUP7 PUSH2 0x1080 SWAP2 SWAP1 PUSH2 0x1EFF JUMP JUMPDEST SWAP3 PUSH2 0x108D SWAP4 SWAP3 SWAP2 SWAP1 PUSH2 0x23A3 JUMP JUMPDEST SWAP8 POP SWAP8 POP DUP1 DUP4 PUSH2 0x109D SWAP2 SWAP1 PUSH2 0x1EFF JUMP JUMPDEST SWAP3 POP PUSH2 0x10ED DUP11 DUP11 DUP1 DUP1 PUSH1 0x1F ADD PUSH1 0x20 DUP1 SWAP2 DIV MUL PUSH1 0x20 ADD PUSH1 0x40 MLOAD SWAP1 DUP2 ADD PUSH1 0x40 MSTORE DUP1 SWAP4 SWAP3 SWAP2 SWAP1 DUP2 DUP2 MSTORE PUSH1 0x20 ADD DUP4 DUP4 DUP1 DUP3 DUP5 CALLDATACOPY PUSH1 0x0 DUP2 DUP5 ADD MSTORE PUSH1 0x1F NOT PUSH1 0x1F DUP3 ADD AND SWAP1 POP DUP1 DUP4 ADD SWAP3 POP POP POP POP POP POP POP DUP5 PUSH2 0x13B2 JUMP JUMPDEST DUP2 PUSH8 0xFFFFFFFFFFFFFFFF AND SWAP2 POP DUP1 SWAP6 POP DUP2 SWAP7 POP DUP3 SWAP5 POP POP POP POP PUSH1 0x0 PUSH1 0xFF AND DUP3 PUSH1 0xFF AND EQ PUSH2 0x111D JUMPI PUSH2 0x111C PUSH2 0x236A JUMP JUMPDEST JUMPDEST PUSH32 0xF400000000000000000000000000000000000000000000000000000000000000 DUP11 DUP11 DUP6 DUP2 DUP2 LT PUSH2 0x1151 JUMPI PUSH2 0x1150 PUSH2 0x233B JUMP JUMPDEST JUMPDEST SWAP1 POP ADD CALLDATALOAD PUSH1 0xF8 SHR PUSH1 0xF8 SHL PUSH31 0xFFFFFFFFFFFFFFFFFFFFFFFFFFFFFFFFFFFFFFFFFFFFFFFFFFFFFFFFFFFFFF NOT AND EQ DUP1 PUSH2 0x11E6 JUMPI POP PUSH32 0xF500000000000000000000000000000000000000000000000000000000000000 DUP11 DUP11 DUP6 DUP2 DUP2 LT PUSH2 0x11B8 JUMPI PUSH2 0x11B7 PUSH2 0x233B JUMP JUMPDEST JUMPDEST SWAP1 POP ADD CALLDATALOAD PUSH1 0xF8 SHR PUSH1 0xF8 SHL PUSH31 0xFFFFFFFFFFFFFFFFFFFFFFFFFFFFFFFFFFFFFFFFFFFFFFFFFFFFFFFFFFFFFF NOT AND EQ JUMPDEST PUSH2 0x11F3 JUMPI PUSH2 0x11F2 PUSH2 0x236A JUMP JUMPDEST JUMPDEST PUSH1 0x1 DUP4 PUSH2 0x1200 SWAP2 SWAP1 PUSH2 0x1EFF JUMP JUMPDEST SWAP3 POP PUSH2 0x1250 DUP11 DUP11 DUP1 DUP1 PUSH1 0x1F ADD PUSH1 0x20 DUP1 SWAP2 DIV MUL PUSH1 0x20 ADD PUSH1 0x40 MLOAD SWAP1 DUP2 ADD PUSH1 0x40 MSTORE DUP1 SWAP4 SWAP3 SWAP2 SWAP1 DUP2 DUP2 MSTORE PUSH1 0x20 ADD DUP4 DUP4 DUP1 DUP3 DUP5 CALLDATACOPY PUSH1 0x0 DUP2 DUP5 ADD MSTORE PUSH1 0x1F NOT PUSH1 0x1F DUP3 ADD AND SWAP1 POP DUP1 DUP4 ADD SWAP3 POP POP POP POP POP POP POP DUP5 PUSH2 0x13B2 JUMP JUMPDEST DUP2 PUSH8 0xFFFFFFFFFFFFFFFF AND SWAP2 POP DUP1 SWAP6 POP DUP2 SWAP4 POP DUP3 SWAP5 POP POP POP POP PUSH1 0x2 PUSH1 0xFF AND DUP3 PUSH1 0xFF AND EQ PUSH2 0x1280 JUMPI PUSH2 0x127F PUSH2 0x236A JUMP JUMPDEST JUMPDEST DUP1 DUP4 PUSH2 0x128C SWAP2 SWAP1 PUSH2 0x1EFF JUMP JUMPDEST SWAP3 POP PUSH2 0x12DC DUP11 DUP11 DUP1 DUP1 PUSH1 0x1F ADD PUSH1 0x20 DUP1 SWAP2 DIV MUL PUSH1 0x20 ADD PUSH1 0x40 MLOAD SWAP1 DUP2 ADD PUSH1 0x40 MSTORE DUP1 SWAP4 SWAP3 SWAP2 SWAP1 DUP2 DUP2 MSTORE PUSH1 0x20 ADD DUP4 DUP4 DUP1 DUP3 DUP5 CALLDATACOPY PUSH1 0x0 DUP2 DUP5 ADD MSTORE PUSH1 0x1F NOT PUSH1 0x1F DUP3 ADD AND SWAP1 POP DUP1 DUP4 ADD SWAP3 POP POP POP POP POP POP POP DUP5 PUSH2 0x13B2 JUMP JUMPDEST DUP2 PUSH8 0xFFFFFFFFFFFFFFFF AND SWAP2 POP DUP1 SWAP6 POP DUP2 SWAP4 POP DUP3 SWAP5 POP POP POP POP PUSH1 0x2 PUSH1 0xFF AND DUP3 PUSH1 0xFF AND EQ PUSH2 0x130C JUMPI PUSH2 0x130B PUSH2 0x236A JUMP JUMPDEST JUMPDEST DUP10 DUP10 DUP5 SWAP1 DUP4 DUP7 PUSH2 0x131C SWAP2 SWAP1 PUSH2 0x1EFF JUMP JUMPDEST SWAP3 PUSH2 0x1329 SWAP4 SWAP3 SWAP2 SWAP1 PUSH2 0x23A3 JUMP JUMPDEST SWAP6 POP SWAP6 POP POP POP POP SWAP3 SWAP6 POP SWAP3 SWAP6 SWAP1 SWAP4 POP JUMP JUMPDEST PUSH1 0x0 PUSH1 0x4 PUSH1 0x0 DUP4 DUP2 MSTORE PUSH1 0x20 ADD SWAP1 DUP2 MSTORE PUSH1 0x20 ADD PUSH1 0x0 KECCAK256 PUSH1 0x5 ADD SLOAD PUSH1 0x4 PUSH1 0x0 DUP5 DUP2 MSTORE PUSH1 0x20 ADD SWAP1 DUP2 MSTORE PUSH1 0x20 ADD PUSH1 0x0 KECCAK256 PUSH1 0x4 ADD SLOAD GT SWAP1 POP SWAP2 SWAP1 POP JUMP JUMPDEST PUSH1 0x0 PUSH1 0x4 PUSH1 0x0 DUP4 DUP2 MSTORE PUSH1 0x20 ADD SWAP1 DUP2 MSTORE PUSH1 0x20 ADD PUSH1 0x0 KECCAK256 PUSH1 0x1 ADD PUSH1 0x0 SWAP1 SLOAD SWAP1 PUSH2 0x100 EXP SWAP1 DIV PUSH20 0xFFFFFFFFFFFFFFFFFFFFFFFFFFFFFFFFFFFFFFFF AND SWAP1 POP SWAP2 SWAP1 POP JUMP JUMPDEST PUSH1 0x0 DUP1 PUSH1 0x0 DUP1 PUSH2 0x13C2 DUP7 DUP7 PUSH2 0x1540 JUMP JUMPDEST SWAP1 POP PUSH1 0x1 DUP6 PUSH2 0x13D1 SWAP2 SWAP1 PUSH2 0x1EFF JUMP JUMPDEST SWAP5 POP PUSH1 0x0 PUSH1 0x5 PUSH1 0xE0 DUP4 AND PUSH1 0xFF AND SWAP1 SHR SWAP1 POP PUSH1 0x0 PUSH1 0x1F DUP4 AND SWAP1 POP PUSH1 0x1C DUP2 PUSH1 0xFF AND LT PUSH2 0x13FE JUMPI PUSH2 0x13FD PUSH2 0x236A JUMP JUMPDEST JUMPDEST PUSH1 0x18 DUP2 PUSH1 0xFF AND LT ISZERO PUSH2 0x1421 JUMPI DUP2 DUP2 DUP9 DUP2 PUSH1 0xFF AND SWAP2 POP SWAP6 POP SWAP6 POP SWAP6 POP POP POP POP PUSH2 0x1539 JUMP JUMPDEST PUSH1 0x18 DUP2 PUSH1 0xFF AND SUB PUSH2 0x1476 JUMPI PUSH1 0x0 PUSH2 0x1438 DUP10 DUP10 PUSH2 0x1540 JUMP JUMPDEST SWAP1 POP PUSH1 0x1 DUP9 PUSH2 0x1447 SWAP2 SWAP1 PUSH2 0x1EFF JUMP JUMPDEST SWAP8 POP PUSH1 0x18 DUP2 PUSH1 0xFF AND LT ISZERO PUSH2 0x145E JUMPI PUSH2 0x145D PUSH2 0x236A JUMP JUMPDEST JUMPDEST DUP3 DUP2 DUP10 DUP2 PUSH1 0xFF AND SWAP2 POP SWAP7 POP SWAP7 POP SWAP7 POP POP POP POP POP PUSH2 0x1539 JUMP JUMPDEST PUSH1 0x19 DUP2 PUSH1 0xFF AND SUB PUSH2 0x14B7 JUMPI PUSH1 0x0 PUSH2 0x148D DUP10 DUP10 PUSH2 0x15A7 JUMP JUMPDEST SWAP1 POP PUSH1 0x2 DUP9 PUSH2 0x149C SWAP2 SWAP1 PUSH2 0x1EFF JUMP JUMPDEST SWAP8 POP DUP3 DUP2 DUP10 DUP2 PUSH2 0xFFFF AND SWAP2 POP SWAP7 POP SWAP7 POP SWAP7 POP POP POP POP POP PUSH2 0x1539 JUMP JUMPDEST PUSH1 0x1A DUP2 PUSH1 0xFF AND SUB PUSH2 0x14FA JUMPI PUSH1 0x0 PUSH2 0x14CE DUP10 DUP10 PUSH2 0x160E JUMP JUMPDEST SWAP1 POP PUSH1 0x4 DUP9 PUSH2 0x14DD SWAP2 SWAP1 PUSH2 0x1EFF JUMP JUMPDEST SWAP8 POP DUP3 DUP2 DUP10 DUP2 PUSH4 0xFFFFFFFF AND SWAP2 POP SWAP7 POP SWAP7 POP SWAP7 POP POP POP POP POP PUSH2 0x1539 JUMP JUMPDEST PUSH1 0x1B DUP2 PUSH1 0xFF AND EQ PUSH2 0x150E JUMPI PUSH2 0x150D PUSH2 0x236A JUMP JUMPDEST JUMPDEST PUSH1 0x0 PUSH2 0x151A DUP10 DUP10 PUSH2 0x1675 JUMP JUMPDEST SWAP1 POP PUSH1 0x8 DUP9 PUSH2 0x1529 SWAP2 SWAP1 PUSH2 0x1EFF JUMP JUMPDEST SWAP8 POP DUP3 DUP2 DUP10 SWAP7 POP SWAP7 POP SWAP7 POP POP POP POP POP JUMPDEST SWAP3 POP SWAP3 POP SWAP3 JUMP JUMPDEST PUSH1 0x0 PUSH1 0x1 DUP3 PUSH2 0x154F SWAP2 SWAP1 PUSH2 0x1EFF JUMP JUMPDEST DUP4 MLOAD LT ISZERO PUSH2 0x1592 JUMPI PUSH1 0x40 MLOAD PUSH32 0x8C379A000000000000000000000000000000000000000000000000000000000 DUP2 MSTORE PUSH1 0x4 ADD PUSH2 0x1589 SWAP1 PUSH2 0x242A JUMP JUMPDEST PUSH1 0x40 MLOAD DUP1 SWAP2 SUB SWAP1 REVERT JUMPDEST PUSH1 0x0 DUP3 PUSH1 0x1 ADD DUP5 ADD MLOAD SWAP1 POP DUP1 SWAP2 POP POP SWAP3 SWAP2 POP POP JUMP JUMPDEST PUSH1 0x0 PUSH1 0x2 DUP3 PUSH2 0x15B6 SWAP2 SWAP1 PUSH2 0x1EFF JUMP JUMPDEST DUP4 MLOAD LT ISZERO PUSH2 0x15F9 JUMPI PUSH1 0x40 MLOAD PUSH32 0x8C379A000000000000000000000000000000000000000000000000000000000 DUP2 MSTORE PUSH1 0x4 ADD PUSH2 0x15F0 SWAP1 PUSH2 0x242A JUMP JUMPDEST PUSH1 0x40 MLOAD DUP1 SWAP2 SUB SWAP1 REVERT JUMPDEST PUSH1 0x0 DUP3 PUSH1 0x2 ADD DUP5 ADD MLOAD SWAP1 POP DUP1 SWAP2 POP POP SWAP3 SWAP2 POP POP JUMP JUMPDEST PUSH1 0x0 PUSH1 0x4 DUP3 PUSH2 0x161D SWAP2 SWAP1 PUSH2 0x1EFF JUMP JUMPDEST DUP4 MLOAD LT ISZERO PUSH2 0x1660 JUMPI PUSH1 0x40 MLOAD PUSH32 0x8C379A000000000000000000000000000000000000000000000000000000000 DUP2 MSTORE PUSH1 0x4 ADD PUSH2 0x1657 SWAP1 PUSH2 0x242A JUMP JUMPDEST PUSH1 0x40 MLOAD DUP1 SWAP2 SUB SWAP1 REVERT JUMPDEST PUSH1 0x0 DUP3 PUSH1 0x4 ADD DUP5 ADD MLOAD SWAP1 POP DUP1 SWAP2 POP POP SWAP3 SWAP2 POP POP JUMP JUMPDEST PUSH1 0x0 PUSH1 0x8 DUP3 PUSH2 0x1684 SWAP2 SWAP1 PUSH2 0x1EFF JUMP JUMPDEST DUP4 MLOAD LT ISZERO PUSH2 0x16C7 JUMPI PUSH1 0x40 MLOAD PUSH32 0x8C379A000000000000000000000000000000000000000000000000000000000 DUP2 MSTORE PUSH1 0x4 ADD PUSH2 0x16BE SWAP1 PUSH2 0x242A JUMP JUMPDEST PUSH1 0x40 MLOAD DUP1 SWAP2 SUB SWAP1 REVERT JUMPDEST PUSH1 0x0 DUP3 PUSH1 0x8 ADD DUP5 ADD MLOAD SWAP1 POP DUP1 SWAP2 POP POP SWAP3 SWAP2 POP POP JUMP JUMPDEST DUP3 DUP1 SLOAD PUSH2 0x16E8 SWAP1 PUSH2 0x1E9F JUMP JUMPDEST SWAP1 PUSH1 0x0 MSTORE PUSH1 0x20 PUSH1 0x0 KECCAK256 SWAP1 PUSH1 0x1F ADD PUSH1 0x20 SWAP1 DIV DUP2 ADD SWAP3 DUP3 PUSH2 0x170A JUMPI PUSH1 0x0 DUP6 SSTORE PUSH2 0x1751 JUMP JUMPDEST DUP3 PUSH1 0x1F LT PUSH2 0x1723 JUMPI DUP1 MLOAD PUSH1 0xFF NOT AND DUP4 DUP1 ADD OR DUP6 SSTORE PUSH2 0x1751 JUMP JUMPDEST DUP3 DUP1 ADD PUSH1 0x1 ADD DUP6 SSTORE DUP3 ISZERO PUSH2 0x1751 JUMPI SWAP2 DUP3 ADD JUMPDEST DUP3 DUP2 GT ISZERO PUSH2 0x1750 JUMPI DUP3 MLOAD DUP3 SSTORE SWAP2 PUSH1 0x20 ADD SWAP2 SWAP1 PUSH1 0x1 ADD SWAP1 PUSH2 0x1735 JUMP JUMPDEST JUMPDEST POP SWAP1 POP PUSH2 0x175E SWAP2 SWAP1 PUSH2 0x1762 JUMP JUMPDEST POP SWAP1 JUMP JUMPDEST JUMPDEST DUP1 DUP3 GT ISZERO PUSH2 0x177B JUMPI PUSH1 0x0 DUP2 PUSH1 0x0 SWAP1 SSTORE POP PUSH1 0x1 ADD PUSH2 0x1763 JUMP JUMPDEST POP SWAP1 JUMP JUMPDEST PUSH1 0x0 PUSH1 0x40 MLOAD SWAP1 POP SWAP1 JUMP JUMPDEST PUSH1 0x0 DUP1 REVERT JUMPDEST PUSH1 0x0 DUP1 REVERT JUMPDEST PUSH1 0x0 DUP2 SWAP1 POP SWAP2 SWAP1 POP JUMP JUMPDEST PUSH2 0x17A6 DUP2 PUSH2 0x1793 JUMP JUMPDEST DUP2 EQ PUSH2 0x17B1 JUMPI PUSH1 0x0 DUP1 REVERT JUMPDEST POP JUMP JUMPDEST PUSH1 0x0 DUP2 CALLDATALOAD SWAP1 POP PUSH2 0x17C3 DUP2 PUSH2 0x179D JUMP JUMPDEST SWAP3 SWAP2 POP POP JUMP JUMPDEST PUSH1 0x0 PUSH1 0x20 DUP3 DUP5 SUB SLT ISZERO PUSH2 0x17DF JUMPI PUSH2 0x17DE PUSH2 0x1789 JUMP JUMPDEST JUMPDEST PUSH1 0x0 PUSH2 0x17ED DUP5 DUP3 DUP6 ADD PUSH2 0x17B4 JUMP JUMPDEST SWAP2 POP POP SWAP3 SWAP2 POP POP JUMP JUMPDEST PUSH2 0x17FF DUP2 PUSH2 0x1793 JUMP JUMPDEST DUP3 MSTORE POP POP JUMP JUMPDEST PUSH1 0x0 PUSH20 0xFFFFFFFFFFFFFFFFFFFFFFFFFFFFFFFFFFFFFFFF DUP3 AND SWAP1 POP SWAP2 SWAP1 POP JUMP JUMPDEST PUSH1 0x0 PUSH2 0x1830 DUP3 PUSH2 0x1805 JUMP JUMPDEST SWAP1 POP SWAP2 SWAP1 POP JUMP JUMPDEST PUSH2 0x1840 DUP2 PUSH2 0x1825 JUMP JUMPDEST DUP3 MSTORE POP POP JUMP JUMPDEST PUSH1 0x0 DUP2 MLOAD SWAP1 POP SWAP2 SWAP1 POP JUMP JUMPDEST PUSH1 0x0 DUP3 DUP3 MSTORE PUSH1 0x20 DUP3 ADD SWAP1 POP SWAP3 SWAP2 POP POP JUMP JUMPDEST PUSH1 0x0 JUMPDEST DUP4 DUP2 LT ISZERO PUSH2 0x1880 JUMPI DUP1 DUP3 ADD MLOAD DUP2 DUP5 ADD MSTORE PUSH1 0x20 DUP2 ADD SWAP1 POP PUSH2 0x1865 JUMP JUMPDEST DUP4 DUP2 GT ISZERO PUSH2 0x188F JUMPI PUSH1 0x0 DUP5 DUP5 ADD MSTORE JUMPDEST POP POP POP POP JUMP JUMPDEST PUSH1 0x0 PUSH1 0x1F NOT PUSH1 0x1F DUP4 ADD AND SWAP1 POP SWAP2 SWAP1 POP JUMP JUMPDEST PUSH1 0x0 PUSH2 0x18B1 DUP3 PUSH2 0x1846 JUMP JUMPDEST PUSH2 0x18BB DUP2 DUP6 PUSH2 0x1851 JUMP JUMPDEST SWAP4 POP PUSH2 0x18CB DUP2 DUP6 PUSH1 0x20 DUP7 ADD PUSH2 0x1862 JUMP JUMPDEST PUSH2 0x18D4 DUP2 PUSH2 0x1895 JUMP JUMPDEST DUP5 ADD SWAP2 POP POP SWAP3 SWAP2 POP POP JUMP JUMPDEST PUSH1 0x0 PUSH2 0x100 DUP3 ADD SWAP1 POP PUSH2 0x18F5 PUSH1 0x0 DUP4 ADD DUP12 PUSH2 0x17F6 JUMP JUMPDEST PUSH2 0x1902 PUSH1 0x20 DUP4 ADD DUP11 PUSH2 0x1837 JUMP JUMPDEST DUP2 DUP2 SUB PUSH1 0x40 DUP4 ADD MSTORE PUSH2 0x1914 DUP2 DUP10 PUSH2 0x18A6 JUMP JUMPDEST SWAP1 POP PUSH2 0x1923 PUSH1 0x60 DUP4 ADD DUP9 PUSH2 0x17F6 JUMP JUMPDEST PUSH2 0x1930 PUSH1 0x80 DUP4 ADD DUP8 PUSH2 0x17F6 JUMP JUMPDEST PUSH2 0x193D PUSH1 0xA0 DUP4 ADD DUP7 PUSH2 0x17F6 JUMP JUMPDEST PUSH2 0x194A PUSH1 0xC0 DUP4 ADD DUP6 PUSH2 0x17F6 JUMP JUMPDEST PUSH2 0x1957 PUSH1 0xE0 DUP4 ADD DUP5 PUSH2 0x17F6 JUMP JUMPDEST SWAP10 SWAP9 POP POP POP POP POP POP POP POP POP JUMP JUMPDEST PUSH2 0x196D DUP2 PUSH2 0x1825 JUMP JUMPDEST DUP2 EQ PUSH2 0x1978 JUMPI PUSH1 0x0 DUP1 REVERT JUMPDEST POP JUMP JUMPDEST PUSH1 0x0 DUP2 CALLDATALOAD SWAP1 POP PUSH2 0x198A DUP2 PUSH2 0x1964 JUMP JUMPDEST SWAP3 SWAP2 POP POP JUMP JUMPDEST PUSH1 0x0 DUP1 PUSH1 0x40 DUP4 DUP6 SUB SLT ISZERO PUSH2 0x19A7 JUMPI PUSH2 0x19A6 PUSH2 0x1789 JUMP JUMPDEST JUMPDEST PUSH1 0x0 PUSH2 0x19B5 DUP6 DUP3 DUP7 ADD PUSH2 0x197B JUMP JUMPDEST SWAP3 POP POP PUSH1 0x20 PUSH2 0x19C6 DUP6 DUP3 DUP7 ADD PUSH2 0x17B4 JUMP JUMPDEST SWAP2 POP POP SWAP3 POP SWAP3 SWAP1 POP JUMP JUMPDEST PUSH1 0x0 DUP2 ISZERO ISZERO SWAP1 POP SWAP2 SWAP1 POP JUMP JUMPDEST PUSH2 0x19E5 DUP2 PUSH2 0x19D0 JUMP JUMPDEST DUP3 MSTORE POP POP JUMP JUMPDEST PUSH1 0x0 PUSH1 0x20 DUP3 ADD SWAP1 POP PUSH2 0x1A00 PUSH1 0x0 DUP4 ADD DUP5 PUSH2 0x19DC JUMP JUMPDEST SWAP3 SWAP2 POP POP JUMP JUMPDEST PUSH1 0x0 DUP1 REVERT JUMPDEST PUSH1 0x0 DUP1 REVERT JUMPDEST PUSH32 0x4E487B7100000000000000000000000000000000000000000000000000000000 PUSH1 0x0 MSTORE PUSH1 0x41 PUSH1 0x4 MSTORE PUSH1 0x24 PUSH1 0x0 REVERT JUMPDEST PUSH2 0x1A48 DUP3 PUSH2 0x1895 JUMP JUMPDEST DUP2 ADD DUP2 DUP2 LT PUSH8 0xFFFFFFFFFFFFFFFF DUP3 GT OR ISZERO PUSH2 0x1A67 JUMPI PUSH2 0x1A66 PUSH2 0x1A10 JUMP JUMPDEST JUMPDEST DUP1 PUSH1 0x40 MSTORE POP POP POP JUMP JUMPDEST PUSH1 0x0 PUSH2 0x1A7A PUSH2 0x177F JUMP JUMPDEST SWAP1 POP PUSH2 0x1A86 DUP3 DUP3 PUSH2 0x1A3F JUMP JUMPDEST SWAP2 SWAP1 POP JUMP JUMPDEST PUSH1 0x0 PUSH8 0xFFFFFFFFFFFFFFFF DUP3 GT ISZERO PUSH2 0x1AA6 JUMPI PUSH2 0x1AA5 PUSH2 0x1A10 JUMP JUMPDEST JUMPDEST PUSH2 0x1AAF DUP3 PUSH2 0x1895 JUMP JUMPDEST SWAP1 POP PUSH1 0x20 DUP2 ADD SWAP1 POP SWAP2 SWAP1 POP JUMP JUMPDEST DUP3 DUP2 DUP4 CALLDATACOPY PUSH1 0x0 DUP4 DUP4 ADD MSTORE POP POP POP JUMP JUMPDEST PUSH1 0x0 PUSH2 0x1ADE PUSH2 0x1AD9 DUP5 PUSH2 0x1A8B JUMP JUMPDEST PUSH2 0x1A70 JUMP JUMPDEST SWAP1 POP DUP3 DUP2 MSTORE PUSH1 0x20 DUP2 ADD DUP5 DUP5 DUP5 ADD GT ISZERO PUSH2 0x1AFA JUMPI PUSH2 0x1AF9 PUSH2 0x1A0B JUMP JUMPDEST JUMPDEST PUSH2 0x1B05 DUP5 DUP3 DUP6 PUSH2 0x1ABC JUMP JUMPDEST POP SWAP4 SWAP3 POP POP POP JUMP JUMPDEST PUSH1 0x0 DUP3 PUSH1 0x1F DUP4 ADD SLT PUSH2 0x1B22 JUMPI PUSH2 0x1B21 PUSH2 0x1A06 JUMP JUMPDEST JUMPDEST DUP2 CALLDATALOAD PUSH2 0x1B32 DUP5 DUP3 PUSH1 0x20 DUP7 ADD PUSH2 0x1ACB JUMP JUMPDEST SWAP2 POP POP SWAP3 SWAP2 POP POP JUMP JUMPDEST PUSH1 0x0 PUSH1 0x20 DUP3 DUP5 SUB SLT ISZERO PUSH2 0x1B51 JUMPI PUSH2 0x1B50 PUSH2 0x1789 JUMP JUMPDEST JUMPDEST PUSH1 0x0 DUP3 ADD CALLDATALOAD PUSH8 0xFFFFFFFFFFFFFFFF DUP2 GT ISZERO PUSH2 0x1B6F JUMPI PUSH2 0x1B6E PUSH2 0x178E JUMP JUMPDEST JUMPDEST PUSH2 0x1B7B DUP5 DUP3 DUP6 ADD PUSH2 0x1B0D JUMP JUMPDEST SWAP2 POP POP SWAP3 SWAP2 POP POP JUMP JUMPDEST PUSH1 0x0 DUP1 REVERT JUMPDEST PUSH1 0x0 DUP1 REVERT JUMPDEST PUSH1 0x0 DUP1 DUP4 PUSH1 0x1F DUP5 ADD SLT PUSH2 0x1BA4 JUMPI PUSH2 0x1BA3 PUSH2 0x1A06 JUMP JUMPDEST JUMPDEST DUP3 CALLDATALOAD SWAP1 POP PUSH8 0xFFFFFFFFFFFFFFFF DUP2 GT ISZERO PUSH2 0x1BC1 JUMPI PUSH2 0x1BC0 PUSH2 0x1B84 JUMP JUMPDEST JUMPDEST PUSH1 0x20 DUP4 ADD SWAP2 POP DUP4 PUSH1 0x1 DUP3 MUL DUP4 ADD GT ISZERO PUSH2 0x1BDD JUMPI PUSH2 0x1BDC PUSH2 0x1B89 JUMP JUMPDEST JUMPDEST SWAP3 POP SWAP3 SWAP1 POP JUMP JUMPDEST PUSH1 0x0 DUP1 PUSH1 0x0 PUSH1 0x40 DUP5 DUP7 SUB SLT ISZERO PUSH2 0x1BFD JUMPI PUSH2 0x1BFC PUSH2 0x1789 JUMP JUMPDEST JUMPDEST PUSH1 0x0 DUP5 ADD CALLDATALOAD PUSH8 0xFFFFFFFFFFFFFFFF DUP2 GT ISZERO PUSH2 0x1C1B JUMPI PUSH2 0x1C1A PUSH2 0x178E JUMP JUMPDEST JUMPDEST PUSH2 0x1C27 DUP7 DUP3 DUP8 ADD PUSH2 0x1B8E JUMP JUMPDEST SWAP4 POP SWAP4 POP POP PUSH1 0x20 PUSH2 0x1C3A DUP7 DUP3 DUP8 ADD PUSH2 0x17B4 JUMP JUMPDEST SWAP2 POP POP SWAP3 POP SWAP3 POP SWAP3 JUMP JUMPDEST PUSH1 0x0 DUP1 PUSH1 0x40 DUP4 DUP6 SUB SLT ISZERO PUSH2 0x1C5B JUMPI PUSH2 0x1C5A PUSH2 0x1789 JUMP JUMPDEST JUMPDEST PUSH1 0x0 DUP4 ADD CALLDATALOAD PUSH8 0xFFFFFFFFFFFFFFFF DUP2 GT ISZERO PUSH2 0x1C79 JUMPI PUSH2 0x1C78 PUSH2 0x178E JUMP JUMPDEST JUMPDEST PUSH2 0x1C85 DUP6 DUP3 DUP7 ADD PUSH2 0x1B0D JUMP JUMPDEST SWAP3 POP POP PUSH1 0x20 DUP4 ADD CALLDATALOAD PUSH8 0xFFFFFFFFFFFFFFFF DUP2 GT ISZERO PUSH2 0x1CA6 JUMPI PUSH2 0x1CA5 PUSH2 0x178E JUMP JUMPDEST JUMPDEST PUSH2 0x1CB2 DUP6 DUP3 DUP7 ADD PUSH2 0x1B0D JUMP JUMPDEST SWAP2 POP POP SWAP3 POP SWAP3 SWAP1 POP JUMP JUMPDEST PUSH1 0x0 PUSH8 0xFFFFFFFFFFFFFFFF DUP3 AND SWAP1 POP SWAP2 SWAP1 POP JUMP JUMPDEST PUSH2 0x1CD9 DUP2 PUSH2 0x1CBC JUMP JUMPDEST DUP2 EQ PUSH2 0x1CE4 JUMPI PUSH1 0x0 DUP1 REVERT JUMPDEST POP JUMP JUMPDEST PUSH1 0x0 DUP2 CALLDATALOAD SWAP1 POP PUSH2 0x1CF6 DUP2 PUSH2 0x1CD0 JUMP JUMPDEST SWAP3 SWAP2 POP POP JUMP JUMPDEST PUSH1 0x0 DUP1 PUSH1 0x0 DUP1 PUSH1 0x0 PUSH1 0x80 DUP7 DUP9 SUB SLT ISZERO PUSH2 0x1D18 JUMPI PUSH2 0x1D17 PUSH2 0x1789 JUMP JUMPDEST JUMPDEST PUSH1 0x0 PUSH2 0x1D26 DUP9 DUP3 DUP10 ADD PUSH2 0x1CE7 JUMP JUMPDEST SWAP6 POP POP PUSH1 0x20 PUSH2 0x1D37 DUP9 DUP3 DUP10 ADD PUSH2 0x1CE7 JUMP JUMPDEST SWAP5 POP POP PUSH1 0x40 DUP7 ADD CALLDATALOAD PUSH8 0xFFFFFFFFFFFFFFFF DUP2 GT ISZERO PUSH2 0x1D58 JUMPI PUSH2 0x1D57 PUSH2 0x178E JUMP JUMPDEST JUMPDEST PUSH2 0x1D64 DUP9 DUP3 DUP10 ADD PUSH2 0x1B8E JUMP JUMPDEST SWAP4 POP SWAP4 POP POP PUSH1 0x60 PUSH2 0x1D77 DUP9 DUP3 DUP10 ADD PUSH2 0x17B4 JUMP JUMPDEST SWAP2 POP POP SWAP3 SWAP6 POP SWAP3 SWAP6 SWAP1 SWAP4 POP JUMP JUMPDEST PUSH1 0x0 PUSH1 0x20 DUP3 ADD SWAP1 POP PUSH2 0x1D99 PUSH1 0x0 DUP4 ADD DUP5 PUSH2 0x17F6 JUMP JUMPDEST SWAP3 SWAP2 POP POP JUMP JUMPDEST PUSH1 0x0 DUP1 PUSH1 0x0 DUP1 PUSH1 0x0 DUP1 PUSH1 0x80 DUP8 DUP10 SUB SLT ISZERO PUSH2 0x1DBC JUMPI PUSH2 0x1DBB PUSH2 0x1789 JUMP JUMPDEST JUMPDEST PUSH1 0x0 PUSH2 0x1DCA DUP10 DUP3 DUP11 ADD PUSH2 0x17B4 JUMP JUMPDEST SWAP7 POP POP PUSH1 0x20 DUP8 ADD CALLDATALOAD PUSH8 0xFFFFFFFFFFFFFFFF DUP2 GT ISZERO PUSH2 0x1DEB JUMPI PUSH2 0x1DEA PUSH2 0x178E JUMP JUMPDEST JUMPDEST PUSH2 0x1DF7 DUP10 DUP3 DUP11 ADD PUSH2 0x1B8E JUMP JUMPDEST SWAP6 POP SWAP6 POP POP PUSH1 0x40 DUP8 ADD CALLDATALOAD PUSH8 0xFFFFFFFFFFFFFFFF DUP2 GT ISZERO PUSH2 0x1E1A JUMPI PUSH2 0x1E19 PUSH2 0x178E JUMP JUMPDEST JUMPDEST PUSH2 0x1E26 DUP10 DUP3 DUP11 ADD PUSH2 0x1B8E JUMP JUMPDEST SWAP4 POP SWAP4 POP POP PUSH1 0x60 PUSH2 0x1E39 DUP10 DUP3 DUP11 ADD PUSH2 0x17B4 JUMP JUMPDEST SWAP2 POP POP SWAP3 SWAP6 POP SWAP3 SWAP6 POP SWAP3 SWAP6 JUMP JUMPDEST PUSH2 0x1E4F DUP2 PUSH2 0x1CBC JUMP JUMPDEST DUP3 MSTORE POP POP JUMP JUMPDEST PUSH1 0x0 PUSH1 0x20 DUP3 ADD SWAP1 POP PUSH2 0x1E6A PUSH1 0x0 DUP4 ADD DUP5 PUSH2 0x1E46 JUMP JUMPDEST SWAP3 SWAP2 POP POP JUMP JUMPDEST PUSH32 0x4E487B7100000000000000000000000000000000000000000000000000000000 PUSH1 0x0 MSTORE PUSH1 0x22 PUSH1 0x4 MSTORE PUSH1 0x24 PUSH1 0x0 REVERT JUMPDEST PUSH1 0x0 PUSH1 0x2 DUP3 DIV SWAP1 POP PUSH1 0x1 DUP3 AND DUP1 PUSH2 0x1EB7 JUMPI PUSH1 0x7F DUP3 AND SWAP2 POP JUMPDEST PUSH1 0x20 DUP3 LT DUP2 SUB PUSH2 0x1ECA JUMPI PUSH2 0x1EC9 PUSH2 0x1E70 JUMP JUMPDEST JUMPDEST POP SWAP2 SWAP1 POP JUMP JUMPDEST PUSH32 0x4E487B7100000000000000000000000000000000000000000000000000000000 PUSH1 0x0 MSTORE PUSH1 0x11 PUSH1 0x4 MSTORE PUSH1 0x24 PUSH1 0x0 REVERT JUMPDEST PUSH1 0x0 PUSH2 0x1F0A DUP3 PUSH2 0x1793 JUMP JUMPDEST SWAP2 POP PUSH2 0x1F15 DUP4 PUSH2 0x1793 JUMP JUMPDEST SWAP3 POP DUP3 PUSH32 0xFFFFFFFFFFFFFFFFFFFFFFFFFFFFFFFFFFFFFFFFFFFFFFFFFFFFFFFFFFFFFFFF SUB DUP3 GT ISZERO PUSH2 0x1F4A JUMPI PUSH2 0x1F49 PUSH2 0x1ED0 JUMP JUMPDEST JUMPDEST DUP3 DUP3 ADD SWAP1 POP SWAP3 SWAP2 POP POP JUMP JUMPDEST PUSH1 0x0 DUP2 SWAP1 POP SWAP3 SWAP2 POP POP JUMP JUMPDEST PUSH1 0x0 PUSH2 0x1F6C DUP4 DUP6 PUSH2 0x1F55 JUMP JUMPDEST SWAP4 POP PUSH2 0x1F79 DUP4 DUP6 DUP5 PUSH2 0x1ABC JUMP JUMPDEST DUP3 DUP5 ADD SWAP1 POP SWAP4 SWAP3 POP POP POP JUMP JUMPDEST PUSH1 0x0 PUSH2 0x1F92 DUP3 DUP5 DUP7 PUSH2 0x1F60 JUMP JUMPDEST SWAP2 POP DUP2 SWAP1 POP SWAP4 SWAP3 POP POP POP JUMP JUMPDEST PUSH1 0x0 DUP3 DUP3 MSTORE PUSH1 0x20 DUP3 ADD SWAP1 POP SWAP3 SWAP2 POP POP JUMP JUMPDEST PUSH32 0x53746F726167652050726F76696465722063616E6E6F7420766F746520686973 PUSH1 0x0 DUP3 ADD MSTORE PUSH32 0x206F776E2070726F706F73616C00000000000000000000000000000000000000 PUSH1 0x20 DUP3 ADD MSTORE POP JUMP JUMPDEST PUSH1 0x0 PUSH2 0x200B PUSH1 0x2D DUP4 PUSH2 0x1F9E JUMP JUMPDEST SWAP2 POP PUSH2 0x2016 DUP3 PUSH2 0x1FAF JUMP JUMPDEST PUSH1 0x40 DUP3 ADD SWAP1 POP SWAP2 SWAP1 POP JUMP JUMPDEST PUSH1 0x0 PUSH1 0x20 DUP3 ADD SWAP1 POP DUP2 DUP2 SUB PUSH1 0x0 DUP4 ADD MSTORE PUSH2 0x203A DUP2 PUSH2 0x1FFE JUMP JUMPDEST SWAP1 POP SWAP2 SWAP1 POP JUMP JUMPDEST PUSH32 0x416C726561647920566F74656400000000000000000000000000000000000000 PUSH1 0x0 DUP3 ADD MSTORE POP JUMP JUMPDEST PUSH1 0x0 PUSH2 0x2077 PUSH1 0xD DUP4 PUSH2 0x1F9E JUMP JUMPDEST SWAP2 POP PUSH2 0x2082 DUP3 PUSH2 0x2041 JUMP JUMPDEST PUSH1 0x20 DUP3 ADD SWAP1 POP SWAP2 SWAP1 POP JUMP JUMPDEST PUSH1 0x0 PUSH1 0x20 DUP3 ADD SWAP1 POP DUP2 DUP2 SUB PUSH1 0x0 DUP4 ADD MSTORE PUSH2 0x20A6 DUP2 PUSH2 0x206A JUMP JUMPDEST SWAP1 POP SWAP2 SWAP1 POP JUMP JUMPDEST PUSH32 0x566F74696E6720506572696F642046696E697368656400000000000000000000 PUSH1 0x0 DUP3 ADD MSTORE POP JUMP JUMPDEST PUSH1 0x0 PUSH2 0x20E3 PUSH1 0x16 DUP4 PUSH2 0x1F9E JUMP JUMPDEST SWAP2 POP PUSH2 0x20EE DUP3 PUSH2 0x20AD JUMP JUMPDEST PUSH1 0x20 DUP3 ADD SWAP1 POP SWAP2 SWAP1 POP JUMP JUMPDEST PUSH1 0x0 PUSH1 0x20 DUP3 ADD SWAP1 POP DUP2 DUP2 SUB PUSH1 0x0 DUP4 ADD MSTORE PUSH2 0x2112 DUP2 PUSH2 0x20D6 JUMP JUMPDEST SWAP1 POP SWAP2 SWAP1 POP JUMP JUMPDEST PUSH32 0x5468652046696C65636F696E206D6574686F642074686174207761732063616C PUSH1 0x0 DUP3 ADD MSTORE PUSH32 0x6C6564206973206E6F742068616E646C65640000000000000000000000000000 PUSH1 0x20 DUP3 ADD MSTORE POP JUMP JUMPDEST PUSH1 0x0 PUSH2 0x2175 PUSH1 0x32 DUP4 PUSH2 0x1F9E JUMP JUMPDEST SWAP2 POP PUSH2 0x2180 DUP3 PUSH2 0x2119 JUMP JUMPDEST PUSH1 0x40 DUP3 ADD SWAP1 POP SWAP2 SWAP1 POP JUMP JUMPDEST PUSH1 0x0 PUSH1 0x20 DUP3 ADD SWAP1 POP DUP2 DUP2 SUB PUSH1 0x0 DUP4 ADD MSTORE PUSH2 0x21A4 DUP2 PUSH2 0x2168 JUMP JUMPDEST SWAP1 POP SWAP2 SWAP1 POP JUMP JUMPDEST PUSH32 0x434944206D757374206265206164646564206265666F726520617574686F7269 PUSH1 0x0 DUP3 ADD MSTORE PUSH32 0x7A696E6700000000000000000000000000000000000000000000000000000000 PUSH1 0x20 DUP3 ADD MSTORE POP JUMP JUMPDEST PUSH1 0x0 PUSH2 0x2207 PUSH1 0x24 DUP4 PUSH2 0x1F9E JUMP JUMPDEST SWAP2 POP PUSH2 0x2212 DUP3 PUSH2 0x21AB JUMP JUMPDEST PUSH1 0x40 DUP3 ADD SWAP1 POP SWAP2 SWAP1 POP JUMP JUMPDEST PUSH1 0x0 PUSH1 0x20 DUP3 ADD SWAP1 POP DUP2 DUP2 SUB PUSH1 0x0 DUP4 ADD MSTORE PUSH2 0x2236 DUP2 PUSH2 0x21FA JUMP JUMPDEST SWAP1 POP SWAP2 SWAP1 POP JUMP JUMPDEST PUSH32 0x446174612073697A65206D757374206D61746368206578706563746564000000 PUSH1 0x0 DUP3 ADD MSTORE POP JUMP JUMPDEST PUSH1 0x0 PUSH2 0x2273 PUSH1 0x1D DUP4 PUSH2 0x1F9E JUMP JUMPDEST SWAP2 POP PUSH2 0x227E DUP3 PUSH2 0x223D JUMP JUMPDEST PUSH1 0x20 DUP3 ADD SWAP1 POP SWAP2 SWAP1 POP JUMP JUMPDEST PUSH1 0x0 PUSH1 0x20 DUP3 ADD SWAP1 POP DUP2 DUP2 SUB PUSH1 0x0 DUP4 ADD MSTORE PUSH2 0x22A2 DUP2 PUSH2 0x2266 JUMP JUMPDEST SWAP1 POP SWAP2 SWAP1 POP JUMP JUMPDEST PUSH32 0x4465616C206661696C656420706F6C69637920636865636B3A20576173207468 PUSH1 0x0 DUP3 ADD MSTORE PUSH32 0x65204349442070726F706F73616C205061737365643F00000000000000000000 PUSH1 0x20 DUP3 ADD MSTORE POP JUMP JUMPDEST PUSH1 0x0 PUSH2 0x2305 PUSH1 0x36 DUP4 PUSH2 0x1F9E JUMP JUMPDEST SWAP2 POP PUSH2 0x2310 DUP3 PUSH2 0x22A9 JUMP JUMPDEST PUSH1 0x40 DUP3 ADD SWAP1 POP SWAP2 SWAP1 POP JUMP JUMPDEST PUSH1 0x0 PUSH1 0x20 DUP3 ADD SWAP1 POP DUP2 DUP2 SUB PUSH1 0x0 DUP4 ADD MSTORE PUSH2 0x2334 DUP2 PUSH2 0x22F8 JUMP JUMPDEST SWAP1 POP SWAP2 SWAP1 POP JUMP JUMPDEST PUSH32 0x4E487B7100000000000000000000000000000000000000000000000000000000 PUSH1 0x0 MSTORE PUSH1 0x32 PUSH1 0x4 MSTORE PUSH1 0x24 PUSH1 0x0 REVERT JUMPDEST PUSH32 0x4E487B7100000000000000000000000000000000000000000000000000000000 PUSH1 0x0 MSTORE PUSH1 0x1 PUSH1 0x4 MSTORE PUSH1 0x24 PUSH1 0x0 REVERT JUMPDEST PUSH1 0x0 DUP1 REVERT JUMPDEST PUSH1 0x0 DUP1 REVERT JUMPDEST PUSH1 0x0 DUP1 DUP6 DUP6 GT ISZERO PUSH2 0x23B7 JUMPI PUSH2 0x23B6 PUSH2 0x2399 JUMP JUMPDEST JUMPDEST DUP4 DUP7 GT ISZERO PUSH2 0x23C8 JUMPI PUSH2 0x23C7 PUSH2 0x239E JUMP JUMPDEST JUMPDEST PUSH1 0x1 DUP6 MUL DUP4 ADD SWAP2 POP DUP5 DUP7 SUB SWAP1 POP SWAP5 POP SWAP5 SWAP3 POP POP POP JUMP JUMPDEST PUSH32 0x736C6963696E67206F7574206F662072616E6765000000000000000000000000 PUSH1 0x0 DUP3 ADD MSTORE POP JUMP JUMPDEST PUSH1 0x0 PUSH2 0x2414 PUSH1 0x14 DUP4 PUSH2 0x1F9E JUMP JUMPDEST SWAP2 POP PUSH2 0x241F DUP3 PUSH2 0x23DE JUMP JUMPDEST PUSH1 0x20 DUP3 ADD SWAP1 POP SWAP2 SWAP1 POP JUMP JUMPDEST PUSH1 0x0 PUSH1 0x20 DUP3 ADD SWAP1 POP DUP2 DUP2 SUB PUSH1 0x0 DUP4 ADD MSTORE PUSH2 0x2443 DUP2 PUSH2 0x2407 JUMP JUMPDEST SWAP1 POP SWAP2 SWAP1 POP JUMP INVALID LOG2 PUSH5 0x6970667358 0x22 SLT KECCAK256 MUL 0xB6 0x49 0xC7 0xF7 0xAE SSTORE JUMP DUP12 0x25 0xC4 0x23 0x1E 0xF7 REVERT 0xE8 0x2A 0xC5 0xE4 ADDMOD SGT 0x4C PUSH30 0xA0B8426F137A9FC44564736F6C634300080D003300000000000000000000 "},"methodIdentifiers":{"AUTHORIZE_MESSAGE_METHOD_NUM()":"c3bd579b","authorizeData(uint256,bytes,bytes,uint256)":"a0478def","cidProviders(bytes,bytes)":"6fc6a748","cidSet(bytes)":"3d7650b2","cidSizes(bytes)":"8f8a6d8f","createAddCIDProposal(bytes,uint256)":"571b871c","downvoteCIDProposal(uint256)":"8f79d511","handle_filecoin_method(uint64,uint64,bytes,uint256)":"819ee1f1","hasVotedForProposal(address,uint256)":"32e08142","isVotingOn(uint256)":"9106989b","proposalCount()":"da35c664","proposals(uint256)":"013cf08b","upvoteCIDProposal(uint256)":"7bb58b8c"}}}}}