{
  "_format": "hh-sol-artifact-1",
  "contractName": "DataDAO",
  "sourceName": "contracts/datadao.sol",
  "abi": [
    {
      "inputs": [],
      "name": "AUTHORIZE_MESSAGE_METHOD_NUM",
      "outputs": [
        {
          "internalType": "uint64",
          "name": "",
          "type": "uint64"
        }
      ],
      "stateMutability": "view",
      "type": "function"
    },
    {
      "inputs": [
        {
          "internalType": "uint256",
          "name": "proposalID",
          "type": "uint256"
        },
        {
          "internalType": "bytes",
          "name": "cidraw",
          "type": "bytes"
        },
        {
          "internalType": "bytes",
          "name": "provider",
          "type": "bytes"
        },
        {
          "internalType": "uint256",
          "name": "size",
          "type": "uint256"
        }
      ],
      "name": "authorizeData",
      "outputs": [],
      "stateMutability": "nonpayable",
      "type": "function"
    },
    {
      "inputs": [
        {
          "internalType": "bytes",
          "name": "",
          "type": "bytes"
        },
        {
          "internalType": "bytes",
          "name": "",
          "type": "bytes"
        }
      ],
      "name": "cidProviders",
      "outputs": [
        {
          "internalType": "bool",
          "name": "",
          "type": "bool"
        }
      ],
      "stateMutability": "view",
      "type": "function"
    },
    {
      "inputs": [
        {
          "internalType": "bytes",
          "name": "",
          "type": "bytes"
        }
      ],
      "name": "cidSet",
      "outputs": [
        {
          "internalType": "bool",
          "name": "",
          "type": "bool"
        }
      ],
      "stateMutability": "view",
      "type": "function"
    },
    {
      "inputs": [
        {
          "internalType": "bytes",
          "name": "",
          "type": "bytes"
        }
      ],
      "name": "cidSizes",
      "outputs": [
        {
          "internalType": "uint256",
          "name": "",
          "type": "uint256"
        }
      ],
      "stateMutability": "view",
      "type": "function"
    },
    {
      "inputs": [
        {
          "internalType": "bytes",
          "name": "cidraw",
          "type": "bytes"
        },
        {
          "internalType": "uint256",
          "name": "size",
          "type": "uint256"
        }
      ],
      "name": "createAddCIDProposal",
      "outputs": [],
      "stateMutability": "nonpayable",
      "type": "function"
    },
    {
      "inputs": [
        {
          "internalType": "uint256",
          "name": "proposalID",
          "type": "uint256"
        }
      ],
      "name": "downvoteCIDProposal",
      "outputs": [],
      "stateMutability": "nonpayable",
      "type": "function"
    },
    {
      "inputs": [
        {
          "internalType": "uint64",
          "name": "",
          "type": "uint64"
        },
        {
          "internalType": "uint64",
          "name": "method",
          "type": "uint64"
        },
        {
          "internalType": "bytes",
          "name": "params",
          "type": "bytes"
        },
        {
          "internalType": "uint256",
          "name": "proposalID",
          "type": "uint256"
        }
      ],
      "name": "handle_filecoin_method",
      "outputs": [],
      "stateMutability": "nonpayable",
      "type": "function"
    },
    {
      "inputs": [
        {
          "internalType": "address",
          "name": "",
          "type": "address"
        },
        {
          "internalType": "uint256",
          "name": "",
          "type": "uint256"
        }
      ],
      "name": "hasVotedForProposal",
      "outputs": [
        {
          "internalType": "bool",
          "name": "",
          "type": "bool"
        }
      ],
      "stateMutability": "view",
      "type": "function"
    },
    {
      "inputs": [
        {
          "internalType": "uint256",
          "name": "proposalID",
          "type": "uint256"
        }
      ],
      "name": "isVotingOn",
      "outputs": [
        {
          "internalType": "bool",
          "name": "",
          "type": "bool"
        }
      ],
      "stateMutability": "view",
      "type": "function"
    },
    {
      "inputs": [],
      "name": "proposalCount",
      "outputs": [
        {
          "internalType": "uint256",
          "name": "",
          "type": "uint256"
        }
      ],
      "stateMutability": "view",
      "type": "function"
    },
    {
      "inputs": [
        {
          "internalType": "uint256",
          "name": "",
          "type": "uint256"
        }
      ],
      "name": "proposals",
      "outputs": [
        {
          "internalType": "uint256",
          "name": "proposalID",
          "type": "uint256"
        },
        {
          "internalType": "address",
          "name": "storageProvider",
          "type": "address"
        },
        {
          "internalType": "bytes",
          "name": "cidraw",
          "type": "bytes"
        },
        {
          "internalType": "uint256",
          "name": "size",
          "type": "uint256"
        },
        {
          "internalType": "uint256",
          "name": "upVoteCount",
          "type": "uint256"
        },
        {
          "internalType": "uint256",
          "name": "downVoteCount",
          "type": "uint256"
        },
        {
          "internalType": "uint256",
          "name": "proposedAt",
          "type": "uint256"
        },
        {
          "internalType": "uint256",
          "name": "proposalExpireAt",
          "type": "uint256"
        }
      ],
      "stateMutability": "view",
      "type": "function"
    },
    {
      "inputs": [
        {
          "internalType": "uint256",
          "name": "proposalID",
          "type": "uint256"
        }
      ],
      "name": "upvoteCIDProposal",
      "outputs": [],
      "stateMutability": "nonpayable",
      "type": "function"
    }
  ],
  "bytecode": "0x608060405234801561001057600080fd5b50612480806100206000396000f3fe608060405234801561001057600080fd5b50600436106100cf5760003560e01c8063819ee1f11161008c5780639106989b116100665780639106989b1461023b578063a0478def1461026b578063c3bd579b14610287578063da35c664146102a5576100cf565b8063819ee1f1146101d35780638f79d511146101ef5780638f8a6d8f1461020b576100cf565b8063013cf08b146100d457806332e081421461010b5780633d7650b21461013b578063571b871c1461016b5780636fc6a748146101875780637bb58b8c146101b7575b600080fd5b6100ee60048036038101906100e991906117c9565b6102c3565b6040516101029897969594939291906118df565b60405180910390f35b61012560048036038101906101209190611990565b6103b3565b60405161013291906119eb565b60405180910390f35b61015560048036038101906101509190611b3b565b6103e2565b60405161016291906119eb565b60405180910390f35b61018560048036038101906101809190611be4565b610418565b005b6101a1600480360381019061019c9190611c44565b6105f3565b6040516101ae91906119eb565b60405180910390f35b6101d160048036038101906101cc91906117c9565b61064e565b005b6101ed60048036038101906101e89190611cfc565b610826565b005b610209600480360381019061020491906117c9565b6108cd565b005b61022560048036038101906102209190611b3b565b610aa5565b6040516102329190611d84565b60405180910390f35b610255600480360381019061025091906117c9565b610ad3565b60405161026291906119eb565b60405180910390f35b61028560048036038101906102809190611d9f565b610af5565b005b61028f610c6b565b60405161029c9190611e55565b60405180910390f35b6102ad610c73565b6040516102ba9190611d84565b60405180910390f35b60046020528060005260406000206000915090508060000154908060010160009054906101000a900473ffffffffffffffffffffffffffffffffffffffff169080600201805461031290611e9f565b80601f016020809104026020016040519081016040528092919081815260200182805461033e90611e9f565b801561038b5780601f106103605761010080835404028352916020019161038b565b820191906000526020600020905b81548152906001019060200180831161036e57829003601f168201915b5050505050908060030154908060040154908060050154908060060154908060070154905088565b60056020528160005260406000206020528060005260406000206000915091509054906101000a900460ff1681565b6000818051602081018201805184825260208301602085012081835280955050505050506000915054906101000a900460ff1681565b60016003546104279190611eff565b600381905550600060405180610100016040528060035481526020013373ffffffffffffffffffffffffffffffffffffffff16815260200185858080601f016020809104026020016040519081016040528093929190818152602001838380828437600081840152601f19601f820116905080830192505050505050508152602001838152602001600081526020016000815260200142815260200161012c426104d19190611eff565b8152509050806004600060035481526020019081526020016000206000820151816000015560208201518160010160006101000a81548173ffffffffffffffffffffffffffffffffffffffff021916908373ffffffffffffffffffffffffffffffffffffffff16021790555060408201518160020190805190602001906105599291906116dc565b50606082015181600301556080820151816004015560a0820151816005015560c0820151816006015560e082015181600701559050506001600085856040516105a3929190611f85565b908152602001604051809103902060006101000a81548160ff02191690831515021790555081600185856040516105db929190611f85565b90815260200160405180910390208190555050505050565b600282805160208101820180518482526020830160208501208183528095505050505050818051602081018201805184825260208301602085012081835280955050505050506000915091509054906101000a900460ff1681565b61065781610c79565b15610697576040517f08c379a000000000000000000000000000000000000000000000000000000000815260040161068e90612021565b60405180910390fd5b600560003373ffffffffffffffffffffffffffffffffffffffff1673ffffffffffffffffffffffffffffffffffffffff168152602001908152602001600020600082815260200190815260200160002060009054906101000a900460ff1615610735576040517f08c379a000000000000000000000000000000000000000000000000000000000815260040161072c9061208d565b60405180910390fd5b61073e81610ad3565b61077d576040517f08c379a0000000000000000000000000000000000000000000000000000000008152600401610774906120f9565b60405180910390fd5b600160046000838152602001908152602001600020600401546107a09190611eff565b60046000838152602001908152602001600020600401819055506001600560003373ffffffffffffffffffffffffffffffffffffffff1673ffffffffffffffffffffffffffffffffffffffff168152602001908152602001600020600083815260200190815260200160002060006101000a81548160ff02191690831515021790555050565b639d8b067867ffffffffffffffff168467ffffffffffffffff160361088b573660006108528585610cb9565b91509150366000366000806108678787610e6f565b9450945094509450945061087f888686868686610af5565b505050505050506108c6565b6040517f08c379a00000000000000000000000000000000000000000000000000000000081526004016108bd9061218b565b60405180910390fd5b5050505050565b6108d681610c79565b15610916576040517f08c379a000000000000000000000000000000000000000000000000000000000815260040161090d90612021565b60405180910390fd5b600560003373ffffffffffffffffffffffffffffffffffffffff1673ffffffffffffffffffffffffffffffffffffffff168152602001908152602001600020600082815260200190815260200160002060009054906101000a900460ff16156109b4576040517f08c379a00000000000000000000000000000000000000000000000000000000081526004016109ab9061208d565b60405180910390fd5b6109bd81610ad3565b6109fc576040517f08c379a00000000000000000000000000000000000000000000000000000000081526004016109f3906120f9565b60405180910390fd5b60016004600083815260200190815260200160002060050154610a1f9190611eff565b60046000838152602001908152602001600020600501819055506001600560003373ffffffffffffffffffffffffffffffffffffffff1673ffffffffffffffffffffffffffffffffffffffff168152602001908152602001600020600083815260200190815260200160002060006101000a81548160ff02191690831515021790555050565b6001818051602081018201805184825260208301602085012081835280955050505050506000915090505481565b6000426004600084815260200190815260200160002060070154119050919050565b60008585604051610b07929190611f85565b908152602001604051809103902060009054906101000a900460ff16610b62576040517f08c379a0000000000000000000000000000000000000000000000000000000008152600401610b599061221d565b60405180910390fd5b8060018686604051610b75929190611f85565b90815260200160405180910390205414610bc4576040517f08c379a0000000000000000000000000000000000000000000000000000000008152600401610bbb90612289565b60405180910390fd5b610bcd8661133a565b610c0c576040517f08c379a0000000000000000000000000000000000000000000000000000000008152600401610c039061231b565b60405180910390fd5b600160028686604051610c20929190611f85565b90815260200160405180910390208484604051610c3e929190611f85565b908152602001604051809103902060006101000a81548160ff021916908315150217905550505050505050565b639d8b067881565b60035481565b60003373ffffffffffffffffffffffffffffffffffffffff16610c9b83611372565b73ffffffffffffffffffffffffffffffffffffffff16149050919050565b36600080600090507f820000000000000000000000000000000000000000000000000000000000000085856000818110610cf657610cf561233b565b5b9050013560f81c60f81b7effffffffffffffffffffffffffffffffffffffffffffffffffffffffffffff191614610d3057610d2f61236a565b5b600181610d3d9190611eff565b9050600080610d9087878080601f016020809104026020016040519081016040528093929190818152602001838380828437600081840152601f19601f82011690508083019250505050505050846113b2565b8167ffffffffffffffff169150809550819350829450505050600260ff168260ff1614610dc057610dbf61236a565b5b8083610dcc9190611eff565b9250610e1c87878080601f016020809104026020016040519081016040528093929190818152602001838380828437600081840152601f19601f82011690508083019250505050505050846113b2565b8167ffffffffffffffff169150809550819350829450505050600260ff168260ff1614610e4c57610e4b61236a565b5b868684908989905092610e61939291906123a3565b945094505050509250929050565b3660003660008060007f8b00000000000000000000000000000000000000000000000000000000000000888883818110610eac57610eab61233b565b5b9050013560f81c60f81b7effffffffffffffffffffffffffffffffffffffffffffffffffffffffffffff191614610ee657610ee561236a565b5b600181610ef39190611eff565b90507fd800000000000000000000000000000000000000000000000000000000000000888883818110610f2957610f2861233b565b5b9050013560f81c60f81b7effffffffffffffffffffffffffffffffffffffffffffffffffffffffffffff191614610f6357610f6261236a565b5b600181610f709190611eff565b90507f2a00000000000000000000000000000000000000000000000000000000000000888883818110610fa657610fa561233b565b5b9050013560f81c60f81b7effffffffffffffffffffffffffffffffffffffffffffffffffffffffffffff191614610fe057610fdf61236a565b5b600181610fed9190611eff565b90506000806110408a8a8080601f016020809104026020016040519081016040528093929190818152602001838380828437600081840152601f19601f82011690508083019250505050505050846113b2565b8167ffffffffffffffff169150809550819350829450505050600260ff168260ff16146110705761106f61236a565b5b8989849083866110809190611eff565b9261108d939291906123a3565b97509750808361109d9190611eff565b92506110ed8a8a8080601f016020809104026020016040519081016040528093929190818152602001838380828437600081840152601f19601f82011690508083019250505050505050846113b2565b8167ffffffffffffffff169150809550819650829450505050600060ff168260ff161461111d5761111c61236a565b5b7ff4000000000000000000000000000000000000000000000000000000000000008a8a858181106111515761115061233b565b5b9050013560f81c60f81b7effffffffffffffffffffffffffffffffffffffffffffffffffffffffffffff191614806111e657507ff5000000000000000000000000000000000000000000000000000000000000008a8a858181106111b8576111b761233b565b5b9050013560f81c60f81b7effffffffffffffffffffffffffffffffffffffffffffffffffffffffffffff1916145b6111f3576111f261236a565b5b6001836112009190611eff565b92506112508a8a8080601f016020809104026020016040519081016040528093929190818152602001838380828437600081840152601f19601f82011690508083019250505050505050846113b2565b8167ffffffffffffffff169150809550819350829450505050600260ff168260ff16146112805761127f61236a565b5b808361128c9190611eff565b92506112dc8a8a8080601f016020809104026020016040519081016040528093929190818152602001838380828437600081840152601f19601f82011690508083019250505050505050846113b2565b8167ffffffffffffffff169150809550819350829450505050600260ff168260ff161461130c5761130b61236a565b5b89898490838661131c9190611eff565b92611329939291906123a3565b955095505050509295509295909350565b600060046000838152602001908152602001600020600501546004600084815260200190815260200160002060040154119050919050565b60006004600083815260200190815260200160002060010160009054906101000a900473ffffffffffffffffffffffffffffffffffffffff169050919050565b6000806000806113c28686611540565b90506001856113d19190611eff565b94506000600560e0831660ff16901c90506000601f83169050601c8160ff16106113fe576113fd61236a565b5b60188160ff161015611421578181888160ff169150955095509550505050611539565b60188160ff16036114765760006114388989611540565b90506001886114479190611eff565b975060188160ff16101561145e5761145d61236a565b5b8281898160ff16915096509650965050505050611539565b60198160ff16036114b757600061148d89896115a7565b905060028861149c9190611eff565b97508281898161ffff16915096509650965050505050611539565b601a8160ff16036114fa5760006114ce898961160e565b90506004886114dd9190611eff565b97508281898163ffffffff16915096509650965050505050611539565b601b8160ff161461150e5761150d61236a565b5b600061151a8989611675565b90506008886115299190611eff565b9750828189965096509650505050505b9250925092565b600060018261154f9190611eff565b83511015611592576040517f08c379a00000000000000000000000000000000000000000000000000000000081526004016115899061242a565b60405180910390fd5b60008260010184015190508091505092915050565b60006002826115b69190611eff565b835110156115f9576040517f08c379a00000000000000000000000000000000000000000000000000000000081526004016115f09061242a565b60405180910390fd5b60008260020184015190508091505092915050565b600060048261161d9190611eff565b83511015611660576040517f08c379a00000000000000000000000000000000000000000000000000000000081526004016116579061242a565b60405180910390fd5b60008260040184015190508091505092915050565b60006008826116849190611eff565b835110156116c7576040517f08c379a00000000000000000000000000000000000000000000000000000000081526004016116be9061242a565b60405180910390fd5b60008260080184015190508091505092915050565b8280546116e890611e9f565b90600052602060002090601f01602090048101928261170a5760008555611751565b82601f1061172357805160ff1916838001178555611751565b82800160010185558215611751579182015b82811115611750578251825591602001919060010190611735565b5b50905061175e9190611762565b5090565b5b8082111561177b576000816000905550600101611763565b5090565b6000604051905090565b600080fd5b600080fd5b6000819050919050565b6117a681611793565b81146117b157600080fd5b50565b6000813590506117c38161179d565b92915050565b6000602082840312156117df576117de611789565b5b60006117ed848285016117b4565b91505092915050565b6117ff81611793565b82525050565b600073ffffffffffffffffffffffffffffffffffffffff82169050919050565b600061183082611805565b9050919050565b61184081611825565b82525050565b600081519050919050565b600082825260208201905092915050565b60005b83811015611880578082015181840152602081019050611865565b8381111561188f576000848401525b50505050565b6000601f19601f8301169050919050565b60006118b182611846565b6118bb8185611851565b93506118cb818560208601611862565b6118d481611895565b840191505092915050565b6000610100820190506118f5600083018b6117f6565b611902602083018a611837565b818103604083015261191481896118a6565b905061192360608301886117f6565b61193060808301876117f6565b61193d60a08301866117f6565b61194a60c08301856117f6565b61195760e08301846117f6565b9998505050505050505050565b61196d81611825565b811461197857600080fd5b50565b60008135905061198a81611964565b92915050565b600080604083850312156119a7576119a6611789565b5b60006119b58582860161197b565b92505060206119c6858286016117b4565b9150509250929050565b60008115159050919050565b6119e5816119d0565b82525050565b6000602082019050611a0060008301846119dc565b92915050565b600080fd5b600080fd5b7f4e487b7100000000000000000000000000000000000000000000000000000000600052604160045260246000fd5b611a4882611895565b810181811067ffffffffffffffff82111715611a6757611a66611a10565b5b80604052505050565b6000611a7a61177f565b9050611a868282611a3f565b919050565b600067ffffffffffffffff821115611aa657611aa5611a10565b5b611aaf82611895565b9050602081019050919050565b82818337600083830152505050565b6000611ade611ad984611a8b565b611a70565b905082815260208101848484011115611afa57611af9611a0b565b5b611b05848285611abc565b509392505050565b600082601f830112611b2257611b21611a06565b5b8135611b32848260208601611acb565b91505092915050565b600060208284031215611b5157611b50611789565b5b600082013567ffffffffffffffff811115611b6f57611b6e61178e565b5b611b7b84828501611b0d565b91505092915050565b600080fd5b600080fd5b60008083601f840112611ba457611ba3611a06565b5b8235905067ffffffffffffffff811115611bc157611bc0611b84565b5b602083019150836001820283011115611bdd57611bdc611b89565b5b9250929050565b600080600060408486031215611bfd57611bfc611789565b5b600084013567ffffffffffffffff811115611c1b57611c1a61178e565b5b611c2786828701611b8e565b93509350506020611c3a868287016117b4565b9150509250925092565b60008060408385031215611c5b57611c5a611789565b5b600083013567ffffffffffffffff811115611c7957611c7861178e565b5b611c8585828601611b0d565b925050602083013567ffffffffffffffff811115611ca657611ca561178e565b5b611cb285828601611b0d565b9150509250929050565b600067ffffffffffffffff82169050919050565b611cd981611cbc565b8114611ce457600080fd5b50565b600081359050611cf681611cd0565b92915050565b600080600080600060808688031215611d1857611d17611789565b5b6000611d2688828901611ce7565b9550506020611d3788828901611ce7565b945050604086013567ffffffffffffffff811115611d5857611d5761178e565b5b611d6488828901611b8e565b93509350506060611d77888289016117b4565b9150509295509295909350565b6000602082019050611d9960008301846117f6565b92915050565b60008060008060008060808789031215611dbc57611dbb611789565b5b6000611dca89828a016117b4565b965050602087013567ffffffffffffffff811115611deb57611dea61178e565b5b611df789828a01611b8e565b9550955050604087013567ffffffffffffffff811115611e1a57611e1961178e565b5b611e2689828a01611b8e565b93509350506060611e3989828a016117b4565b9150509295509295509295565b611e4f81611cbc565b82525050565b6000602082019050611e6a6000830184611e46565b92915050565b7f4e487b7100000000000000000000000000000000000000000000000000000000600052602260045260246000fd5b60006002820490506001821680611eb757607f821691505b602082108103611eca57611ec9611e70565b5b50919050565b7f4e487b7100000000000000000000000000000000000000000000000000000000600052601160045260246000fd5b6000611f0a82611793565b9150611f1583611793565b9250827fffffffffffffffffffffffffffffffffffffffffffffffffffffffffffffffff03821115611f4a57611f49611ed0565b5b828201905092915050565b600081905092915050565b6000611f6c8385611f55565b9350611f79838584611abc565b82840190509392505050565b6000611f92828486611f60565b91508190509392505050565b600082825260208201905092915050565b7f53746f726167652050726f76696465722063616e6e6f7420766f74652068697360008201527f206f776e2070726f706f73616c00000000000000000000000000000000000000602082015250565b600061200b602d83611f9e565b915061201682611faf565b604082019050919050565b6000602082019050818103600083015261203a81611ffe565b9050919050565b7f416c726561647920566f74656400000000000000000000000000000000000000600082015250565b6000612077600d83611f9e565b915061208282612041565b602082019050919050565b600060208201905081810360008301526120a68161206a565b9050919050565b7f566f74696e6720506572696f642046696e697368656400000000000000000000600082015250565b60006120e3601683611f9e565b91506120ee826120ad565b602082019050919050565b60006020820190508181036000830152612112816120d6565b9050919050565b7f5468652046696c65636f696e206d6574686f642074686174207761732063616c60008201527f6c6564206973206e6f742068616e646c65640000000000000000000000000000602082015250565b6000612175603283611f9e565b915061218082612119565b604082019050919050565b600060208201905081810360008301526121a481612168565b9050919050565b7f434944206d757374206265206164646564206265666f726520617574686f726960008201527f7a696e6700000000000000000000000000000000000000000000000000000000602082015250565b6000612207602483611f9e565b9150612212826121ab565b604082019050919050565b60006020820190508181036000830152612236816121fa565b9050919050565b7f446174612073697a65206d757374206d61746368206578706563746564000000600082015250565b6000612273601d83611f9e565b915061227e8261223d565b602082019050919050565b600060208201905081810360008301526122a281612266565b9050919050565b7f4465616c206661696c656420706f6c69637920636865636b3a2057617320746860008201527f65204349442070726f706f73616c205061737365643f00000000000000000000602082015250565b6000612305603683611f9e565b9150612310826122a9565b604082019050919050565b60006020820190508181036000830152612334816122f8565b9050919050565b7f4e487b7100000000000000000000000000000000000000000000000000000000600052603260045260246000fd5b7f4e487b7100000000000000000000000000000000000000000000000000000000600052600160045260246000fd5b600080fd5b600080fd5b600080858511156123b7576123b6612399565b5b838611156123c8576123c761239e565b5b6001850283019150848603905094509492505050565b7f736c6963696e67206f7574206f662072616e6765000000000000000000000000600082015250565b6000612414601483611f9e565b915061241f826123de565b602082019050919050565b6000602082019050818103600083015261244381612407565b905091905056fea264697066735822122002b649c7f7ae55568b25c4231ef7fde82ac5e408134c7da0b8426f137a9fc44564736f6c634300080d0033",
  "linkReferences": {},
  "deployedLinkReferences": {}
}