{
  "_format": "hh-sol-artifact-1",
  "contractName": "MockMarket",
  "sourceName": "contracts/datadao.sol",
  "abi": [
    {
      "inputs": [
        {
          "internalType": "address",
          "name": "_client",
          "type": "address"
        }
      ],
      "stateMutability": "nonpayable",
      "type": "constructor"
    },
    {
      "inputs": [
        {
          "internalType": "bytes",
          "name": "raw_auth_params",
          "type": "bytes"
        },
        {
          "internalType": "uint256",
          "name": "proposalID",
          "type": "uint256"
        }
      ],
      "name": "publish_deal",
      "outputs": [],
      "stateMutability": "nonpayable",
      "type": "function"
    }
  ],
  "bytecode": "0x608060405234801561001057600080fd5b5060405161048a38038061048a833981810160405281019061003291906100db565b806000806101000a81548173ffffffffffffffffffffffffffffffffffffffff021916908373ffffffffffffffffffffffffffffffffffffffff16021790555050610108565b600080fd5b600073ffffffffffffffffffffffffffffffffffffffff82169050919050565b60006100a88261007d565b9050919050565b6100b88161009d565b81146100c357600080fd5b50565b6000815190506100d5816100af565b92915050565b6000602082840312156100f1576100f0610078565b5b60006100ff848285016100c6565b91505092915050565b610373806101176000396000f3fe608060405234801561001057600080fd5b506004361061002b5760003560e01c8063c5dc4ed514610030575b600080fd5b61004a6004803603810190610045919061018e565b61004c565b005b60008054906101000a900473ffffffffffffffffffffffffffffffffffffffff1673ffffffffffffffffffffffffffffffffffffffff1663819ee1f16000639d8b06788686866040518663ffffffff1660e01b81526004016100b29594939291906102ef565b600060405180830381600087803b1580156100cc57600080fd5b505af11580156100e0573d6000803e3d6000fd5b50505050505050565b600080fd5b600080fd5b600080fd5b600080fd5b600080fd5b60008083601f840112610118576101176100f3565b5b8235905067ffffffffffffffff811115610135576101346100f8565b5b602083019150836001820283011115610151576101506100fd565b5b9250929050565b6000819050919050565b61016b81610158565b811461017657600080fd5b50565b60008135905061018881610162565b92915050565b6000806000604084860312156101a7576101a66100e9565b5b600084013567ffffffffffffffff8111156101c5576101c46100ee565b5b6101d186828701610102565b935093505060206101e486828701610179565b9150509250925092565b6000819050919050565b600067ffffffffffffffff82169050919050565b6000819050919050565b600061023161022c610227846101ee565b61020c565b6101f8565b9050919050565b61024181610216565b82525050565b6000819050919050565b600061026c61026761026284610247565b61020c565b6101f8565b9050919050565b61027c81610251565b82525050565b600082825260208201905092915050565b82818337600083830152505050565b6000601f19601f8301169050919050565b60006102bf8385610282565b93506102cc838584610293565b6102d5836102a2565b840190509392505050565b6102e981610158565b82525050565b60006080820190506103046000830188610238565b6103116020830187610273565b81810360408301526103248185876102b3565b905061033360608301846102e0565b969550505050505056fea2646970667358221220c7239308e9b3cffda39c5a0c470699ababf86c56a69627894e8e7ef45c85e0b664736f6c634300080d0033",
  "linkReferences": {},
  "deployedLinkReferences": {}
}